:020000040800F2
:10000000C80F002001010008A7180008E116000829
:10001000A51800080F020008D31C0008000000000B
:10002000000000000000000000000000051A0008A9
:10003000F103000800000000B9180008071A0008C2
:100040001B0100081B0100081B0100081B01000820
:100050001B0100081B0100081B0100081B01000810
:100060001B0100081B0100081B0100081B01000800
:100070001B0100081B0100081B0100081B010008F0
:100080001B0100081B0100081B0100081B010008E0
:100090001B0100081B0100081B0100081B010008D0
:1000A0001B0100081B0100081B0100081B010008C0
:1000B0006D1A00081B0100081B0100081B01000845
:1000C0001B0100081B0100081B0100081B010008A0
:1000D0001B0100081B0100081B0100081B01000890
:1000E0001B0100081B0100081B010008DFF80CD0F1
:1000F00000F06CF80048004749270008C80F0020AE
:100100000648804706480047FEE7FEE7FEE7FEE7B1
:10011000FEE7FEE7FEE7FEE7FEE7FEE7691A0008F6
:10012000ED000008202A04DB203A21FA02F0002129
:10013000704721FA02F3D040C2F1200291400843F7
:1001400019467047D2B201E000F8012B491EFBD2DC
:1001500070470022F6E710B513460A4604461946D2
:10016000FFF7F0FF204610BD2DE9F05F05460020A7
:1001700092469B4688460646814640241BE0284618
:10018000414647462246FFF7CDFF53465A46C01A1E
:10019000914110D311461846224600F029F82D1A35
:1001A00067EB01084F4622460120002100F020F8AD
:1001B00017EB00094E41201EA4F10104DFDC484684
:1001C00031462A464346BDE8F09F0000064C074DE5
:1001D00006E0E06840F0010394E807009847103417
:1001E000AC42F6D3FFF786FF2441000844410008E3
:1001F000202A04DB203A00FA02F1002070479140E7
:10020000C2F1200320FA03F3194390407047FEE740
:100210002DE9F8430F46804600254FF4106606226C
:100220001F493046009501F081FD1D4C2078617812
:10023000E2780843A17811430843217908436179A2
:1002400008430CD1257008206070DC20A070E57098
:100250002571657106222146304601F0D1FD104E10
:100260001049403E86F80280F763E0784218217911
:100270008B1862794840134450401844B0630422FC
:1002800069464FF4706001F0BBFD0422694690019D
:1002900001F0B6FD02F026FE3570BDE8F8830000DF
:1002A000B4000020785634122DE9F041464C2078F5
:1002B000062822D0A0784FF4427101EB401001F0E3
:1002C00009FD222805D0002344220221A07803F052
:1002D00087F9012502F0FEFAC2B23B4894F90030DA
:1002E000C01D00260127011F4FF00308052B2FD248
:1002F000DFE803F0060D1C304A000520BDE8F08160
:10030000067046708670C67002F076FE5AE0022AC9
:100310001BD1E16B0A7C02704A7C42708A7C82703D
:10032000C97CC17002F054FF02202BE0052A0AD1DB
:1003300002F000F808B1606A3CE002F0D3FDE06A28
:100340008047267004E0062A3AD002F027F80546D6
:100350002846D3E7A2690425012AF9D0E369B3EB63
:10036000520FF5D902780A7042784A7082788A7002
:10037000C078C870A06B401CA06302F029FF02F097
:10038000B1FD04202070E3E70425052ADBD1667067
:100390000A7803789A420BD14A7843789A4207D177
:1003A0008A7883789A4203D1C978C078814202D092
:1003B000A06A0325804702F095FD84F80080C7E716
:1003C00002F090FD2770C3E77400002010B5034CC5
:1003D000A07802F01BF80620207010BD74000020E9
:1003E0000248C169491CC1617047000074000020C7
:1003F000704772B6FEE700002DE9F84FDFF8B891BC
:100400000024A9F1040B23460F2709F1040AABF1DC
:10041000040EC9E00125A5402A40AA427DD1674EBD
:10042000D1F804C0ACEB0608B44532D014DCBCF102
:10043000030F3AD009DCBCF1000F2AD0BCF1010F48
:100440001CD0BCF1020F31D11DE0BCF1110F17D04F
:10045000BCF1120F2AD119E0B8F5881F19D006DCBB
:10046000B8F5803F15D0B8F5801F1FD111E0B8F561
:10047000001F0ED0B8F5041F18D10AE0CB6815E0B4
:10048000CB681B1D12E0CB6808330FE0CB680C3340
:100490000CE08B682BB1012B4FF0080303D04561B2
:1004A00004E0042302E0056100E00023FF2A01D8F4
:1004B000064601E000F104064FEA840501D9A5F1E2
:1004C0002005D6F8008007FA05FC28EA0C0803FA94
:1004D00005F548EA0508C6F800804D68ED0062D5CC
:1004E000374DAE6946F00106AE61AD6924F00306F2
:1004F00005F001050095334D06EB050CDCF80850BE
:10050000A607360F07FA06F825EA0805DFF8B880CF
:10051000404503D14FF0000817E044E0DFF8AC801D
:10052000404502D14FF001080FE0DFF8A4804045BC
:1005300002D14FF0020808E0DFF89880404502D170
:100540004FF0030801E04FF0040808FA06F848EA03
:100550000508CCF808804D68D9F80060ED024D46DA
:1005600001D5164300E096432E604D68DAF800602E
:10057000AD02554601D5164300E096432E604D6806
:10058000DBF80060AD035D4601D5164300E09643FD
:100590002E604D68DEF80060ED03754601D5164308
:1005A00000E096432E60641C0D682A46E5407FF407
:1005B00031AFBDE8F88F00000804014000001110C1
:1005C000001002400000014000080140000C014002
:1005D00000100140001401400AB101617047090494
:1005E000FBE7000001488068704700000000002021
:1005F0000248816802781144816070470000002041
:10060000074810B5016841F010010160032000F0B7
:1006100075F80F2000F006F800F024F8002010BD57
:100620000020024070B50D4D04464FF47A712878D1
:10063000B1FBF0F00A490968B1FBF0F000F0C3FD2E
:1006400048B9102C07D200222146501E00F036F87F
:1006500000206C6070BD012070BD00000000002013
:100660000C0000200C4808B5816941F0010181614E
:10067000816901F001010091C16941F08051C161BE
:10068000C06900F0805000900448416821F0E061AA
:1006900041F00071416008BD0010024000000140BF
:1006A000002809DB00F01F02012191404009800071
:1006B00000F1E020C0F8001170470000F0B40E4BCC
:1006C0001B680C46C3F30223C3F10705042D00D9B0
:1006D0000425191D072901D2002300E0DB1E012695
:1006E00006FA05F1491E214099409E40761E1640AB
:1006F0003143F0BC01F0CCBB0CED00E0064900F04A
:10070000070208684FF6FF03184040EA0220034A38
:1007100010430860704700000CED00E00000FA058F
:100720002DE9F0470F46050061D0434E306800F0D8
:100730000700B84209D2306820F007003843306023
:10074000306800F00700B84251D128683B4C81075F
:1007500012D5400703D5606840F4E06060602878F7
:10076000000703D5606840F4605060606068A96865
:1007700020F0F000084360602878C00728D068683F
:10078000012810D02168022810D0890700292EDA0C
:10079000616821F0030101436160FFF723FF804698
:1007A00041F288390DE021688903EFE78901EDE71F
:1007B000FFF718FFA0EB0801494502D90320BDE867
:1007C000F0876068696800F00C00B0EB810FEFD132
:1007D000306800F00700B8420BD9306820F00700FD
:1007E00038433060306800F00700B84201D0012083
:1007F000E5E72878400705D56068E96820F4E060FF
:10080000084360602878000706D56068296920F4ED
:10081000605040EAC100606000F038F86168084A42
:10082000C1F30311515CC8400649086006480068DE
:10083000FFF7F8FE0020C2E700200240001002404F
:10084000F03F00080C000020040000200448054987
:1008500000684968044AC1F30221515CC8407047EE
:100860000C00002000100240004000080448054928
:1008700000684968044AC1F3C221515CC84070470E
:100880000C00002000100240004000080E4A516891
:100890000E4801F00C03042B11D0082B0FD10C488B
:1008A000C1F38343C903C05C0AD55168084AC1F348
:1008B0004041921E515C054A5043B0FBF1F0704735
:1008C00004494843704700000010024000127A00BB
:1008D000E03F000800093D002DE9F84F040070D00A
:1008E0002078C04DC00749D06868C0F38100012856
:1008F00007D06868C0F38100022809D16868C00386
:1009000006D52868800339D560680028E7D035E02F
:100910006068B0F5803F0BD010B1B0F5A02F11D0BA
:10092000286820F480302860286820F4802002E0C5
:10093000286840F480302860606890B1FFF752FE6C
:1009400006460AE0286840F480202860F0E700BFEF
:10095000FFF748FE801B642873D828688003F7D50A
:100960000CE0FFF73FFE064605E000BFFFF73AFE4A
:10097000801B6428F0D828688003F7D420789A4E2A
:1009800080074FF001094FF0000839D5686810F072
:100990000C0F07D06868C0F38100022809D168688D
:1009A000C00306D42868800714D52069012808D11F
:1009B00010E02069B0B1C6F80090FFF713FE0746BB
:1009C00005E00AE1FFF70EFEC01B0228C4D8286824
:1009D0008007F7D52868616920F0F80040EAC10077
:1009E00028600DE0C6F80080FFF7FCFD074604E034
:1009F000FFF7F8FDC01B022823D828688007F7D42A
:100A0000207800072CD57948A169D9B1C0F80090A9
:100A1000FFF7E8FD074604E0FFF7E4FDC01B0228EE
:100A20000FD8686A8007F7D571484FF4FA5100680B
:100A3000B0FBF1F0009000BF0098411E0091FAD287
:100A40000EE080E0C0F80080FFF7CCFD074604E030
:100A5000FFF7C8FDC01B022875D8686A8007F7D465
:100A60002078400760D5E8690027C00008D4E8690D
:100A700040F08050E861E869012700F08050009064
:100A80005C480168C90513D40168834641F480714C
:100A90000160FFF7A7FD824606E000BFFFF7A2FD59
:100AA000A0EB0A0064284ED8DBF80000C005F5D59D
:100AB000E06801280AD008B1052813D0286A20F080
:100AC00001002862286A20F0040002E0286A40F051
:100AD00001002862E06841F2883B98B1FFF782FD8F
:100AE00082460BE0286A40F004002862EEE700BF6F
:100AF000FFF778FDA0EB0A0159455AD8286A80070C
:100B0000F6D50CE0FFF76EFD824605E0FFF76AFDC3
:100B1000A0EB0A0159454CD8286A8007F6D41FB1CA
:100B2000E86920F08050E861E06988B36968C1F342
:100B30008101022944D00228C6F8608004D0FFF762
:100B400051FD044638E034E0FFF74CFD074604E071
:100B5000FFF748FDC01B02282BD828688001F7D476
:100B6000206AB0F5803F05D16868A16820F40030A4
:100B700008436860D4E908010843696821F47411E6
:100B800008436860C6F86090FFF72CFD044606E055
:100B900025E000BFFFF726FD001B022809D82868C2
:100BA0008001F7D51BE000BFFFF71CFD001B0228EA
:100BB00002D90320BDE8F88F28688001F4D40EE044
:100BC0000128F7D06868226A00F48031914204D18C
:100BD000616A00F47010884201D00120EAE7002029
:100BE000E8E7000000100240000042428004424258
:100BF0000C0000200070004070B5040009D0606A4D
:100C0000002540B125616561A56294F8510040B1AD
:100C10000CE0012070BD6068B0F5827FF4D0E56122
:100C2000F2E784F85050204600F040F8022084F8A3
:100C300051002068016821F040010160A0882189ED
:100C400000F4827001F404410843A18901F40061B9
:100C50000843217C01F002010843217D01F00101DC
:100C60000843218B01F400710843217F01F0380112
:100C7000084394F8201001F080010843218D01F40D
:100C80000051084321680860A069042101EA10406E
:100C9000216848602068C16921F40061C16165650F
:100CA000012084F85100002070BD000030B585B0EF
:100CB000002400940194029403940068144988422B
:100CC00023D11448816941F480518161816901F423
:100CD00080510491816941F00401816180690E4D68
:100CE00000F004000490A020009002200190032056
:100CF000039069462846FFF77FFB4020CDE90004BA
:100D0000694628460294FFF777FB05B030BD000026
:100D10000030014000100240000801402DE9F84F6A
:100D2000044690F851001D4616460F46012838D15A
:100D300060684FF00408B0F5827F01D1A06830B33D
:100D4000FFF750FC8246002F75D0002E73D094F828
:100D50005000012825D04FF0010984F8509084F804
:100D600051804FF00008C4F85480A763A687E68737
:100D7000C4F83080A4F83480A4F83680C4F84080E9
:100D8000C4F84480A068B0F5004F0CD015E084F89A
:100D90005180009313460A46204600F01CF9BDE836
:100DA000F88F0220FBE72068016821F04001016014
:100DB0002068016821F480410160206801684906CB
:100DC00003D4016841F040010160E068C0B134E043
:100DD00020688168C90709D0007BA16B0870A06BEF
:100DE000401CA063E08F401EE08709E0FFF7FAFB9C
:100DF000A0EB0A00A84202D3681C01D032E085B300
:100E0000E08F0028E4D11BE020688168C90709D081
:100E1000C068A16B0880A06B801CA063E08F401E9F
:100E2000E0870AE0FFF7DEFBA0EB0A00A84203D34D
:100E3000681C02D016E012E09DB1E08F0028E3D1DB
:100E400052462946204600F038FD08B12020606552
:100E500084F8519084F85080606D00289FD0012064
:100E60009DE7FFE784F8519084F85080032096E7CF
:100E70002DE9F84F984616468A460446FFF7B2FB1E
:100E8000814694F8510001281ED1BAF1000F73D0A9
:100E9000002E71D094F85000012815D0012784F855
:100EA0005070032084F8510000256565C4F830A017
:100EB000A686E686A563A587E58765642564A068A0
:100EC000B0F5004F03D00CE00220BDE8F88F206899
:100ED000016821F0400101602068016841F480410F
:100EE000016020680168490603D4016841F04001AF
:100EF0000160E068B0F5006F606803D048B3012E70
:100F000027D047E008B1012E1FD1206B216800884F
:100F1000C86006E020688168890709D5216B0988C7
:100F2000C160206B801C2063E08E401EE0860CE0D8
:100F3000FFF758FBA0EB0901414503D3B8F1FF3F90
:100F400003D035E0B8F1000F32D0E08E0028E1D1B7
:100F500023E0206B21680078087306E02068816830
:100F600089070AD5216B09780173206B401C206327
:100F7000E08E401EE0860DE02BE0FFF733FBA0EB98
:100F80000901414503D3B8F1FF3F03D010E0B8F1A8
:100F9000000F0DD0E08E0028E0D14A4641462046A1
:100FA00000F0B9FC08B120206065A06830B109E00C
:100FB00084F8517084F85050032086E72068C16897
:100FC0008068009084F8517004F8505F60680028D1
:100FD000F3D0012079E72DE9FF4F81B01D469346FC
:100FE00004464FF001090E9EFFF7FCFA074694F8FD
:100FF00051006168012806D0B1F5827F3CD1A1681B
:10100000C9BB042838D10298002871D0BBF1000F69
:10101000FBD0002DF9D094F8500001282CD04FF0CF
:10102000010A84F850A094F85100042802D0052049
:1010300084F851004FF00008C4F85480C4F838B068
:10104000E587A58702992163E586A586C4F84080D7
:10105000C4F8448020680168490603D4016841F05F
:1010600040010160E068B0F5006F606808D0F0B33F
:10107000012D49D081E0FFE7022005B0BDE8F08FE7
:1010800008B1012D39D1206B21680088C860206B20
:10109000801C2063E08E401EE0862EE02068816880
:1010A00089070FD5E18E69B1B9F1010F0AD1216B22
:1010B0000988C160206B801C2063E08E401EE086A2
:1010C0004FF0000920688168C9070CD0E18F51B149
:1010D000C068A16B0880A06B801CA063E08F401EDD
:1010E000E0874FF00109FFF77DFAC01B01E00BE03C
:1010F00067E0B04201D3701C50D1E08E0028CDD102
:10110000E08F0028CAD13EE0206B21680078087388
:10111000206B401C2063E08E401EE0862DE020689E
:10112000816889070FD5E18E69B1B9F1010F0AD144
:10113000216B09780173206B401C2063E08E401EF8
:10114000E0864FF0000920688168C9070CD0E18F64
:1011500051B1C068A16B0870A06B401CA063E08F08
:10116000401EE0874FF00109FFF73CFAC01BB04278
:1011700002D3701C01D011E086B1E08E0028CED1E0
:10118000E08F0028CBD13A463146204600F0C3FB21
:1011900050B12020606584F8508012E084F851A09E
:1011A00084F85080032068E7A06818B92068C168F7
:1011B0008068009084F851A084F85080606D002809
:1011C000F1D0012059E710B5401EB0F1807F01D366
:1011D000012010BD4FF0E02460610F21601700F086
:1011E00057FE0020A06107202061002010BD70473D
:1011F0007047000070B590F83C20012A26D00124E9
:1012000080F83C40022280F83D2003685A689D68BF
:1012100022F070060A6832435A600D4B02689A4207
:1012200008D0B2F1804F05D00A4B9A4202D00A4B47
:101230009A4204D1496825F080031943916080F8EF
:101240003D40002180F83C10084670BD022070BD72
:10125000002C0140000400400008004010B50400CC
:1012600003D094F83D0010B107E0012010BD00202C
:1012700084F83C00204600F01FF8022084F83D006E
:10128000211D206800F0F8FB012084F8460084F856
:101290003E0084F83F0084F8400084F8410084F860
:1012A000420084F8430084F8440084F8450084F840
:1012B0003D00002010BD000008B50068B0F1804F6F
:1012C00012D10A48C16941F00101C161C06900221F
:1012D00000F00100009011461C20FFF7EFF9BDE877
:1012E00008401C20FFF7DCB908BD000000100240D8
:1012F00090F83D10012901D001207047022180F8AB
:101300003D100168CA6842F00102CA6000680B49DA
:10131000884208D0B0F1804F05D00949884202D0F8
:101320000849884204D1816801F00701062903D0E9
:10133000016841F00101016000207047002C01406C
:10134000000400400008004070B5044690F83C00DE
:101350000025012817D0012684F83C60022084F87B
:101360003D002068826822F0770222F47F4282608A
:101370000868502838D00DDC20284FD005DC90B309
:10138000102811D14AE0022070BD302846D04028F4
:101390000AD13BE060282FD070280DD0B0F5805FD7
:1013A00003D0B0F5005F12D0012584F83D60002025
:1013B00084F83C00284670BDCB68D1E90121206843
:1013C00000F096FB2068816841F0770109E0CB6866
:1013D000D1E90121206800F08BFB2068816841F48D
:1013E00080418160E1E719E0CA684968206800F03F
:1013F00091FB5021206806E0CA684968206800F027
:101400009AFB6021206800F07DFBCEE7CA6849683E
:10141000206800F07FFB40212068F4E72268014645
:101420001046F0E770472DE9F04104460068C668B1
:1014300005694FF00007A90713D5B10711D5F91EAB
:10144000016101202077206880698007204602D052
:10145000FFF7E8FF04E000F07EF8204600F07CF89B
:101460002777680716D5700714D521686FF0040038
:101470000861022020772068806910F4407F2046B0
:1014800002D0FFF7CFFF04E000F065F8204600F03F
:1014900063F82777280715D5300713D521686FF033
:1014A00008000861042020772068C0698007204672
:1014B00002D0FFF7B7FF04E000F04DF8204600F03F
:1014C0004BF82777E80616D5F00614D521686FF09B
:1014D00010000861082020772068C06910F4407F60
:1014E000204602D0FFF79EFF04E000F034F82046CB
:1014F00000F032F82777E80708D0F00706D0216817
:101500006FF001000861204600F027F8280608D592
:10151000300606D521686FF0800008612046FFF78D
:1015200066FE680608D5700606D521686FF0400093
:101530000861204600F018F8A8060AD5B00608D5BC
:1015400021686FF0200008612046BDE8F041FFF7F8
:101550004FBEBDE8F081704770470068B0F1804F22
:1015600001D102F0ADBA7047704770B5040004D0E5
:1015700094F84100002510B106E0012070BD84F808
:101580004050204600F024F8242084F841002068D0
:10159000C16821F40051C160204600F005FB2068BD
:1015A000016921F4904101612068416921F02A011B
:1015B00041612068C16841F40051C1606564202028
:1015C00084F8410084F842006563002070BD00008B
:1015D00030B585B00024009401940294039400680F
:1015E0001449884224D11448816941F480418161C1
:1015F000816901F480410491816941F004018161B4
:1016000080690E4D00F0040004904FF400700090CB
:10161000022001900320039069462846FEF7ECFE65
:101620002815CDE90004694628460294FEF7E4FE39
:1016300005B030BD003801400010024000080140F4
:101640002DE9F843044690F84100984616460D46A9
:10165000202802D00220BDE8F88385B17EB10020A9
:101660006064212084F84100FEF7BCFFA684814617
:10167000E684A0682027B0F5805F02D003E0012057
:10168000E9E7206910B12E4600250EE000260CE0A7
:101690008021204600F0E4FAA8B9C6B116F8010B83
:1016A00021684860E08C401EE084E08C4B464FF09F
:1016B0000002CDF800800028EAD14FF0400120461A
:1016C00000F0CEFA40B184F841700320C3E735F84A
:1016D000020BC0F30800E3E784F841700020BAE78A
:1016E000FEE700002DE9F04385B000253048009565
:1016F000019502950395816941F01001816181692D
:1017000001F010010491816941F02001816181693A
:1017100001F020010491816941F004018161816936
:1017200001F004010491816941F00801816180693F
:10173000012200F008001F4FD403049021463846D0
:10174000FEF74AFFDFF87080012210214046FEF7C5
:1017500043FFDFF86890002230214846FEF73CFF47
:101760006010CDE90005694638460295FEF744FE53
:10177000009401240326CDE90246694638460194C7
:10178000FEF73AFE1020CDE90004CDE90246694695
:101790004046FEF731FE30208DE8310002200390F4
:1017A00069464846FEF728FE05B0BDE8F083000014
:1017B000001002400010014000080140000C0140F0
:1017C000104810B50E4901604FF48271416000214C
:1017D0008160C1604FF400720161C0E90512082206
:1017E000C0E90721416281620A21C162FFF704FA60
:1017F000002803D0BDE81040FEF7FBBD10BD00007F
:1018000000300140D000002010B586B000241648FA
:10181000009401940294039404944FF08041059441
:1018200001604721C0E9011440F2E731C0E9031427
:101830008461FFF713FD08B1FEF7DBFD4FF4805024
:10184000009069460848FFF77FFD08B1FEF7D1FD1B
:10185000049404A904480594FFF7CCFC002801D0A7
:10186000FEF7C7FD06B010BD280100200C4810B5DA
:101870000A4901604FF4E1314160002181600C228E
:10188000C160C0E904128161C161FFF76EFE0028EA
:1018900003D0BDE81040FEF7ACBD10BD00380140DC
:1018A00070010020FEE7FEE700F00F00092801D8D4
:1018B00030307047373070477047F8B5044640689D
:1018C0004FF48273984217D1A0684FF48065B0F549
:1018D000004F01D0A8420FD12068066826F04006CC
:1018E00006606068984207D1A068A84204D10092BF
:1018F0000B460022012103E000920B4600228021CA
:10190000204600F023F8002804D0606D40F020004D
:1019100060650320F8BDF8B515460E460B460092EB
:1019200004460122022100F011F840B9334600229A
:1019300080212046009500F009F8002804D0606D51
:1019400040F0200060650320F8BD00002DE9F84359
:101950001E46914688460446089DFEF743FE401BFE
:10196000351AFEF73FFE074625480068C0F3CB3026
:10197000684338E0701C37D0FEF734FEC01BA84225
:1019800003D215B1009860B32CE02068416821F0C3
:10199000E00141606068B0F5827F0BD1A068B0F5CE
:1019A000004F02D0B0F5806F04D12068016821F0AB
:1019B00040010160A06AB0F5005F09D120680168AC
:1019C00021F4005101602068016841F40051016078
:1019D000012084F85100002084F850000320BDE865
:1019E000F8830025401E00902068816838EA0100D5
:1019F00004D000214945BDD10020F0E70121F9E7DD
:101A00000C0000207047FEF7F3BD30B58FB02821E1
:101A10006846FEF79EFB14210AA8FEF79AFB0121F7
:101A20000804CDE900100024029402250491CDE9B8
:101A300007504FF4E01009906846FEF74DFF08B1DB
:101A400072B6FEE70F20CDE90A054FF48060CDE9BC
:101A50000C4002210AA80E94FEF762FE002801D075
:101A600072B6FEE70FB030BD704700000148FFF7C7
:101A7000DABC000028010020F0B50268194B1A4CAE
:101A80001A4D4FF08047984205D0B84203D0A0428B
:101A900001D0A84203D122F070064A68324398422E
:101AA00005D0B84203D0A04201D0A84203D122F40D
:101AB0004074CA6822434C6922F0800222430260CB
:101AC0008A68C2620A688262984201D10969016328
:101AD000012141610169C90703D0016921F00101B8
:101AE0000161F0BD002C01400004004000080040EE
:101AF00010B5846842EA032224F47F440A43224357
:101B0000826010BD826822F070020A4342F0070131
:101B10008160704710B5036A046A24F0010404620E
:101B2000846924F0F00444EA021423F00A020A4310
:101B30008461026210BD10B5036A046A24F01004C7
:101B40000462846923F0A00324F4704444EA02325E
:101B500043EA01118261016210BD01680C3151E854
:101B6000002F22F4907241E80023002BF5D1016888
:101B7000143151E8002F22F0010241E80023002B2C
:101B8000F5D1016B012909D101680C3151E8002F11
:101B900022F0100241E80023002BF5D1202180F82B
:101BA000421000210163704770B504460068016966
:101BB000E26821F44051114301612169A0680843A2
:101BC000616908432168CA6841F20C639A43024381
:101BD000CA6020684169A26921F4407111434161E2
:101BE0001E492068884202D1FEF740FE01E0FEF760
:101BF0002DFE00EBC00101EB001260686421800043
:101C0000B2FBF0F3B3FBF1F36FF018067343B2FBD2
:101C1000F0F5B2FBF0F605EB8305322303EB051577
:101C2000B5FBF1F5B6FBF1F605F0F00505EB061591
:101C3000B2FBF0F6B2FBF0F0B0FBF1F06FF018027F
:101C4000504306EB800003EB0010B0FBF1F021687D
:101C500000F00F002844886070BD0000003801408B
:101C60002DE9F843984617460D460446089E24E0A1
:101C7000701C22D0FEF7B6FCA0EB0800B0421AD8C8
:101C8000CEB12068C168490717D5802D15D0402DE9
:101C900013D00168C94309070FD4016800254068C3
:101CA00000902046FFF759FF0820606484F84050F8
:101CB0000120BDE8F8830320FBE72068006835EACF
:101CC000000004D00020B842D2D00020F1E701206B
:101CD000F9E7FEE7F8B5144C0546E068804760690F
:101CE0008047616AC5F30740C5F3072699B1A26A28
:101CF0008AB18DF800008DF801608DF80250032143
:101D000068469047E06980470546A069804720699A
:101D100080472846F8BD216A8847216A30468847AF
:101D2000216AE8B28847EDE7480000202DE9F84332
:101D30001A4C05461746E068884680476069804728
:101D4000616AC5F30740C5F30726A1B1A26A92B143
:101D50008DF800008DF801608DF80250032168466F
:101D60009047626A394640469047A069804720699B
:101D70008047BDE8F883216A8847216A3046884752
:101D8000216AE8B28847002505E0E069804708F845
:101D900005006D1CADB2BD42F7D3E6E74800002058
:101DA000F8B5164C05460E46E068804760698047E6
:101DB000A26A45F004058AB1280C8DF80000280AB3
:101DC0008DF801008DF802508DF8036004216846FB
:101DD0009047A069804720698047F8BD216AC5F314
:101DE00007408847216AC5F307208847216AE8B27F
:101DF0008847216A30468847EBE70000480000200A
:101E0000F8B51A4C05461646E0680F4680476069EB
:101E10008047A26A45F004059AB1280C8DF80000AD
:101E2000280A8DF801008DF802500321684690477A
:101E3000A26A314638469047A069804720698047AA
:101E4000F8BD216AC5F307408847216AC5F307201A
:101E50008847216AE8B28847002504E0216A785D56
:101E600088476D1CADB2B542F8D3E5E748000020C5
:101E70000FB4054B10B503A9044A029800F028F8E6
:101E800010BC5DF814FB0000E9250008C400002028
:101E90000907090E002804DB00F1E02080F8001497
:101EA000704700F00F0000F1E02080F8141D70472B
:101EB00002E008C8121F08C1002AFAD17047704713
:101EC000002001E001C1121F002AFBD17047000071
:101ED0002DE9FF4F8DB00F460546002606E0252868
:101EE0000BD0DDE90F1290476D1C761C2878002876
:101EF000F5D111B03046BDE8F08F0024A246A146CE
:101F00000122EC4900E0044315F8013F203B02FAAE
:101F100003F00842F7D128782A2810D06FF02F025A
:101F20002878A0F13001092914D80AEB8A0102EBC4
:101F3000410144F0020400EB010A6D1CF0E701CFFF
:101F40005FEA000A03D544F40054CAF1000A44F0E1
:101F500002046D1C28782E2817D115F8010F44F0C3
:101F600004042A280ED06FF02F022878A0F1300147
:101F700009290AD809EB890102EB410100EB0109AB
:101F80006D1CF2E757F8049B6D1C28786C280FD065
:101F900006DC4C2817D068280DD06A2814D104E03C
:101FA000742810D07A280FD10DE044F400140AE010
:101FB00044F4801401E044F440146978814202D171
:101FC00004F580146D1C6D1C2A786E2A1FD00CDC61
:101FD000632A31D004DC002A8BD0582A11D1A3E027
:101FE000642A68D0692A0CD165E0732A2ED004DCFB
:101FF0006F2A73D0702A04D19BE0752A6FD0782A9B
:102000006ED01046DDE90F129047761C50E1C4F304
:102010000250022806D0032809D0042801CF09D095
:10202000066045E101CFF117C0E9006140E101CF51
:1020300006803DE106703BE117F8040B8DF80000C7
:1020400000208DF80100EB46012003E057F804BBA7
:102050004FF0FF3061074FF0000102D40DE008F1AE
:102060000101884649450FDA8045F8DB1BF8081066
:102070000029F4D108E008F1010188468142FADB29
:102080001BF808100029F6D1DDE90F23AAEB0800A0
:102090008146214600F036F9304400EB080604E0A2
:1020A000DDE90F121BF8010B9047B8F10108F7D2D8
:1020B00021464846F7E00A21C4F302534FF0000BD3
:1020C0000891022B04D001CFC117032B09D00AE0DD
:1020D000FF1D27F00707F7E8020108E032E01FE0E4
:1020E00020E000B2C117042B01D140B2C117031E7A
:1020F00071F1000307DA4FF0000CD0EB0C006CEB31
:1021000001012D2302E0230504D52B238DF8243073
:10211000012303E0E30701D02023F7E7984658E0C6
:102120000A2110E010210EE010204FF0000B089063
:102130000CE010214FF0000B44F004044FF00809AC
:10214000089103E008214FF0000B0891C4F30253FB
:10215000022B04D001CF0021032B06D006E0FF1D87
:1021600027F00707F7E8020103E080B2042B00D153
:10217000C0B24FF0000823072BD5702A07D0DDF836
:1021800020C08CF0100C5CEA0B0C05D00EE0402354
:102190008DF82430012308E050EA010306D03023F3
:1021A0008DF824308DF8252002239846DDF820C0D4
:1021B0008CF0080C5CEA0B0C0BD150EA010301D146
:1021C000630706D530238DF824304FF00108A9F1BC
:1021D0000109582A04D038A20B9208AA0A920BE0EF
:1021E0003AA2F9E75B46089AFDF7BEFF0B9B9B5CA2
:1021F0000A9A521E0A92137050EA0102F2D10A980A
:10220000ADEB000000F1200B600702D524F4803410
:1022100001E04FF00109D94502DDA9EB0B0000E018
:10222000002000EB0B0141440890AAEB010AE003F7
:1022300006D4DDE90F232146504600F063F806443A
:102240004FF0000908E009A911F80900DDE90F12B3
:10225000904709F10109761CC145F4DBE0030CD578
:10226000DDE90F232146504600F04CF8064404E017
:10227000DDE90F1230209047761C0899481E08901F
:102280000029F5DC08E00A980A990078491C0A91AF
:10229000DDE90F129047761CBBF10001ABF1010B99
:1022A000F1DC21465046DDE90F2300F019F8064421
:1022B0006D1C1BE6092801003031323334353637C6
:1022C0003839616263646566000000003031323382
:1022D0003435363738394142434445460000000022
:1022E0002DE9F041044600251E461746880404D413
:1022F00005E039462020B0476D1C641EF9D52846FC
:10230000BDE8F0812DE9F041044600251E469046C7
:10231000C80301D5302700E02027880404D505E054
:1023200041463846B0476D1C641EF9D52846BDE8C5
:10233000F0810000F8B54FF4D8563046FFF7CAFCDC
:10234000054603213046FFF72BFD0E4B41F2883046
:10235000DC1F009011220CA1A07801F081F8074643
:1023600029463046FFF71CFD0D3708D000F0C4FDAC
:10237000E069E169091A0229FBD30020F8BD0120B8
:10238000F8BD00007B000020434845434B5F4950A7
:102390005F434F4E464C49435400000070B51A4C01
:1023A0000125204694F90110002690F90000022929
:1023B00017DAD4E90721914223D2012804D0022858
:1023C00005D0042805D102E000F016FE01E000F07F
:1023D000FFFEE661E0690A3020626078401C6070B0
:1023E0000FE0012804D0022805D0042807D102E01C
:1023F0002670002503E000F0FFFD0120207000F0B2
:1024000071FD284670BD00007400002070B50446C0
:10241000082802D94FF0FF3070BD4FF4847000EBF4
:10242000441005461021FFF7BBFC2846FFF752FC7D
:102430000028FAD14FF4027000EB44101F21FFF77F
:10244000AFFC0D490120A0404A8882434A808A8817
:1024500082438A800949002021F814000649891D19
:1024600008554FF4427000EB44142046FFF732FC4D
:102470000028FAD1012070BD30000020B8090020EA
:102480002DE9F0410C46002102464F1E08464FF44C
:1024900098554FF4A056102A63D2DFE802F0080BDB
:1024A00017131A1E222C3645484C5950555C01F022
:1024B00086FC4DE014B1204604F10801BDE8F0416E
:1024C00001F098BB208801F021FB41E001F048FBBE
:1024D00005E0208801F018FC3AE001F050FB208074
:1024E00036E02088010A2846FFF75AFC217830465A
:1024F000FFF756FC2CE03046FFF7ECFB064628467B
:10250000FFF7E8FB06EB0020E9E717488278227026
:10251000C27862700279A2704279E2708279227187
:10252000C0796071A17113E001F0F7FC10E0204662
:1025300001F008FD0CE0204601F0B0FC08E0207836
:10254000BDE8F04101F023BD01F0DAFC05E02070A8
:102550000020BDE8F08101F0C8FCC0B241B2491CC6
:10256000F5D13846F5E700004800002010B50422F8
:1025700009494FF47060FFF743FC07490422083112
:102580004FF4A060FFF73CFC03490422091DBDE89D
:1025900010409001FFF734BC7B00002010B5802173
:1025A0000020FFF7FDFB0020FFF794FBBDE8104083
:1025B000062202494FF41060FFF722BCB40000204D
:1025C00010B580210020FFF7EBFB0020FFF782FB16
:1025D000FFF7CCFFBDE81040062202494FF410601F
:1025E000FFF70EBCB400002013B54FF6FF730122B5
:1025F00069460248FFF724F800981CBD70010020CE
:1026000010B5002821D0114B0022001F196803E0EB
:10261000814203D80A4649680029F9D152B11368AA
:10262000841A9C4204D1006818441060104602E0ED
:10263000506000E0186039B102680B1A934203D170
:102640000B681A4402604968416010BDC800002050
:1026500004490A7802704A7842708A788270C97890
:10266000C17070478700002004490A7802704A78D8
:1026700042708A788270C978C17070477F000020EC
:1026800004490A7802704A7842708A788270C97860
:10269000C17070477B00002004490A7802704A78B4
:1026A00042708A788270C978C170704783000020B8
:1026B0002DE9F04142F2086101EB401542F2087148
:1026C000002601EB40142846FFF704FB074620468E
:1026D000FFF700FB00EB072007043F0C09D028465A
:1026E000FFF7F8FA06462046FFF7F4FA00EB06205B
:1026F00086B2BE42E7D13046BDE8F0812DE9F04117
:1027000042F2080101EB401542F20811002601EBEC
:1027100040142846FFF7DEFA07462046FFF7DAFAAC
:1027200000EB072007043F0C09D02846FFF7D2FA38
:1027300006462046FFF7CEFA00EB062086B2BE42E0
:10274000E7D13046BDE8F081FDF75AFFFFF75DF9AC
:10275000FEF7C8FFFFF734F8FFF788F8FFF754F8E3
:1027600000F0CCFFFCE700001CB5062269464FF4E0
:102770001060FFF7DBFA2F4A0120D16B0870487018
:10278000062088700020C870936B1B0E0B71936B32
:102790001B0C4B71138F1B0A8B7192F83830CB7165
:1027A000D16B802308818B72C872D16B02F1400318
:1027B000087348738873C873087448748874C8743D
:1027C000087548758875C875087648768876C8761D
:1027D0001C780C775C784C779C788C77DC78CC779D
:1027E0001C7981F820405B7981F821300623CC18D0
:1027F0005B1CDBB22077102BF9D3D36B00215C1864
:10280000491CC9B284F82C004029F8D3D36B0021AD
:102810005C18491CC9B284F86C008029F8D3D06BCD
:102820006321822200F8EC1F427053228270C17033
:102830001CBD000074000020F0B50B30154D20F0D9
:1028400007010024144A0FE003688B420BD38B422C
:1028500005D95E1A43184768C3E9006700E043687A
:10286000136002C004E0021D10680028ECD120466D
:10287000002802D1286808B10020F0BD064A0748A8
:102880001060074A121A22F00702C0E90024012052
:102890002860D7E7CC000020C8000020CC09002029
:1028A000C80B002070B505460C46084601F03AFA00
:1028B000A07D022809D12946002000F0A5FF20B9FB
:1028C0000120A075204601F02DFABDE8704000F00F
:1028D000DDB800002DE9FF416B4C0025A078FFF723
:1028E000E7FE02005BD003A8009001ABA078E16B8B
:1028F00000F0B0F986B2BDF80C0043286ED1E06B51
:1029000004F14001027F0B789A4248D1437F4A7814
:10291000934244D1827F8B789A4240D1C27FCB7858
:102920009A423CD190F820200B799A4237D190F806
:10293000212049798A4232D104F130010A1D0F78F1
:102940002FB94B781BB98B780BB9CB785BB39DF85B
:102950000430BB4211D19DF8057091F801C0674564
:102960000BD19DF8067091F802C0674505D19DF81E
:10297000077091F803C0674515D01778BB420ED198
:102980009DF8057053789F4209D19DF806309778DD
:10299000BB4204D19DF80730D778BB4203D000205A
:1029A00004B0BDE8F081F0308319F03B14E0067804
:1029B000332E44D007DCAEB1012E18D0032E21D027
:1029C000062E06D124E0352E0ED0362E46D0FF2E10
:1029D00006D04678801C30449842E8D368B2DFE7DE
:1029E0001846F9E7401CF7E78578C01CF4E7264E47
:1029F00087780F363770C77877700779B77047795F
:102A0000F7703FE0204E477810F802CF0B3604E015
:102A100047781D4E10F802CF133686F800C010F824
:102A200001CF86F801C010F801CF86F802C090F8F7
:102A300001C0801C384486F803C0001FCCE78678AC
:102A4000A661C77807EB0626A661077907EB06267D
:102A5000A661477907EB0626A66113E086780E701B
:102A6000C6784E7006798E704679CE709DF80460F7
:102A700016709DF8056056709DF8066096709DF87A
:102A80000760D670801DA7E77400002000B589B0EC
:102A900003A801F083F89DF82200022829484BD0B2
:102AA000FFF7E6F928A12AA0FFF7E2F99DF80F0049
:102AB0009DF811209DF810108DE807009DF80E304C
:102AC0009DF80D209DF80C102BA0FFF7D1F99DF873
:102AD000150000909DF814309DF813209DF81210F9
:102AE00031A0FFF7C5F99DF8190000909DF8183046
:102AF0009DF817209DF8161033A0FFF7B9F99DF83F
:102B00001D0000909DF81C309DF81B209DF81A10A8
:102B100035A0FFF7ADF99DF8210000909DF8203019
:102B20009DF81F209DF81E1037A0FFF7A1F93E4821
:102B3000FFF79EF909B000BDFFF79AF902A13BA08B
:102B4000B2E700007440000857353530300000000F
:102B5000202573206E6574776F726B20636F6E66CD
:102B6000696775726174696F6E203A20737461745D
:102B700069630D0A0D0A0000204D414320202020EA
:102B800020202020203A20253032583A2530325853
:102B90003A253032583A253032583A253032583AB0
:102BA000253032580D0A00002049502020202020D6
:102BB00020202020203A2025642E25642E25642EF6
:102BC00025640D0A00000000205375626E657420B4
:102BD0004D61736B203A2025642E25642E25642ECA
:102BE00025640D0A00000000204761746577617953
:102BF00020202020203A2025642E25642E25642EB6
:102C000025640D0A0000000020444E53202020209F
:102C100020202020203A2025642E25642E25642E95
:102C200025640D0A000000000840000820257320DC
:102C30006E6574776F726B20636F6E66696775720D
:102C40006174696F6E203A20444843500D0A0D0AA2
:102C5000000000002DE9FF4F002583B01F4690467D
:102C60000446082803D9681E07B0BDE8F08F60014C
:102C70004FF0010A0830FFF72DF8834600F00F00EF
:102C8000022806D0032804D0042802D06FF00400E4
:102C9000EAE7B8F1000F05D0DFF8C49139F8140065
:102CA00018B11EE06FF00D00DEE74FF4427000EB4C
:102CB00044160AFA04FA2046FFF7FAFC05463046A5
:102CC000FFF708F830B1674949881AEA010F06D0C2
:102CD0001DB106E06FF00300C6E70020C4E7002D39
:102CE000E9D00BF00701DFF87CA14FF484704FF0BE
:102CF000800B0AF1060A00EB4416022922D00329B0
:102D00007CD0042952D02946204600F081FE29F8C3
:102D1000145030464021FFF743F83046FEF7DAFF03
:102D20000028FAD139F81410491B0904090C29F8B4
:102D3000141003D01AF8041041F001010AF804102D
:102D4000284691E739F814004D4670BB08226946C1
:102D5000204600F02DFE30464021FFF721F8304696
:102D6000FEF7B8FF0028FAD19DF8000038709DF8F2
:102D7000010078709DF80200B8709DF80300F870AB
:102D800010999DF8040008809DF8051001EB0020C3
:102D9000109908809DF806009DF807105BE02A4610
:102DA0002046049900F004FEB3E72AE039F8140045
:102DB0004D4630BB02226946204600F0F9FD304600
:102DC0004021FEF7EDFF3046FEF784FF0028FAD1E0
:102DD0009DF800009DF801106FF0010202EB002049
:102DE000084480B240F2EA5125F81400884206D91E
:102DF0002046FFF70BFB6FF47A7035E702E00AF824
:102E000004B003E039F814004D4630B135F81450E1
:102E100040464545C3D90546C1E7062269462046D6
:102E200000F0C6FD30464021FEF7BAFF3046FEF7FF
:102E300051FF0028FAD19DF8000038709DF801007C
:102E400078709DF80200B8709DF80300F8709DF846
:102E500004009DF8051001EB002025F81400CEE7D2
:102E6000B809002030000020054A18B111B1C2E9AC
:102E700005017047034850610348906170470000A6
:102E8000480000204D3B00084B3B0008074A10B5A6
:102E900013889C05FDD518B111B1C2E9070110BD19
:102EA0000348D0610348106210BD000048000020B4
:102EB000B73D0008BD3D0008074A10B513889C05C2
:102EC000FDD518B111B1C2E9090110BD0348506226
:102ED0000348906210BD000048000020B53D000886
:102EE000BB3D000803480021C1610A220262417013
:102EF00070470000740000201CB5FFF735FC3D480A
:102F000000213D22C06B4FF49C738172C172352148
:102F100080F8F010012180F8F110042180F8F210FF
:102F2000072180F8F32080F8F410012180F8F510D3
:102F3000304940310A7880F8F6204A7880F8F72046
:102F40008A7880F8F820CA7880F8F9200A7980F821
:102F5000FA20497980F8FB10322180F8FC10042116
:102F600080F8FD102349C91D097880F8FE10214919
:102F7000C91D497880F8FF101E49C91D897880F85D
:102F800000111C49C91DC97880F80111362180F84B
:102F90000211042180F80311164930310A7880F8B3
:102FA00004214A7880F805218A7880F80621C978BA
:102FB00080F80711FF2180F808111D210022441814
:102FC000491C84F8EC209942F9DBFF208DF80400BD
:102FD0008DF805008DF806008DF80700432000905D
:102FE000044801AB4FF40972C16B807800F038FAE5
:102FF0001CBD0000740000202DE9FC41FFF7B4FB6C
:10300000724800213522017041708170C170001D2D
:103010000126017041708170C17034386B4BC06BF8
:1030200010331C4680F8F02080F8F16080F8F260E0
:103030003D2280F8F320072280F8F42080F8F56024
:103040001A7880F8F6201A460625527880F8F7207C
:10305000A47880F8F8401C460C22E47880F8F94007
:103060001C460F27247980F8FA401C4603F1060C11
:10307000647980F8FB4080F8FC2080F8FD10122273
:1030800008E000BF00EB020E521C491C8EF8EC4019
:1030900092B289B21CF80140002CF3D1D878000913
:1030A000FEF702FC494C303CD4F83CC09444521C1E
:1030B0008CF8EC0092B2D878FEF7F6FBD4F83CC05E
:1030C0009444521C8CF8EC00187992B20009FEF777
:1030D000EBFBD4F83CC09444521C8CF8EC0092B248
:1030E0001879FEF7E1FBD4F83CC09444521C8CF8EC
:1030F000EC00587992B20009FEF7D6FBD4F83CC038
:103100009444521C8CF8EC0092B25879FEF7CCFB38
:10311000E36B03EB020C521C8CF8EC0092B2881D9E
:10312000511A194481F8E500E06B37218318521CCD
:1031300083F8EC1091B24218491C82F8EC5089B225
:103140004218491C89B2431882F8EC600322491CDA
:1031500083F8EC2089B24218491C82F8EC5089B2FD
:103160004218491C89B2431882F8EC703A2283F85D
:10317000EC20491C89B243183B2283F8EC20491CFF
:1031800089B24318FF22491C83F8EC2089B200233E
:103190004FF49C7504E04618491C86F8EC3089B25F
:1031A000A942F8D38DF804208DF805208DF806206B
:1031B0008DF807204320009001AB4FF40972A078EE
:1031C000E16B00F04DF9BDE8FC810000A400002097
:1031D0002DE9FC5FFFF7C8FADFF880C2FF270CF18A
:1031E00007029CF90000002502F12904032841D0C0
:1031F00004283FD08DF804708DF805708DF80670A6
:103200008DF80770DCF83C003521012680F8F010BD
:1032100080F8F1604FF0030980F8F2903D2180F8CA
:10322000F3108E4B072180F8F410403380F8F560DE
:10323000197880F8F61019464FF00C0A497880F892
:10324000F71019464FF00F0B897880F8F8101946DF
:10325000C97880F8F9101946097980F8FA101946EA
:10326000497980F8FB109DF807801021B8F1FF0F15
:1032700019D03FE0DCF83C008572C572117801730B
:103280005178417391788173D178C17320788DF82A
:10329000040060788DF80500A0788DF80600E078CD
:1032A0008DF80700AEE7322180F8FC10042180F889
:1032B000FD1092F8008080F8FE8092F8018080F87E
:1032C000FF8092F8028080F80081D27880F8012196
:1032D000362280F8022180F80311217880F8041149
:1032E000617880F80511A17880F80611E17880F8FE
:1032F00007111C2152464418491C84F8EC2042183E
:10330000E24682F8EC50DFF854C100220CF1460C82
:10331000491C06E000EB0108491C88F8EC4089B222
:10332000521C1CF80240002CF4D1D8780009FEF79A
:10333000BBFADAF83CC054468C44491C8CF8EC00CB
:1033400089B2D878FEF7B0FAD4F83CC08C44491C56
:103350008CF8EC00187989B20009FEF7A5FAD4F8C8
:103360003CC08C44491C8CF8EC0089B21879FEF7FB
:103370009BFAD4F83CC08C44491C8CF8EC0058797A
:1033800089B20009FEF790FAD4F83CC08C44491C7D
:103390008CF8EC0089B25879FEF786FAE36B03EB00
:1033A000010C491C8CF8EC0089B2901D8A1A1A4451
:1033B00082F8E500E06B37224318491C83F8EC20C3
:1033C00089B243180822491C83F8EC2089B24218BC
:1033D000491C89B2431882F8EC60491C83F8EC90D0
:1033E00089B24318062283F8EC20491C89B243189D
:1033F000491C83F8ECB089B243183A2283F8EC20D8
:10340000491C89B243183B2283F8EC20491C89B23D
:1034100043181F2283F8EC20491C89B2431821224B
:10342000491C83F8EC2089B24218491C82F8EC70E0
:1034300089B24FF49C7203E04318491C83F8EC50A6
:103440009142F9DB4320009001AB4FF40972A07860
:10345000E16B00F005F8BDE8FC9F0000740000205F
:103460002DE9F0471E46DDF8208015468A460446C1
:10347000082803D94FF0FF30BDE8F087670108370F
:103480004FF001093846FEF725FC00F00F00022836
:1034900006D0032804D0042802D06FF00400EBE724
:1034A0005DB13078717801EB0020B17801EB00203C
:1034B000F17811EB002003D00AE06FF00D00DBE79C
:1034C0003846FEF707FC400702D46FF00B00D3E745
:1034D000B8F1000F07D13846FEF7FCFB400702D4D5
:1034E0006FF00A00C8E74FF4427000EB4410074643
:1034F000FEF7F0FB422806D0222804D0322802D062
:103500006FF00600B8E740F6084000EB44100422D4
:103510003146FEF775FC41F208004FEA182100EB36
:103520004410FEF73DFC41F2081008F0FF0100EBEB
:103530004410FEF735FC41F6087000EB4410FEF72E
:10354000C9FB4FF6FF7101EA8020854200D905468C
:10355000DFF8888009FA04F62046FFF7CFF88146A5
:103560003846FEF7B7FB38B1B8F80200064206D07D
:103570004D4504D900207FE76FF003007CE74D45FF
:10358000EAD82A465146204600F063FA4FF4847088
:1035900000EB441006462021FEF702FC4FF40270B7
:1035A00000EB44143046FEF795FB0028FAD1204684
:1035B000FEF790FB00F01F00C10605D52046102144
:1035C000FEF7EEFB284657E70007F0D52046082116
:1035D000FEF7E6FB6FF00C004EE700003000002025
:1035E0002DE9F8431D4617460E460446082803D920
:1035F0004FF0FF30BDE8F883012E08D0022E0ED028
:10360000032E0CD0042E0AD06FF00400F2E704223F
:1036100069464FF47060FEF789FB009848B169076E
:103620006FF00500E6D49DB1012E05D0022E0FD11A
:1036300006E06FF00200DDE715F0210FDAD007E0B9
:10364000A90601D52906D5D5E90601D52906D1D582
:103650002046FEF7DBFE600105F0F0014FF00108A7
:1036600031430830FEF79CFB224E57B93788781C4F
:1036700080B2A0F57F413080F03902D14FF4404054
:1036800030804FF48160390A00EB4410FEF788FB6C
:103690004FF4A160F9B200EB4410FEF781FB4FF448
:1036A000847000EB441007460121FEF779FB384691
:1036B000FEF710FB0028FAD108FA04F0718805F033
:1036C00001028143A2400A437280B1888143B180E4
:1036D0000949002021F814000649891D08554FF4B6
:1036E000427000EB44152846FEF7F4FA0028FAD0A1
:1036F00060B27FE730000020B809002088B00CA03D
:10370000FEF7B6FB00F0B3FA0F491048FFF7CAF80E
:1037100001A800F043FA9DF80D0000909DF80C30D0
:103720009DF80B209DF80A1009A0FEF7A1FBFEE70B
:1037300077697A636869702064686370206578616E
:103740006D706C650D0A000010000020B8010020AB
:10375000706C65617365207472792070696E672082
:1037600025642E25642E25642E25640D0A00000094
:1037700070B506460D461020FFF75EF8002438B1FC
:103780000660C0E90154C460084A116829B107E025
:1037900007A0FEF76DFB2046F6E7106070BD1146EE
:1037A000CA68002AFBD1C86070BD00002800002054
:1037B0004D656D6F727920616C6C6F636174696FB8
:1037C0006E206661696C65642E0A00000D4B30B492
:1037D000024618680021002811D00468944206D1DE
:1037E000C168196008E00146C068002807D0036876
:1037F0009342F8D1C268CA6030BCFEF701BF30BC4A
:103800007047000028000020F0B50E46074687B03C
:10381000012500244FF47A712048FFF7A9FF3146B3
:103820003846FCF7F5FC1EA0FEF722FBFCF73CFD3A
:1038300020B1042800D124B1002DF7D11CB11CA166
:1038400002E00124FBE71CA11DA0FEF711FBFCF721
:10385000BDFD1248FFF7BAFFF4B10DF10600FEF707
:103860000FFF0DF10E00FEF7FFFE0DF10A00FEF74F
:1038700013FF0DF11200FEF7EBFE02208DF816008B
:10388000062269464FF41060FEF750FA684600F0D1
:1038900049FA012007B0F0BD0020FBE7E103000872
:1038A000444843502072756E6E696E670D0A0000C1
:1038B00073756363657373006661696C0000000073
:1038C00044484350202573210D0A000038B54FF4B9
:1038D0007A74204600F00CF969460F20FEF7D0FDFF
:1038E0009DF80000012808D007A0FEF7C1FA00BF2C
:1038F0009DF800000028ECD038BD07A0FEF7B8FA0C
:1039000000F010F8F4E70000504859206E6F206C6A
:10391000696E6B0D0A000000504859206C696E6B8F
:103920000D0A000010B54FF43850FEF7D3F90446E5
:10393000800701D5642100E00A2106A0FEF798FA6D
:10394000600701D50CA100E00EA1BDE8104010A059
:10395000FEF78EBA5468652063757272656E7420C6
:103960004D62746973207370656564203A20256424
:103970004D6270730D0A000046756C6C2D447570B5
:103980006C65780048616C662D4475706C657800D4
:103990005468652063757272656E74204475706C2E
:1039A0006578204D6F6465203A2025730D0A00006C
:1039B0002DE9F0475FEA02088946064626D042F61E
:1039C000081000EB46152846FEF784F9074642F634
:1039D000080000EB46142046FEF77CF907EB0020B8
:1039E00087B2380200EB4610424649461830FEF7CF
:1039F0009DF907EB080086B2310A2046FEF7D0F9A0
:103A0000F1B22846BDE8F047FEF7CAB9BDE8F08735
:103A10002DE9F041044642F6081000EB44150E462D
:103A20002846FEF757F9074642F6080000EB441413
:103A30002046FEF74FF907EB0020304486B2310AEA
:103A40002046FEF7ADF9F1B22846BDE8F041FEF799
:103A5000A7B92DE9F0475FEA02088946064626D055
:103A600042F2085000EB46152846FEF733F90746A8
:103A700042F2084000EB46142046FEF72BF907EB14
:103A8000002087B2380200EB46104246494610300B
:103A9000FEF7B6F907EB080086B2310A2046FEF7BA
:103AA0007FF9F1B22846BDE8F047FEF779B9BDE8E5
:103AB000F08700000148FDF71BBC00002801002032
:103AC00070B50A484168491C41600025046809E056
:103AD000A068401CA0606168884202D3A56020688D
:103AE0008047E468002CF3D170BD0000280000205E
:103AF000034900224A604A688242FCD370470000B2
:103B00002800002000787047017070472DE9F041CF
:103B1000050A00F0F0014FF4A850FEF741F9002427
:103B200001264FF4027700BF06FA04F0284204D0C1
:103B300007EB44101F21FEF733F9641CE4B2082C94
:103B4000F2D3BDE8F08170477047704770470000BE
:103B5000012210210148FCF73FBD00000008014090
:103B600010B54FF4A850FEF7B5F800F0F0044FF48C
:103B7000B850FEF7AFF804EB002080B210BD10B5CE
:103B80004FF4B050FEF7A6F804464FF4C050FEF7CD
:103B9000A1F804EB002080B210BD000010B504466F
:103BA000014606224FF41060FEF7C0F8042204F12B
:103BB0000E019001FEF7BAF8042204F10A014FF455
:103BC000A060FEF7B3F80422A11D4FF47060FEF769
:103BD000ADF807480178A1744178E17481782175C6
:103BE000C07860750248401E0078A07510BD0000C6
:103BF000410000202DE9F0410D460646002400F06A
:103C0000DEF84FF0FF38AEB10022B05C204444B281
:103C1000102C17DC521C52B2082AF6DB002441F6A5
:103C20000877315D07EB4410FEF7BAF8641C64B204
:103C3000082CF6DBCDB1002108462A5C114449B2BC
:103C4000102902DD4046BDE8F081401C40B2082842
:103C5000F3DB002441F60866295D06EB4410FEF70D
:103C60009FF8641C64B2082CF6DB0020EBE710B56B
:103C7000FFF720FF00F082F800F01EF800F0DAF8FD
:103C8000BDE81040FFF722BE0A4601464FF6FF731B
:103C90000148FDF743B80000D000002008B54FF6FA
:103CA000FF73012269460348FDF738F89DF80000CC
:103CB00008BD0000D000002070B501220D4DD403D6
:103CC00021462846FCF788FC0A20FFF711FF002256
:103CD00021462846FCF780FC0A20FFF709FF012255
:103CE00021462846FCF778FCBDE870400A20FFF723
:103CF000FFBE000000100140002210210148FCF727
:103D00006BBC00000008014010B5C1B2040A4FF4BA
:103D1000B050FEF745F82146BDE810404FF4C050C2
:103D2000FEF73EB810B50446014606224FF4106077
:103D3000FEF766F8042204F10E019001FEF760F828
:103D4000042204F10A014FF4A060FEF759F804229E
:103D5000A11D4FF47060FEF753F80748A17C017075
:103D6000E17C4170217D8170617DC1700249A07D3F
:103D7000491E087010BD00004100002010B5074921
:103D80000748FFF771F807490748FFF77FF8BDE8D4
:103D9000104006490648FFF78FB80000513B000865
:103DA000F93C0008853E00089D3C0008713E000873
:103DB000893C000870470020704770477047F0B595
:103DC00085B04FF41064062269462046FDF7AEFF29
:103DD0000422950102A92846FDF7A8FF4FF4A0662A
:103DE000042203A93046FDF7A1FF4FF470670422B7
:103DF00004A93846FDF79AFF80210020FDF7D0FF87
:103E00000020FDF767FF062269462046FDF7F8FF10
:103E1000042202A92846FDF7F3FF042203A9304635
:103E2000FDF7EEFF042204A93846FDF7E9FF05B0CF
:103E3000F0BD000070B500244FF47A754FF464565D
:103E40002846FFF755FE3046FDF744FF04280CD006
:103E5000641CE4B2052CF3D93046FDF73BFF024663
:103E600004210248FEF704F8FEE770BDDC400008BC
:103E70000A4601464FF6FF730148FCF7F9BF000000
:103E8000D000002001B54FF6FF73012269460248B9
:103E9000FCF7EEFF08BD0000D000002010B504467E
:103EA0004FF43850FDF716FFC0F38011217000F079
:103EB000380001220021202811D038280FD061704D
:103EC00010280ED018280CD020280AD0A17008285D
:103ED00009D0182807D0202805D0E17010BD6270E5
:103EE000EEE7A270F3E7E27010BD10B500244FF4C6
:103EF0003850FDF7EFFEC00700D00124204610BD6A
:103F000010B500244FF43850FDF7E4FEC0F3C200B2
:103F1000062800D10124204610BD10B54FF43854B6
:103F20002046FDF7D7FE20F080012046FDF738FF40
:103F30002046FDF7CFFE40F080012046BDE810404E
:103F4000FDF72EBF10B502780021012A00D14021D3
:103F50004278012A06D0C2788078012A05D001284B
:103F60000BD00CE041F0380109E0012802D041F00B
:103F7000080104E041F0180101E041F010014FF4A4
:103F80003850FDF70DFFBDE81040FFF7C6BF70B514
:103F900004464FF438563046FDF79CFE41064FF07C
:103FA000FF351AD520F03800012C10D040F0380130
:103FB0003046FDF7F5FEFFF7B0FF3046FDF78AFE0D
:103FC000012C07D000F0380038B1002070BD40F05F
:103FD0003001EDE700F03000F6E7284670BD010241
:103FE00002030405060708090A0B0C0D0E0F10103A
:103FF0000000000000000000010203040607080999
:1040000000000000010203043D3D3D3D3D3D3D3DBE
:104010003D3D3D3D3D3D3D3D3D3D3D3D3D3D3D3DD0
:104020003D3D3D3D3D3D3D3D3D3D3D3D3D3D3D3DC0
:104030003D3D3D3D3D3D3D3D3D3D3D3D3D3D3D3DB0
:104040003D3D3D3D3D3D3D3D3D3D3D3D3D3D3D3DA0
:104050003D3D3D3D3D3D3D3D3D3D3D3D3D3D3D3D90
:104060003D3D3D3D3D3D3D3D3D3D3D3D0D0A0D0A46
:10407000000000003D3D3D3D3D3D3D3D3D3D3D3D64
:104080003D3D3D3D3D3D3D3D3D3D3D3D3D3D3D3D60
:104090003D3D3D3D3D3D3D3D3D3D3D3D3D3D3D3D50
:1040A0003D3D3D3D3D3D3D3D3D3D3D3D3D3D3D3D40
:1040B0003D3D3D3D3D3D3D3D3D3D3D3D3D3D3D3D30
:1040C0003D3D3D3D3D3D3D3D3D3D3D3D3D3D3D3D20
:1040D0003D3D3D3D3D3D3D3D0D0A00006572726F29
:1040E000722C2057353530302076657273696F6ECB
:1040F000206973203078253032782C206275742046
:104100007265616420573535303020766572736989
:104110006F6E2076616C7565203D203078253032D9
:10412000780D0A004441000800000020D000000083
:10413000B01E000814420008D0000020F80E000055
:10414000C01E000801000000100000000000000078
:1041500000127A000008DC122212C0A8016EFFFFD4
:10416000FF00C0A8010108080808020000000000C4
:104170000000000000C0000000000000000000007F
:1041800000000000000000000000000001025735A0
:104190003530300000000000473B0008493B000874
:1041A0004D3B00084B3B0008053B0008093B00085D
:1041B00000000000000000000000000000000000FF
:1041C00000000000000000000000000000000000EF
:1041D00001000000000000000A0000006D2500083A
:1041E000C12500089D250008000000000000000017
:1041F000000000000000000000000000000057491F
:104200005A6E65740000000000000000000000000D
:0442100000000000AA
:04000005080000ED02
:00000001FF
