:020000040800F2
:100000004007002089010008C30E00089D0D00086C
:10001000C10E0008910200083B100008000000001B
:10002000000000000000000000000000D50F0008E4
:100030009302000800000000C50E0008D70F00085A
:10004000A3010008A3010008A3010008A301000800
:10005000A3010008A3010008A3010008A3010008F0
:10006000A3010008A3010008A3010008A3010008E0
:10007000A3010008A3010008A3010008A3010008D0
:10008000A3010008A3010008A3010008A3010008C0
:10009000A3010008A3010008A3010008A3010008B0
:1000A000A3010008A3010008A3010008A3010008A0
:1000B000A3010008A3010008A3010008A301000890
:1000C000A3010008A3010008A3010008A301000880
:1000D000A3010008A3010008A3010008A301000870
:1000E000A3010008A3010008A301000800F002F822
:1000F00000F03AF80AA090E8000C82448344AAF188
:100100000107DA4501D100F02FF8AFF2090EBAE885
:100110000F0013F0010F18BFFB1A43F0010318473B
:100120000C1D00002C1D0000103A24BF78C878C1B7
:10013000FAD8520724BF30C830C144BF04680C60ED
:10014000704700000023002400250026103A28BF35
:1001500078C1FBD8520728BF30C148BF0B60704739
:100160001FB51FBD10B510BD00F058F81146FFF7C0
:10017000F7FF01F011FA00F076F803B4FFF7F2FF91
:1001800003BC00F07FF80000094880470948004799
:10019000FEE7FEE7FEE7FEE7FEE7FEE7FEE7FEE737
:1001A000FEE7FEE704480549054A064B7047000094
:1001B00039100008ED000008400100204007002031
:1001C00040030020400300204FF0000200B513461A
:1001D00094469646203922BFA0E80C50A0E80C5067
:1001E000B1F12001BFF4F7AF090728BFA0E80C5018
:1001F00048BF0CC05DF804EB890028BF40F8042B11
:1002000008BF704748BF20F8022B11F0804F18BF7D
:1002100000F8012B7047704770477047754600F033
:100220002BF8AE4605006946534620F00700854688
:1002300018B020B5FFF7B6FFBDE820404FF000062C
:100240004FF000074FF000084FF0000B21F00701BE
:10025000AC46ACE8C009ACE8C009ACE8C009ACE801
:10026000C0098D46704710B50446AFF300802046A4
:10027000BDE81040FFF781BF00487047DC00002058
:100280007047000001491820ABBEFEE726000200BF
:10029000FEE7704772B6FEE770B5044600F004F959
:1002A0000546601C02D004480078044400F0FCF8C5
:1002B000401BA042FAD370BD200000202DE9F84F6A
:1002C000DFF8B8910024A9F1040B23460F2709F1A8
:1002D000040AABF1040EC9E00125A5402A40AA4258
:1002E0007DD1674ED1F804C0ACEB0608B44532D0DE
:1002F00014DCBCF1030F3AD009DCBCF1000F2AD0AA
:10030000BCF1010F1CD0BCF1020F31D11DE0BCF1DA
:10031000110F17D0BCF1120F2AD119E0B8F5881FC0
:1003200019D006DCB8F5803F15D0B8F5801F1FD175
:1003300011E0B8F5001F0ED0B8F5041F18D10AE07F
:10034000CB6815E0CB681B1D12E0CB6808330FE0CB
:10035000CB680C330CE08B682BB1012B4FF00803FA
:1003600003D0456104E0042302E0056100E00023BE
:10037000FF2A01D8064601E000F104064FEA840591
:1003800001D9A5F12005D6F8008007FA05FC28EA76
:100390000C0803FA05F548EA0508C6F800804D6820
:1003A000ED0062D5374DAE6946F00106AE61AD692C
:1003B00024F0030605F001050095334D06EB050C0E
:1003C000DCF80850A607360F07FA06F825EA0805F4
:1003D000DFF8B880404503D14FF0000817E044E053
:1003E000DFF8AC80404502D14FF001080FE0DFF8A4
:1003F000A480404502D14FF0020808E0DFF8988061
:10040000404502D14FF0030801E04FF0040808FA1C
:1004100006F848EA0508CCF808804D68D9F800606D
:10042000ED024D4601D5164300E096432E604D681F
:10043000DAF80060AD02554601D5164300E0964358
:100440002E604D68DBF80060AD035D4601D51643B4
:1004500000E096432E604D68DEF80060ED037546BF
:1004600001D5164300E096432E60641C0D682A46B1
:10047000E5407FF431AFBDE8F88F0000080401408B
:10048000000011100010024000000140000801406F
:10049000000C014000100140001401400AB101614C
:1004A00070470904FBE700000148806870470000BE
:1004B0002000002002488168027811448160704762
:1004C00020000020074810B5016841F010010160CC
:1004D000032000F067F80F2000F006F800F024F881
:1004E000002010BD0020024070B50D4D04464FF4B1
:1004F0007A712878B1FBF0F00A490968B1FBF0F095
:1005000000F038FC48B9102C07D200222146501EBA
:1005100000F028F800206C6070BD012070BD000064
:10052000200000202C0000200C4808B5816941F013
:1005300001018161816901F001010091C16941F00E
:100540008051C161C06900F080500090044841684A
:1005500021F0E06141F00071416008BD00100240EF
:1005600000000140F0B40E4B1B680C46C3F302239D
:10057000C3F10705042D00D90425191D072901D24F
:10058000002300E0DB1E012606FA05F1491E21408A
:1005900099409E40761E16403143F0BC00F06CBE80
:1005A0000CED00E0064900F0070208684FF6FF0373
:1005B000184040EA0220034A1043086070470000D8
:1005C0000CED00E00000FA052DE9F0470F460500AC
:1005D00061D0434E306800F00700B84209D230685D
:1005E00020F0070038433060306800F00700B84260
:1005F00051D128683B4C810712D5400703D560686C
:1006000040F4E06060602878000703D5606840F43B
:10061000605060606068A96820F0F0000843606086
:100620002878C00728D06868012810D021680228DF
:1006300010D0890700292EDA616821F003010143F7
:100640006160FFF731FF804641F288390DE0216893
:100650008903EFE78901EDE7FFF726FFA0EB08012B
:10066000494502D90320BDE8F0876068696800F059
:100670000C00B0EB810FEFD1306800F00700B842FA
:100680000BD9306820F0070038433060306800F044
:100690000700B84201D00120E5E72878400705D5DA
:1006A0006068E96820F4E06008436060287800072B
:1006B00006D56068296920F4605040EAC100606096
:1006C00000F018F86168084AC1F30311515CC84092
:1006D0000649086006480068FFF706FF0020C2E7E9
:1006E00000200240001002400A1E00082C000020DA
:1006F000240000200E4A51680E4801F00C03042B20
:1007000011D0082B0FD10C48C1F38343C903C05C3F
:100710000AD55168084AC1F34041921E515C054A0E
:100720005043B0FBF1F07047044948437047000064
:100730000010024000127A00FA1D000800093D0076
:100740002DE9F84F040070D02078C04DC00749D083
:100750006868C0F38100012807D06868C0F3810091
:10076000022809D16868C00306D52868800339D5F6
:1007700060680028E7D035E06068B0F5803F0BD0B6
:1007800010B1B0F5A02F11D0286820F48030286077
:10079000286820F4802002E0286840F48030286037
:1007A000606890B1FFF780FE06460AE0286840F4D2
:1007B00080202860F0E700BFFFF776FE801B6428EA
:1007C00073D828688003F7D50CE0FFF76DFE064666
:1007D00005E000BFFFF768FE801B6428F0D828689A
:1007E0008003F7D420789A4E80074FF001094FF02C
:1007F000000839D5686810F00C0F07D06868C0F39E
:100800008100022809D16868C00306D428688007DF
:1008100014D52069012808D110E02069B0B1C6F8CC
:100820000090FFF741FE074605E00AE1FFF73CFEB6
:10083000C01B0228C4D828688007F7D528686169DA
:1008400020F0F80040EAC10028600DE0C6F8008002
:10085000FFF72AFE074604E0FFF726FEC01B02282A
:1008600023D828688007F7D4207800072CD579484A
:10087000A169D9B1C0F80090FFF716FE074604E061
:10088000FFF712FEC01B02280FD8686A8007F7D551
:1008900071484FF4FA510068B0FBF1F0009000BFCE
:1008A0000098411E0091FAD20EE080E0C0F800806E
:1008B000FFF7FAFD074604E0FFF7F6FDC01B02282C
:1008C00075D8686A8007F7D42078400760D5E86952
:1008D0000027C00008D4E86940F08050E861E8696A
:1008E000012700F0805000905C480168C90513D4CE
:1008F0000168834641F480710160FFF7D5FD8246AF
:1009000006E000BFFFF7D0FDA0EB0A0064284ED838
:10091000DBF80000C005F5D5E06801280AD008B171
:10092000052813D0286A20F001002862286A20F0E8
:10093000040002E0286A40F001002862E06841F209
:10094000883B98B1FFF7B0FD82460BE0286A40F083
:1009500004002862EEE700BFFFF7A6FDA0EB0A0146
:1009600059455AD8286A8007F6D50CE0FFF79CFD58
:10097000824605E0FFF798FDA0EB0A0159454CD8E7
:10098000286A8007F6D41FB1E86920F08050E8613A
:10099000E06988B36968C1F38101022944D0022863
:1009A000C6F8608004D0FFF77FFD044638E034E0ED
:1009B000FFF77AFD074604E0FFF776FDC01B02282B
:1009C0002BD828688001F7D4206AB0F5803F05D184
:1009D0006868A16820F4003008436860D4E9080121
:1009E0000843696821F4741108436860C6F8609090
:1009F000FFF75AFD044606E025E000BFFFF754FD6F
:100A0000001B022809D828688001F7D51BE000BF29
:100A1000FFF74AFD001B022802D90320BDE8F88F2A
:100A200028688001F4D40EE00128F7D06868226AB3
:100A300000F48031914204D1616A00F47010884260
:100A400001D00120EAE70020E8E7000000100240A2
:100A500000004242800442422C000020007000400E
:100A600070B5040009D0606A002540B12561656158
:100A7000A56294F8510040B10CE0012070BD60689F
:100A8000B0F5827FF4D0E561F2E784F8505020465B
:100A900000F040F8022084F851002068016821F03D
:100AA00040010160A088218900F4827001F40441B2
:100AB0000843A18901F400610843217C01F002018F
:100AC0000843217D01F001010843218B01F40071ED
:100AD0000843217F01F03801084394F8201001F009
:100AE00080010843218D01F400510843216808600A
:100AF000A069042101EA1040216848602068C169AA
:100B000021F40061C1616565012084F85100002075
:100B100070BD000030B585B00024009401940294AB
:100B2000039400681449884223D11448816941F430
:100B300080518161816901F480510491816941F0A2
:100B40000401816180690E4D00F004000490A02032
:100B50000090022001900320039069462846FFF789
:100B6000ADFB4020CDE90004694628460294FFF71A
:100B7000A5FB05B030BD0000003001400010024070
:100B8000000801402DE9FF4F81B01D469346044601
:100B90004FF001090E9EFFF787FC074694F85100BD
:100BA0006168012806D0B1F5827F3CD1A168C9BB3C
:100BB000042838D10298002871D0BBF1000FFBD077
:100BC000002DF9D094F8500001282CD04FF0010AE4
:100BD00084F850A094F85100042802D0052084F82D
:100BE00051004FF00008C4F85480C4F838B0E587CD
:100BF000A58702992163E586A586C4F84080C4F8DC
:100C0000448020680168490603D4016841F040012E
:100C10000160E068B0F5006F606808D0F0B3012DA6
:100C200049D081E0FFE7022005B0BDE8F08F08B1B0
:100C3000012D39D1206B21680088C860206B801C91
:100C40002063E08E401EE0862EE0206881688907E0
:100C50000FD5E18E69B1B9F1010F0AD1216B098875
:100C6000C160206B801C2063E08E401EE0864FF048
:100C7000000920688168C9070CD0E18F51B1C068B4
:100C8000A16B0880A06B801CA063E08F401EE087F2
:100C90004FF00109FFF708FCC01B01E00BE067E023
:100CA000B04201D3701C50D1E08E0028CDD1E08F2E
:100CB0000028CAD13EE0206B216800780873206BC1
:100CC000401C2063E08E401EE0862DE02068816895
:100CD00089070FD5E18E69B1B9F1010F0AD1216BF6
:100CE00009780173206B401C2063E08E401EE08673
:100CF0004FF0000920688168C9070CD0E18F51B11D
:100D0000C068A16B0870A06B401CA063E08F401E00
:100D1000E0874FF00109FFF7C7FBC01BB04202D3C9
:100D2000701C01D011E086B1E08E0028CED1E08F9A
:100D30000028CBD13A463146204600F0D5F850B1D4
:100D40002020606584F8508012E084F851A084F877
:100D50005080032068E7A06818B92068C1688068DF
:100D6000009084F851A084F85080606D0028F1D084
:100D7000012059E710B5401EB0F1807F01D301205A
:100D800010BD4FF0E02460610F21601700F074FA8D
:100D90000020A06107202061002010BDFEE70000B8
:100DA0002DE9F04385B000252F4800950195029567
:100DB0000395816941F010018161816901F01001A1
:100DC0000491816941F020018161816901F0200174
:100DD0000491816941F004018161816901F004019C
:100DE0000491816941F00801816180691F4F00F021
:100DF00008004FF400460490002231463846FFF7C1
:100E00004DFBDFF86C80002210214046FFF746FBC7
:100E1000DFF86090002230214846FFF73FFB70105A
:100E2000CDE900050124694602943846FFF746FAE9
:100E3000CDE900640226CDE9024669463846FFF74F
:100E40003DFA10208DE8510003200390694640468A
:100E5000FFF734FA30208DE8710069464846FFF705
:100E60002DFA05B0BDE8F0830010024000100140EB
:100E700000080140000C0140104810B50E49016007
:100E80004FF48271416000218160C1604FF40072B3
:100E90000161C0E905120822C0E9072141628162AF
:100EA0000A21C162FFF7DCFD002803D0BDE8104035
:100EB000FFF7F0B910BD00000030014074000020C1
:100EC000FEE7FEE77047000001B582B064200090A5
:100ED000012301AA02A90348FFF754FE9DF804006C
:100EE0000EBD000074000020F8B515460E460B46F6
:100EF000009204460122022100F010F840B9334666
:100F0000002280212046009500F008F8002804D037
:100F1000606D40F0200060650320F8BD2DE9F843C6
:100F20001E46914688460446089DFFF7BDFA401BC1
:100F3000351AFFF7B9FA074625480068C0F3CB30E9
:100F4000684338E0701C37D0FFF7AEFAC01BA842E8
:100F500003D215B1009860B32CE02068416821F0FD
:100F6000E00141606068B0F5827F0BD1A068B0F508
:100F7000004F02D0B0F5806F04D12068016821F0E5
:100F800040010160A06AB0F5005F09D120680168E6
:100F900021F4005101602068016841F400510160B2
:100FA000012084F85100002084F850000320BDE89F
:100FB000F8830025401E00902068816838EA01000F
:100FC00004D000214945BDD10020F0E70121F9E717
:100FD0002C0000207047FFF76DBA30B58FB0282184
:100FE0006846FFF7F1F814210AA8FFF7EDF8012190
:100FF0000804CDE900100024029402250491CDE9F3
:1010000007504FF4E01009906846FFF799FB08B1CC
:1010100072B6FEE70F20CDE90A054FF48060CDE9F6
:101020000C4002210AA80E94FFF7CEFA002801D046
:1010300072B6FEE70FB030BD7047FEE77FB51C4BC0
:101040000FCB8DE80F00012210211A48FFF726FA76
:10105000194D4FF40044002221462846FFF71EFA9E
:10106000FF22521ED2B2FCD2012221462846FFF7AF
:1010700015FA1249124800F0FBFA1249124800F022
:1010800009FB1249124800F01BFB1249124800F0FC
:10109000DDFA6946012000F0E3F9401C06D04FF468
:1010A000645000F01BF8042801D0FEE7FEE77FBD86
:1010B0001C1E00080008014000100140D91900085A
:1010C000491B0008971C0008251B00089B1C0008F2
:1010D0002B1B00082919000825190008F8B5144C25
:1010E0000546E068804760698047616AC5F307404C
:1010F000C5F3072699B1A26A8AB18DF800008DF870
:1011000001608DF80250032168469047E0698047EE
:101110000546A0698047206980472846F8BD216AB6
:101120008847216A30468847216AE8B28847EDE758
:10113000380000202DE9F8431A4C05461746E068B0
:101140008846804760698047616AC5F30740C5F3F8
:101150000726A1B1A26A92B18DF800008DF8016056
:101160008DF80250032168469047626A394640462E
:101170009047A069804720698047BDE8F883216ACD
:101180008847216A30468847216AE8B288470025A7
:1011900005E0E069804708F805006D1CADB2BD426E
:1011A000F7D3E6E738000020F8B5164C05460E46A2
:1011B000E068804760698047A26A45F004058AB10B
:1011C000280C8DF80000280A8DF801008DF80250D7
:1011D0008DF80360042168469047A0698047206924
:1011E0008047F8BD216AC5F307408847216AC5F3E7
:1011F00007208847216AE8B28847216A3046884735
:10120000EBE7000038000020F8B51A4C05461646FA
:10121000E0680F46804760698047A26A45F0040590
:101220009AB1280C8DF80000280A8DF801008DF87D
:101230000250032168469047A26A314638469047DB
:10124000A069804720698047F8BD216AC5F307403F
:101250008847216AC5F307208847216AE8B2884792
:10126000002504E0216A785D88476D1CADB2B54267
:10127000F8D3E5E7380000200907090E002804DB51
:1012800000F1E02080F80014704700F00F0000F13A
:10129000E02080F8141D704770B50446082802D974
:1012A0004FF0FF3070BD4FF4847000EB44100546E2
:1012B0001021FFF779FF2846FFF710FF0028FAD129
:1012C0004FF4027000EB44101F21FFF76DFF0D4932
:1012D0000120A0404A8882434A808A8882438A80CB
:1012E0000949002021F814000649891D08554FF4CA
:1012F000427000EB44142046FFF7F0FE0028FAD1BC
:10130000012070BD64000020CC0000202DE9F041D8
:1013100017460E460446082803D94FF0FF30BDE8B3
:10132000F08160014FF001080830FFF7D7FE00F0B0
:101330000F00012802D06FF00400F0E74FF4427074
:1013400000EB44100546FFF7C9FE132802D06FF0EA
:101350000200E4E73078717801EB0020B17801EB0E
:101360000020F17801EB0020411C2CD058B36FB362
:1013700040F6084000EB441004223146FFF744FFDA
:1013800041F20800390A00EB4410FFF70DFF41F26B
:101390000810F9B200EB4410FFF706FF4FF4847019
:1013A00000EB441006460421FFF7FEFE3046FFF72F
:1013B00095FE0028FAD1164908FA04F04988084237
:1013C0001AD00020ABE76FF00B00A8E76FF00A001F
:1013D000A5E72046FFF782FE000706D52046082134
:1013E000FFF7E2FE6FF00C0099E72846FFF776FE64
:1013F00030B96FF0030092E74FF4027000EB441431
:101400002846FFF76BFE1728E3D1012087E700008D
:101410006400002010B50C4606281ED2DFE800F05C
:1014200003070B101418204600F0A4FB13E020461D
:1014300000F0F8FA0FE02078BDE8104000F0C6BBDD
:1014400000F01CFB207006E0204600F0D1FB02E01B
:10145000204600F016FB002010BD4FF0FF3010BDFD
:101460002DE9F0410C46002102464F1E08464FF47C
:1014700098554FF4A056102A63D2DFE802F0080B0B
:1014800017131A1E222C3645484C5950555C00F053
:10149000C8FB4DE014B1204604F10801BDE8F0415D
:1014A00000F003BB208800F075FA41E000F09CFAE0
:1014B00005E0208800F050FB3AE000F0A4FA20801C
:1014C00036E02088010A2846FFF76EFE2178304674
:1014D000FFF76AFE2CE03046FFF700FE064628467E
:1014E000FFF7FCFD06EB0020E9E717488278227041
:1014F000C27862700279A2704279E27082792271B8
:10150000C0796071A17113E000F014FC10E0204676
:1015100000F025FC0CE0204600F0CDFB08E0207830
:10152000BDE8F04100F040BC00F0F7FB05E02070A2
:101530000020BDE8F08100F0E5FBC0B241B2491CDB
:10154000F5D13846F5E70000380000202DE9F041DC
:1015500042F2080101EB401542F20811002601EBAE
:1015600040142846FFF7BAFD07462046FFF7B6FDB0
:1015700000EB072007043F0C09D02846FFF7AEFD1B
:1015800006462046FFF7AAFD00EB062086B2BE42C3
:10159000E7D13046BDE8F0811CB5FEF793FFFFF7B9
:1015A0001CFDFFF7FDFBFFF767FCFFF747FD214937
:1015B0000020FFF72FFF01208DF800008DF80300B9
:1015C00000218DF802108DF8010069460A20FFF70E
:1015D00047FF40F2DC5401A90F20FFF741FF9DF8BF
:1015E000040030B92046FEF757FE9DF8040000289D
:1015F000F1D0002301211A46084600F005F9012820
:1016000000D0FEE70B48801F811C02880120FFF7F5
:101610007DFE012800D0FEE74FF47A74102206A167
:10162000012000F063F8002800DCFEE72046FEF70A
:1016300033FEF3E7060000204920616D20726F6CD5
:10164000655F32303939210D0A000000054A18B1B2
:1016500011B1C2E9030170470348D060034810612B
:101660007047000038000020CF190008D119000889
:10167000054A18B111B1C2E905017047034850612C
:10168000034890617047000038000020D519000819
:10169000D3190008074A10B513889C05FDD518B169
:1016A00011B1C2E9070110BD0348D06103481062BF
:1016B00010BD0000380000201B1C0008211C000881
:1016C000074A10B513889C05FDD518B111B1C2E9C0
:1016D000090110BD034850620348906210BD00002C
:1016E00038000020191C00081F1C00082DE9F05FBD
:1016F00015468B460646082803D94FF0FF30BDE853
:10170000F09F700101240830FFF7E8FC00F00F00A3
:10171000012801D0A01FF2E775B14FF4427000EB31
:1017200046100746FFF7DAFC6FF0060A172806D0C6
:101730001C2804D05046E2E76FF00D00DFE7DFF829
:10174000C480B440B8F80400044213D04FF40270CF
:1017500000EB46108146FFF7C1FC00F01F00C106F8
:1017600024D548461021FFF71FFDB8F80410A14307
:10177000A8F8041041F6087000EB4610FFF7AEFC25
:101780004FF6FF7101EA8020854200D905463046B8
:10179000FFF7DCFE81463846FFF7A0FC17280DD086
:1017A0001C280BD03046FFF777FDC3E700070BD5A9
:1017B0003046FFF771FD6FF00C00A0E7B8F80200AB
:1017C000044203D04D4501D9002098E74D45DED8AD
:1017D0002A465946304600F0A9F84FF4847000EBD1
:1017E000461006462021FFF7DFFC3046FFF776FC67
:1017F0000028FAD1B8F8041028460C43A8F8044091
:101800007DE70000640000202DE9F8431D461746DF
:101810000E460446082803D94FF0FF30BDE8F88390
:10182000012E08D0022E0ED0032E0CD0042E0AD08A
:101830006FF00400F2E7042269464FF47060FFF78E
:1018400079FC009848B169076FF00500E6D49DB1B6
:10185000012E05D0022E0FD106E06FF00200DDE769
:1018600015F0210FDAD007E0A90601D52906D5D554
:10187000E90601D52906D1D52046FFF70DFD600107
:1018800005F0F0014FF0010831430830FFF78CFC00
:10189000224E57B93788781C80B2A0F57F4130803E
:1018A000F03902D14FF4404030804FF48160390A62
:1018B00000EB4410FFF778FC4FF4A160F9B200EBA5
:1018C0004410FFF771FC4FF4847000EB441007469E
:1018D0000121FFF769FC3846FFF700FC0028FAD128
:1018E00008FA04F0718805F001028143A2400A431E
:1018F0007280B1888143B1800949002021F8140029
:101900000649891D08554FF4427000EB44152846DE
:10191000FFF7E4FB0028FAD060B27FE76400002004
:10192000CC00002072B6704762B670472DE9F047D0
:101930005FEA02088946064626D042F2085000EBCC
:1019400046152846FFF7CAFB074642F2084000EB5F
:1019500046142046FFF7C2FB07EB002087B238028F
:1019600000EB4610424649461030FFF74DFC07EBAE
:10197000080086B2310A2046FFF716FCF1B228466D
:10198000BDE8F047FFF710BCBDE8F087007870476E
:10199000017070472DE9F041050A00F0F0014FF4A5
:1019A000A850FFF701FC002401264FF4027700BF86
:1019B00006FA04F0284204D007EB44101F21FFF779
:1019C000F3FB641CE4B2082CF2D3BDE8F08170474D
:1019D0007047704770470000012210210148FEF750
:1019E0005DBD00000008014010B54FF4A850FFF79E
:1019F00075FB00F0F0044FF4B850FFF76FFB04EBF9
:101A0000002080B210BD10B54FF4B050FFF766FB58
:101A100004464FF4C050FFF761FB04EB002080B296
:101A200010BD000010B50446014606224FF41060B8
:101A3000FFF780FB042204F10E019001FFF77AFB0F
:101A4000042204F10A014FF4A060FFF773FB0422A3
:101A5000A11D4FF47060FFF76DFB07480178A1747A
:101A60004178E17481782175C07860750248401E24
:101A70000078A07510BD0000310000200020FFF7A5
:101A80002DBB70B504464FF4D850FFF727FB2070EC
:101A90004FF4D050FFF722FB05464FF4C850FFF734
:101AA0001DFB05EB0020608070BD2DE9F0410D4667
:101AB0000646002400F0B5F84FF0FF38AEB1002222
:101AC000B05C204444B2102C17DC521C52B2082ADD
:101AD000F6DB002441F60877315D07EB4410FFF791
:101AE00063FB641C64B2082CF6DBCDB10021084610
:101AF0002A5C114449B2102902DD4046BDE8F0815C
:101B0000401C40B20828F3DB002441F60866295D3A
:101B100006EB4410FFF748FB641C64B2082CF6DBAC
:101B20000020EBE70020FFF7CFB970B50E46054661
:101B3000002406E00020FFF7C7F9641C05F8010B3C
:101B4000A4B2B442F6D370BD002210210148FEF7C2
:101B5000A5BC00000008014010B5C1B2040A4FF452
:101B6000B050FFF721FB2146BDE810404FF4C050B4
:101B7000FFF71ABB10B50446014606224FF4106069
:101B8000FFF742FB042204F10E019001FFF73CFB3A
:101B9000042204F10A014FF4A060FFF735FB042290
:101BA000A11D4FF47060FFF72FFB0748A17C017067
:101BB000E17C4170217D8170617DC1700249A07D11
:101BC000491E087010BD00003100002010B5044609
:101BD00030F03A0002D04FF0FF3010BD0020FFF788
:101BE0007DFA40EA04010020FFF7DEFA002010BD74
:101BF00010B5044601784FF4D850FFF7D5FA608845
:101C0000010A4FF4C850FFF7CFFAA178BDE81040A1
:101C10004FF4D050FFF7C8BA7047002070477047A4
:101C20007047F0B585B04FF410640622694620462F
:101C3000FFF780FA0422950102A92846FFF77AFAF5
:101C40004FF4A066042203A93046FFF773FA4FF45D
:101C50007067042204A93846FFF76CFA802100203F
:101C6000FFF7A2FA0020FFF739FA0622694620465C
:101C7000FFF7CAFA042202A92846FFF7C5FA042290
:101C800003A93046FFF7C0FA042204A93846FFF73B
:101C9000BBFA05B0F0BDFFF717B970B50E460546A3
:101CA000002405E02878FFF70FF9641CA4B26D1C2E
:101CB000B442F7D370BD10B504464FF43850FFF767
:101CC0000DFAC0F38011217000F0380001220021CC
:101CD000202811D038280FD0617010280ED0182875
:101CE0000CD020280AD0A170082809D0182807D0C5
:101CF000202805D0E17010BD6270EEE7A270F3E716
:101D0000E27010BD10B500244FF43850FFF7E6F92B
:101D1000C00700D00124204610BD10B500244FF4A8
:101D20003850FFF7DBF9C0F3C200062800D10124C8
:101D3000204610BD10B54FF438542046FFF7CEF9B9
:101D400020F080012046FFF72FFA2046FFF7C6F962
:101D500040F080012046BDE81040FFF725BA10B5DD
:101D600002780021012A00D140214278012A06D0C0
:101D7000C2788078012A05D001280BD00CE041F010
:101D8000380109E0012802D041F0080104E041F0E7
:101D9000180101E041F010014FF43850FFF704FA48
:101DA000BDE81040FFF7C6BF70B504464FF4385683
:101DB0003046FFF793F941064FF0FF351AD520F072
:101DC0003800012C10D040F038013046FFF7ECF914
:101DD000FFF7B0FF3046FFF781F9012C07D000F084
:101DE000380038B1002070BD40F03001EDE700F060
:101DF0003000F6E7284670BD01020203040506071D
:101E000008090A0B0C0D0E0F101000000000000056
:101E10000000010203040607080900000202020292
:101E20000202020202020202020202024C1E000828
:101E3000000000207400000028010008C01E0008F7
:101E400074000020CC060000440100088813C0A8DC
:101E50000102808080808080C0A8010AFFFFFF000F
:101E6000C0A80101080808080100000001000000E6
:101E7000100000000000000000127A0000000000C6
:101E8000000000000102573535303000000000002E
:101E9000CF190008D1190008D5190008D319000876
:101EA0008D190008911900080000000000000000D2
:101EB00000C0000000000000000000000000000062
:04000005080000ED02
:00000001FF
