:020000040800F2
:10000000301400200501000829040008AB03000893
:100010002504000871010008350F000800000000E9
:10002000000000000000000000000000050B0008B8
:100030007501000800000000F50400084F0D0008DD
:100040001F0100081F0100081F0100081F01000810
:100050001F0100081F0100081F0100081F01000800
:100060001F0100081F0100081F0100081F010008F0
:100070001F0100081F0100081F0100081F010008E0
:100080001F0100081F0100081F0100081F010008D0
:100090001F0100081F0100081F0100081F010008C0
:1000A0001F0100081F0100081F0100081F010008B0
:1000B000C90D00081F0100081F0100081F010008EA
:1000C0001F0100081F0100081F0100081F01000890
:1000D0001F0100081F0100081F0100081F01000880
:1000E0001F0100081F0100081F010008DFF810D0E1
:1000F00000F02CF800480047E1130008AFF300803F
:10010000301400200648804706480047FEE7FEE717
:10011000FEE7FEE7FEE7FEE7FEE7FEE7FEE7FEE7B7
:10012000510D0008ED00000840EA01039B0703D0D1
:1001300009E008C9121F08C0042AFAD203E011F826
:10014000013B00F8013B521EF9D27047064C074DA7
:1001500006E0E06840F0010394E807009847103497
:10016000AC42F6D3FFF7C6FF80140008A0140008C5
:1001700000BFFEE7704700000021044A116000BF85
:10018000024909688142FBD3704700002400002027
:1001900038B530480078401CC0B28DF800002D48BA
:1001A0004078401CC0B28DF801002A488078401C7D
:1001B000C0B28DF802002748C078401CC0B28DF84C
:1001C00003006A460C21002001F0AEF80122002154
:1001D000084601F06DF801221146002001F068F890
:1001E0000520FFF7C9FF0321002000F087FB13283B
:1001F00006D010220121002001F05AF8002038BD5D
:1002000004220121002001F053F800BF0024022144
:10021000002000F073FB044624B122460221002096
:1002200001F046F80520FFF7A7FF04F008000828B2
:1002300001D10020E3E70621002000F05FFBFF284A
:1002400006D010220121002001F032F8FF20D6E76D
:10025000DCE700000E0000200549096821F01001CC
:10026000034A11601146096801431160704700009C
:100270000020024001460020034A106800F03800C8
:100280000843106070470000002002402DE9F04153
:10029000024600250026002000230024002791F8B4
:1002A00003C00CF00F0591F803C00CF0100CBCF16A
:1002B000000F03D091F802C04CEA050591F800C088
:1002C000BCF1000F31D0146800202BE04FF0010C7E
:1002D0000CFA00F3B1F800C00CEA03069E4220D1EC
:1002E00083004FF00F0C0CFA03F7BC4305FA03FC34
:1002F0004CEA040491F803C0BCF1280F06D14FF07A
:10030000010C0CFA00FCC2F814C00AE091F803C01A
:10031000BCF1480F05D14FF0010C0CFA00FCC2F8FB
:1003200010C0401C0828D1D31460B1F800C0BCF143
:10033000FF0F34DD546800202EE000F1080C4FF070
:10034000010808FA0CF3B1F800C00CEA03069E425B
:1003500021D183004FF00F0C0CFA03F7BC4305FAD0
:1003600003FC4CEA040491F803C0BCF1280F05D14A
:1003700000F1080C08FA0CF8C2F8148091F803C0D8
:10038000BCF1480F07D100F1080C4FF0010808FA42
:100390000CF8C2F81080401C0828CED35460BDE889
:1003A000F081416170470161704700BFFEE70000C6
:1003B000C02016490870A820487001208870C870B5
:1003C000FF2013490870487088700020C8700C2006
:1003D0001049087029204870AB2088707C20C870B4
:1003E0000020087101204871C0200B490870A82026
:1003F000487001208870C720C87013200749087012
:1004000088204870002006490870704700000020CE
:1004100004000020080000200E0000201200002030
:100420002000002000BFFEE7704708B500214FF014
:10043000006000F055F84FF4C06000F047F81C2051
:100440008DF8000000208DF801008DF802000120D9
:100450008DF80300684600F001F808BD70B5002172
:1004600000230F22C47804B3154C246804F4E0641C
:10047000C4F5E064210AC1F10403CA40447804FAD7
:1004800003F184781440214309010E4C0678A155EC
:10049000047804F01F050124AC4005786D11AD000F
:1004A00005F1E025C5F8004109E0047804F01F05D6
:1004B0000124AC40044D0678761145F8264070BD05
:1004C0000CED00E000E400E080E100E002490143BF
:1004D000024A1160704700000000FA050CED00E0D0
:1004E000024A0A400243024B1A60704780FFFF1F16
:1004F00008ED00E07047000070B50446074920464B
:1005000000F046F905462A4604490548FFF70CFE67
:100510002A460349204600F015FE70BD2C0000203D
:100520002C08002029B1064AD2690243044BDA6143
:1005300004E0034AD2698243014BDA61704700004C
:100540000010024029B1064A92690243044B9A61A5
:1005500004E0034A92698243014B9A6170470000AC
:10056000001002400149C864704700000000424288
:1005700010B500F03BF84FF4803000F08FF800F039
:10058000EBF80446012C2FD11020FFF765FE022066
:10059000FFF770FE002000F075F8002000F0B0F8C2
:1005A000A00200F0A1F84FF4E011200400F0BAF826
:1005B000012000F0B1F800BF392000F03DF800281C
:1005C000FAD0022000F0BCF800BF00F053F8082871
:1005D000FBD10120FFF7C6FF01210846FFF7A2FF6C
:1005E00001213D20FFF7AEFF10BD00000F4800685D
:1005F00040F001000D490860084640680C49084079
:100600000A494860084600680A49084007490860E6
:100610000846006820F4802008600846406820F4FE
:10062000FE0048604FF41F008860704700100240D1
:100630000000FFF8FFFFF6FE10B501460022002380
:1006400000204A11012A02D1094C236806E0022A3F
:1006500002D1074C236A01E0054C636A01F01F02D6
:10066000012494401C400CB1012000E0002010BD8A
:10067000001002400248406800F00C007047000083
:100680000010024001460020034A506820F0F000AC
:10069000084350607047000000100240114909688B
:1006A00021F480310F4A11601146096821F480213C
:1006B0001160B0F5803F03D0B0F5802F0ED106E079
:1006C0000849096841F48031064A116007E005498C
:1006D000096841F4A021034A116000E000BF00BF97
:1006E000704700000010024001460020034A506895
:1006F00020F4E060084350607047000000100240A2
:1007000001460020034A506820F4605040EAC100CE
:1007100050607047001002400149086670470000B1
:100720000000424202460020044B586820F47C102E
:1007300042EA01031843014B586070470010024021
:1007400001460020034A506820F00300084350602F
:10075000704700000010024038B5002000900024CF
:10076000002500BF3120FFF767FF05460098401CB9
:1007700000900098B0F5A06F01D0002DF2D031208C
:10078000FFF75AFF08B1012400E00024204638BDDD
:100790002DE9F04780460D462621404600F0D6F868
:1007A000064616B90020BDE8F08740F2B4508642F4
:1007B00000DD06462821404600F0C8F80746B94645
:1007C000C7F30A0710213A48FFF7EBFD384600F05F
:1007D00001F9182101EB4811C8B200F0EBF83548D7
:1007E00000F06DF900F0FF0AB819B0F5006F11DAEA
:1007F00000240CE0002000F0DDF82E4800F05FF946
:1008000000F0FF0A85F800A06D1C601C84B2B442A1
:10081000F0DB39E0C7F5006087B200240CE000206F
:1008200000F0C8F8234800F04AF900F0FF0A85F804
:1008300000A06D1C601C84B2BC42F0DB10211C487F
:10084000FFF7B1FD10211A48FFF7ABFD002000F0C3
:10085000C1F8182101EB4811C8B200F0ABF81548F7
:1008600000F02DF900F0FF0A0CE0002000F0A2F8E3
:10087000104800F024F900F0FF0A85F800A06D1C74
:10088000601C84B2B442F0DB10210948FFF78BFDF5
:1008900009EB06001FFA80F94A462821404600F07D
:1008A00025FD40220121404600F002FD30467AE756
:1008B000000801400030014070B5044610210D4889
:1008C000FFF76FFD204600F085F8012000F072F878
:1008D000094800F0F4F8C5B2002000F06BF80648B3
:1008E00000F0EDF8C5B210210248FFF75CFD284684
:1008F00070BD0000000801400030014070B50446A2
:100900000D4610210F48FFF74CFD284600F062F815
:10091000082101EB4411C9B241F0010000F04AF88E
:10092000094800F0CCF8C6B2002000F043F80648B1
:1009300000F0C5F8C6B210210248FFF734FD30467A
:1009400070BD0000000801400030014070B5054650
:100950000E4610211548FFF724FD304600F03AF806
:10096000082101EB4511C9B241F0020000F022F864
:100970000F4800F0A4F80446002000F01BF80C48D3
:1009800000F09DF80446002000F014F84FF6FF70C8
:1009900000EA0424064800F092F8204484B21021B2
:1009A0000248FFF700FD204670BD0000000801402E
:1009B0000030014010B504462146054800F082F899
:1009C00000BF0221024800F071F80028F9D010BDE4
:1009D0000030014070B504462546E11704EB116173
:1009E000C1F30720FFF7E6FFE0B2FFF7E3FF70BDBA
:1009F00021B1028842F04002028004E002884FF6F2
:100A0000BF731A400280704700B587B0012141F2E0
:100A10000500FFF797FDE020ADF8180003208DF8E2
:100A20001A0018208DF81B0006A91E48FFF72EFC9F
:100A3000E0211C48FFF7B7FC1020ADF81800032098
:100A40008DF81A0010208DF81B0006A91548FFF735
:100A50001DFC10211348FFF7A6FC0020ADF8040090
:100A60004FF48270ADF806000020ADF80800ADF834
:100A70000A00ADF80C004FF40070ADF80E00002035
:100A8000ADF81000ADF812000720ADF8140001A970
:100A9000054800F019F801210348FFF7A9FF07B046
:100AA00000BD000000080140003001400246002067
:100AB00013890B400BB1012000E000207047014674
:100AC000888970478181704710B50022028802F43E
:100AD00041520B884C8823438C882343CC88234382
:100AE0000C8923434C8923438C892343CC8923439A
:100AF0001A430280838B4FF2FF74234083830B8A57
:100B0000038210BD704710B500F002F810BD000060
:100B10000CB50020019000903348006840F480300C
:100B20003149086000BF3048006800F40030009090
:100B30000198401C0190009818B90198B0F5A06F79
:100B4000F1D12948006800F4003010B10120009074
:100B500001E0002000900098012843D1234800685C
:100B600040F01000214908600846006820F00300AA
:100B700008600846006840F0020008601A484068B3
:100B8000194948600846406848600846406840F493
:100B9000806048600846406820F47C104860084641
:100BA000406840F4E81048600846006840F08070F3
:100BB000086000BF0C48006800F000700028F9D001
:100BC0000948406820F0030007494860084640682B
:100BD00040F00200486000BF0348406800F00C008D
:100BE0000828F9D10CBD000000100240002002408E
:100BF00010B5044601220021204600F059FB0122D5
:100C00001146204600F054FB0520FFF7B5FA0321FA
:100C10002046FFF773FE132806D01022012120463C
:100C200000F046FB002010BD04220121204600F008
:100C30003FFBFF20F7E7000010B5044640F2B45236
:100C40001221002000F052FB082C26D2DFE804F02D
:100C5000041E1F202122232411484178007801EB33
:100C6000002082B20421002000F040FB0D484178B2
:100C7000007801EB002082B21021002000F036FB4A
:100C8000094A0C21002000F04FFB07E006E005E0D8
:100C900004E003E002E001E000E000BF00BF10BD9F
:100CA00012000020180000201400002010B5044697
:100CB00001220021204600F0FBFA012211462046C5
:100CC00000F0F6FA0520FFF757FA03212046FFF758
:100CD00015FE132806D010220121204600F0E8FA64
:100CE000002010BD02220121204600F0E1FA05207B
:100CF000FFF742FA03212046FFF700FE142806D032
:100D000010220121204600F0D3FA0020E9E7FF205D
:100D1000E7E710B5044602220021204600F0C8FA99
:100D200001221146204600F0C3FA0520FFF724FAFD
:100D300003212046FFF7E2FD222806D010220121E0
:100D4000204600F0B5FA002010BDFF20FCE77047F8
:100D500010B51348006840F00100114908600846CA
:100D60004068104908400E494860084600680E492E
:100D700008400B4908600846006820F4802008609D
:100D80000846406820F4FE0048604FF41F00886069
:100D9000FFF7B9FE4FF000600449086010BD000085
:100DA000001002400000FFF8FFFFF6FE08ED00E033
:100DB00010B5FFF7DDFBFFF738FBFFF725FE00F06E
:100DC00099F800F0B9F810BD10B50121880700F0BE
:100DD00024F801280DD10121800700F00FF8054803
:100DE0000068401C0349086003480068401C024931
:100DF000086010BD2400002028000020CA430282A1
:100E0000704721B1028842F00102028004E00288AA
:100E10004FF6FE731A400280704730B5024600203C
:100E200000230024158A05EA0103958905EA0104D7
:100E300013B10CB1012000E0002030BD1AB183894C
:100E40000B43838102E083898B43838170470000D9
:100E5000002202881D4B98420ED01D4B98420BD0A9
:100E6000B0F1804F08D01B4B984205D01A4B9842E6
:100E700002D01A4B984204D14FF68F731A404B8818
:100E80001A43174B984207D0164B984204D04FF69E
:100E9000FF431A40CB881A4302808B8883850B88D6
:100EA00003850A4B98420BD0094B984208D00E4B51
:100EB000984205D00D4B984202D00D4B984201D17B
:100EC0000B7A03860123838270470000002C0140C7
:100ED000003401400004004000080040000C0040C5
:100EE0000010004000140040004001400044014058
:100EF000004801400EB501210846FFF713FB092009
:100F0000ADF8040041F61F40ADF800000020ADF838
:100F10000600ADF8020069464FF08040FFF798FFE9
:100F2000012211469007FFF789FF01218807FFF78B
:100F300068FF0EBD00BFFEE708B54FF40040ADF8F6
:100F4000000001208DF8020010208DF80300694692
:100F50000448FFF79BF94FF400410248FFF721FADC
:100F600008BD00000010014010B54FF400410B48CF
:100F7000FFF717FA3220FFF7FFF84FF40041074858
:100F8000FFF711FAC820FFF7F7F800BF2E20FFF790
:100F900093FC00F001000028F8D010BD00100140C3
:100FA00010B500248021002000F052F90A20FFF73C
:100FB000E3F804221649012000F0E0F90422154963
:100FC000052000F0DBF906221349092000F0D6F9CC
:100FD000042212490F2000F0D1F900BF0BE00222D9
:100FE0001E21204600F064F902221F21204600F055
:100FF0005FF9601CC4B2082CF1DB4FF4FA611920D0
:1010000000F03EF908211B2000F022F910BD00007D
:101010000000002004000020080000200E00002036
:1010200010B5FFF7BDFFFFF7B3F80020FFF704FE90
:1010300010BD000070B500BF1720FFF73DFC05464E
:1010400005F0010000283DD002210020FFF756FCEA
:10105000044622460221002000F02AF904F0010093
:1010600028B11B48007840F002001949087004F0CC
:10107000020050B110220121002000F019F90020D7
:10108000FFF7DAFD00201249087004F0100028B1C3
:101090001048007840F002000E49087004F0040087
:1010A00028B10C48007840F001000A49087004F0AB
:1010B000080038B110220121002000F0F9F80020CA
:1010C000034908701720FFF7F7FB00B1B4E770BDC4
:1010D000210000202200002010B518480078F8B93F
:1010E0001748007860B90020FFF7E0FDFF2803D122
:1010F00001201249087020E00020104908701CE00F
:101100000F48007801280CD10020FFF771FDFF285F
:1011100003D10120094908700FE000200749087039
:101120000BE00020FFF7F5FDFF2803D10320034962
:10113000087002E000200149087010BD2100002065
:10114000200000202DE9F04707460D46904600217B
:101150003846FFF7D3FB00F00F0022280ED0394AA3
:101160000C21384600F0E0F837484178007801EB70
:10117000002082B21021384600F0B8F82421384609
:10118000FFF7E4FB0646B146C6F30A0610212F48D6
:10119000FFF707F93046FFF71DFC102101EB47115F
:1011A000C9B241F00400FFF705FC06EB0800B0F5FA
:1011B000006F0ADA002405E015F8010BFFF7FAFBCF
:1011C000601C84B24445F7DB28E0C6F5006086B2B7
:1011D000002405E015F8010BFFF7ECFB601C84B25E
:1011E000B442F7DB10211948FFF7DDF8102117484A
:1011F000FFF7D7F80020FFF7EDFB102101EB4711B7
:10120000C9B241F00400FFF7D5FB05E015F8010B6A
:10121000FFF7D0FB601C84B24445F7DB10210B487C
:10122000FFF7C1F809EB08001FFA80F94A462421AC
:10123000384600F05BF820220121384600F038F8EB
:10124000BDE8F0871A0000201E00002000080140C1
:1012500070B505460C4610210848FFF7A2F828464D
:10126000FFF7B8FB0520FFF7A5FB2046FFF7A2FB21
:1012700010210248FFF797F870BD000000080140F8
:1012800070B505460C4610210848FFF78AF8284635
:10129000FFF7A0FB0620FFF78DFB2046FFF79AFB28
:1012A00010210248FFF77FF870BD000000080140E0
:1012B00070B504460D46164610210B48FFF771F82D
:1012C0002846FFF787FB082101EB4411C9B241F022
:1012D0000500FFF76FFB3046FFF76CFB102102485B
:1012E000FFF761F870BD00000008014070B50446CA
:1012F0000D46164610210B48FFF753F82846FFF716
:1013000069FB082101EB4411C9B241F00600FFF767
:1013100051FB3046FFF75EFB10210248FFF743F810
:1013200070BD00000008014070B505460E46144629
:1013300010211148FFF735F83046FFF74BFB082125
:1013400001EB4511C9B241F00700FFF733FB14F878
:10135000010BFFF72FFB14F8010BFFF72BFB14F821
:10136000010BFFF727FB14F8010BFFF723FB1021FC
:101370000148FFF718F870BD000801402DE9F04161
:1013800007460C46154610210C48FFF70AF8384668
:10139000FFF720FB0420FFF70DFB002605E014F803
:1013A000010BFFF707FB701C86B2AE42F7DB102182
:1013B0000248FEF7F8FFBDE8F08100000008014098
:1013C00002E008C8121F08C1002AFAD1704770470E
:1013D000002001E001C1121F002AFBD1704700006C
:1013E000FFF7E6FCFEF7E4FFFFF7BEFDFFF718FE90
:1013F0002EE0FFF771FEFFF71DFE1648007800F0A3
:10140000010048B11348007820F00100114908702C
:101410000020FFF771F81BE00F480068B0F5FA7F75
:1014200016D30E48007803280FD10A48007820F020
:10143000020008490870182209A11048FEF774FE3E
:1014400018220E490020FFF77DFE002002490860A7
:10145000CFE700002200002028000020210000200B
:101460000D0AC4E3BAC3A3ACD3C5D0C5B5E7D7D37F
:10147000A3A1A3A1A3A10D0A000000002C08002035
:10148000A0140008000000202C000000C013000879
:10149000CC1400082C00002004140000D013000815
:1014A000000000000000000000000000000000003C
:1014B000000000000000000000000000000000002C
:0C14C0000300000000000000000000001D
:04000005080000ED02
:00000001FF
