:020000040800F2
:10000000301400200101000825040008A70300089F
:10001000210400086D0100084D0F000800000000D9
:100020000000000000000000000000001D0B0008A0
:100030007101000800000000F1040008670D0008CD
:100040001B0100081B0100081B0100081B01000820
:100050001B0100081B0100081B0100081B01000810
:100060001B0100081B0100081B0100081B01000800
:100070001B0100081B0100081B0100081B010008F0
:100080001B0100081B0100081B0100081B010008E0
:100090001B0100081B0100081B0100081B010008D0
:1000A0001B0100081B0100081B0100081B010008C0
:1000B000E10D00081B0100081B0100081B010008DE
:1000C0001B0100081B0100081B0100081B010008A0
:1000D0001B0100081B0100081B0100081B01000890
:1000E0001B0100081B0100081B010008DFF80CD0F1
:1000F00000F02AF8004800471914000830140020C6
:100100000648804706480047FEE7FEE7FEE7FEE7B1
:10011000FEE7FEE7FEE7FEE7FEE7FEE7690D000803
:10012000ED00000840EA01039B0703D009E008C97D
:10013000121F08C0042AFAD203E011F8013B00F8AC
:10014000013B521EF9D27047064C074D06E0E068AD
:1001500040F0010394E8070098471034AC42F6D30E
:10016000FFF7C8FFB8140008D814000800BFFEE766
:10017000704700000021044A116000BF024909686D
:100180008142FBD3704700002400002038B530487E
:100190000078401CC0B28DF800002D484078401C0B
:1001A000C0B28DF801002A488078401CC0B28DF89A
:1001B00002002748C078401CC0B28DF803006A4690
:1001C0000C21002001F0C8F801220021084601F0AE
:1001D00083F801221146002001F07EF80520FFF788
:1001E000C9FF0321002000F08DFB132806D0102248
:1001F0000121002001F070F8002038BD0422012107
:10020000002001F069F800BF00240221002000F066
:1002100079FB044624B122460221002001F05CF85B
:100220000520FFF7A7FF04F00800082801D10020EF
:10023000E3E70621002000F065FBFF2806D010222E
:100240000121002001F048F8FF20D6E7DCE700009C
:100250000E0000200549096821F01001034A1160D1
:1002600011460968014311607047000000200240F8
:1002700001460020034A106800F03800084310606F
:1002800070470000002002402DE9F04102460025A1
:100290000026002000230024002791F803C00CF062
:1002A0000F0591F803C00CF0100CBCF1000F03D047
:1002B00091F802C04CEA050591F800C0BCF1000FAE
:1002C00031D0146800202BE04FF0010C0CFA00F341
:1002D000B1F800C00CEA03069E4220D183004FF023
:1002E0000F0C0CFA03F7BC4305FA03FC4CEA0404B8
:1002F00091F803C0BCF1280F06D14FF0010C0CFAA5
:1003000000FCC2F814C00AE091F803C0BCF1480F29
:1003100005D14FF0010C0CFA00FCC2F810C0401CD3
:100320000828D1D31460B1F800C0BCF1FF0F34DD50
:10033000546800202EE000F1080C4FF0010808FA84
:100340000CF3B1F800C00CEA03069E4221D18300F1
:100350004FF00F0C0CFA03F7BC4305FA03FC4CEA10
:10036000040491F803C0BCF1280F05D100F1080C7A
:1003700008FA0CF8C2F8148091F803C0BCF1480FD9
:1003800007D100F1080C4FF0010808FA0CF8C2F888
:100390001080401C0828CED35460BDE8F081416134
:1003A00070470161704700BFFEE70000C02016499A
:1003B0000870A820487001208870C870FF20134979
:1003C0000870487088700020C8700C2010490870B0
:1003D00029204870AB2088707C20C87000200871EC
:1003E00001204871C0200B490870A82048700120E6
:1003F0008870C720C870132007490870882048708B
:10040000002006490870704700000020040000200A
:10041000080000200E000020120000202000002014
:1004200000BFFEE7704708B500214FF0006000F004
:1004300055F84FF4C06000F047F81C208DF800001C
:1004400000208DF801008DF8020001208DF80300D6
:10045000684600F001F808BD70B5002100230F22A6
:10046000C47804B3154C246804F4E064C4F5E06473
:10047000210AC1F10403CA40447804FA03F18478E4
:100480001440214309010E4C0678A155047804F06C
:100490001F050124AC4005786D11AD0005F1E02584
:1004A000C5F8004109E0047804F01F050124AC40C0
:1004B000044D0678761145F8264070BD0CED00E03D
:1004C00000E400E080E100E002490143024A1160DB
:1004D000704700000000FA050CED00E0024A0A40F7
:1004E0000243024B1A60704780FFFF1F08ED00E0D7
:1004F0007047000070B504460749204600F046F9F1
:1005000005462A4604490548FFF70CFE2A460349DA
:10051000204600F023FE70BD2C0000202C08002097
:1005200029B1064AD2690243044BDA6104E0034A66
:10053000D2698243014BDA6170470000001002402B
:1005400029B1064A92690243044B9A6104E0034AC6
:1005500092698243014B9A6170470000001002408B
:100560000149C864704700000000424210B500F025
:100570003BF84FF4803000F08FF800F0EBF80446C1
:10058000012C2FD11020FFF765FE0220FFF770FE2F
:10059000002000F075F8002000F0B0F8A00200F094
:1005A000A1F84FF4E011200400F0BAF8012000F0A7
:1005B000B1F800BF392000F03DF80028FAD0022041
:1005C00000F0BCF800BF00F053F80828FBD1012070
:1005D000FFF7C6FF01210846FFF7A2FF01213D20DA
:1005E000FFF7AEFF10BD00000F48006840F00100AB
:1005F0000D490860084640680C4908400A494860AF
:10060000084600680A49084007490860084600682B
:1006100020F4802008600846406820F4FE0048600E
:100620004FF41F0088607047001002400000FFF880
:10063000FFFFF6FE10B501460022002300204A11FC
:10064000012A02D1094C236806E0022A02D1074C94
:10065000236A01E0054C636A01F01F020124944003
:100660001C400CB1012000E0002010BD0010024031
:100670000248406800F00C00704700000010024083
:1006800001460020034A506820F0F0000843506003
:1006900070470000001002401149096821F48031C0
:1006A0000F4A11601146096821F480211160B0F5EC
:1006B000803F03D0B0F5802F0ED106E008490968CD
:1006C00041F48031064A116007E00549096841F4A8
:1006D000A021034A116000E000BF00BF7047000086
:1006E0000010024001460020034A506820F4E060F8
:1006F000084350607047000000100240014600208F
:10070000034A506820F4605040EAC10050607047CE
:100710000010024001490866704700000000424294
:1007200002460020044B586820F47C1042EA010382
:100730001843014B586070470010024001460020EA
:10074000034A506820F003000843506070470000DF
:100750000010024038B5002000900024002500BFA2
:100760003120FFF767FF05460098401C0090009875
:10077000B0F5A06F01D0002DF2D03120FFF75AFF65
:1007800008B1012400E00024204638BD2DE9F047DF
:1007900080460D462621404600F0DEF8064616B992
:1007A0000020BDE8F08740F2B450864200DD0646E6
:1007B0002821404600F0D0F80746B946C7F30A079B
:1007C0004FF480513B48FFF7EAFD384600F00AF944
:1007D000182101EB4811C8B200F0F4F8364800F0D7
:1007E0007AF900F0FF0AB819B0F5006F11DA0024A9
:1007F0000CE0002000F0E6F82F4800F06CF900F063
:10080000FF0A85F800A06D1C601C84B2B442F0DBC6
:100810003BE0C7F5006087B200240CE0002000F048
:10082000D1F8254800F057F900F0FF0A85F800A03C
:100830006D1C601C84B2BC42F0DB4FF480511D483B
:10084000FFF7AFFD4FF480511A48FFF7A8FD0020D5
:1008500000F0C8F8182101EB4811C8B200F0B2F856
:10086000154800F038F900F0FF0A0CE0002000F015
:10087000A9F8114800F02FF900F0FF0A85F800A050
:100880006D1C601C84B2B442F0DB4FF48051094807
:10089000FFF787FD09EB06001FFA80F94A46282179
:1008A000404600F039FD40220121404600F014FD91
:1008B000304676E7000C01400030014070B5044638
:1008C0004FF480510D48FFF76AFD204600F08AF88A
:1008D000012000F077F80A4800F0FDF8C5B20020CA
:1008E00000F070F8064800F0F6F8C5B24FF48051F9
:1008F0000248FFF756FD284670BD0000000C01407D
:100900000030014070B504460D464FF48051104848
:10091000FFF745FD284600F065F8082101EB44117A
:10092000C9B241F0010000F04DF80A4800F0D3F8D8
:10093000C6B2002000F046F8064800F0CCF8C6B277
:100940004FF480510248FFF72CFD304670BD000087
:10095000000C01400030014070B505460E464FF4D2
:1009600080511648FFF71BFD304600F03BF8082188
:1009700001EB4511C9B241F0020000F023F8104824
:1009800000F0A9F80446002000F01CF80C4800F024
:10099000A2F80446002000F015F84FF6FF7000EAB8
:1009A0000424074800F097F8204484B24FF48051A3
:1009B0000248FFF7F6FC204670BD0000000C014025
:1009C0000030014010B504462146054800F086F885
:1009D00000BF0221024800F075F80028F9D010BDD0
:1009E0000030014070B504462546E11704EB116163
:1009F000C1F30720FFF7E6FFE0B2FFF7E3FF70BDAA
:100A000021B1028842F04002028004E002884FF6E1
:100A1000BF731A400280704700B587B001211920CA
:100A2000FFF78EFD01218803FFF77AFD4FF4604048
:100A3000ADF8180003208DF81A0018208DF81B005F
:100A400006A91D48FFF720FC4FF48050ADF81800B0
:100A500003208DF81A0010208DF81B0006A91748F6
:100A6000FFF712FC4FF480511348FFF79AFC002067
:100A7000ADF804004FF48270ADF806000020ADF828
:100A80000800ADF80A00ADF80C004FF40070ADF8A6
:100A90000E000020ADF81000ADF812000720ADF8F0
:100AA000140001A9064800F01BF801210448FFF7D3
:100AB000A7FF07B000BD0000000C0140001001407E
:100AC000003800400246002013890B400BB1012082
:100AD00000E0002070470146888970478181704797
:100AE00010B50022028802F441520B884C8823433F
:100AF0008C882343CC8823430C8923434C8923438C
:100B00008C892343CC8923431A430280838B4FF281
:100B1000FF74234083830B8A038210BD704710B596
:100B200000F002F810BD00000CB50020019000900C
:100B30003348006840F480303149086000BF3048D5
:100B4000006800F4003000900198401C019000986B
:100B500018B90198B0F5A06FF1D12948006800F4E8
:100B6000003010B10120009001E0002000900098BA
:100B7000012843D12348006840F010002149086053
:100B80000846006820F0030008600846006840F04E
:100B9000020008601A4840681949486008464068E1
:100BA00048600846406840F48060486008464068F5
:100BB00020F47C1048600846406840F4E810486023
:100BC0000846006840F08070086000BF0C4800686C
:100BD00000F000700028F9D00948406820F00300B8
:100BE000074948600846406840F00200486000BF7E
:100BF0000348406800F00C000828F9D10CBD000043
:100C0000001002400020024010B5044601220021DD
:100C1000204600F061FB01221146204600F05CFBFB
:100C20000520FFF7A7FA03212046FFF76BFE1328E4
:100C300006D010220121204600F04EFB002010BDFE
:100C400004220121204600F047FBFF20F7E70000C7
:100C500010B5044640F2B4521221002000F05CFBB3
:100C6000082C26D2DFE804F0041E1F2021222324B2
:100C700011484178007801EB002082B20421002065
:100C800000F04AFB0D484178007801EB002082B269
:100C90001021002000F040FB094A0C21002000F048
:100CA0005BFB07E006E005E004E003E002E001E0B2
:100CB00000E000BF00BF10BD12000020180000209F
:100CC0001400002010B5044601220021204600F047
:100CD00003FB01221146204600F0FEFA0520FFF733
:100CE00049FA03212046FFF70DFE132806D01022F3
:100CF0000121204600F0F0FA002010BD022201215F
:100D0000204600F0E9FA0520FFF734FA03212046D7
:100D1000FFF7F8FD142806D010220121204600F02C
:100D2000DBFA0020E9E7FF20E7E710B504460222DE
:100D30000021204600F0D0FA01221146204600F0A2
:100D4000CBFA0520FFF716FA03212046FFF7DAFD5C
:100D5000222806D010220121204600F0BDFA0020F2
:100D600010BDFF20FCE7704710B51348006840F045
:100D700001001149086008464068104908400E49C2
:100D80004860084600680E4908400B49086008465C
:100D9000006820F4802008600846406820F4FE00C7
:100DA00048604FF41F008860FFF7B9FE4FF0006005
:100DB0000449086010BD0000001002400000FFF868
:100DC000FFFFF6FE08ED00E010B5FFF7CFFBFFF7E1
:100DD0002AFBFFF721FE00F099F800F0B9F810BDEA
:100DE00010B50121880700F024F801280DD1012158
:100DF000800700F00FF805480068401C03490860B0
:100E000003480068401C0249086010BD240000200F
:100E100028000020CA430282704721B1028842F0B4
:100E20000102028004E002884FF6FE731A4002803D
:100E3000704730B50246002000230024158A05EAD9
:100E40000103958905EA010413B10CB1012000E00A
:100E5000002030BD1AB183890B43838102E083896E
:100E60008B43838170470000002202881D4B98420B
:100E70000ED01D4B98420BD0B0F1804F08D01B4BC9
:100E8000984205D01A4B984202D01A4B984204D18E
:100E90004FF68F731A404B881A43174B984207D06E
:100EA000164B984204D04FF6FF431A40CB881A43A2
:100EB00002808B8883850B8803850A4B98420BD070
:100EC000094B984208D00E4B984205D00D4B9842E2
:100ED00002D00D4B984201D10B7A03860123838205
:100EE00070470000002C0140003401400004004025
:100EF00000080040000C00400010004000140040BA
:100F00000040014000440140004801400EB501216D
:100F10000846FFF705FB0920ADF8040041F61F4025
:100F2000ADF800000020ADF80600ADF802006946FB
:100F30004FF08040FFF798FF012211469007FFF71E
:100F400089FF01218807FFF768FF0EBD00BFFEE79C
:100F500008B54FF48070ADF8000001208DF8020054
:100F600010208DF8030069460448FFF78DF94FF40F
:100F700080710248FFF713FA08BD00000014014019
:100F800010B54FF480710B48FFF709FA3220FFF7D4
:100F9000F1F84FF480710748FFF703FAC820FFF714
:100FA000E9F800BF2E20FFF789FC00F001000028BF
:100FB000F8D010BD0014014010B50024802100209D
:100FC00000F056F90A20FFF7D5F80422164901204F
:100FD00000F0EEF904221549052000F0E9F9062297
:100FE0001349092000F0E4F9042212490F2000F00F
:100FF000DFF900BF0BE002221E21204600F06CF951
:1010000002221F21204600F067F9601CC4B2082CA0
:10101000F1DB4FF4FA61192000F044F908211B209C
:1010200000F026F910BD00000000002004000020A0
:10103000080000200E00002010B5FFF7BDFFFFF7ED
:10104000A5F80020FFF704FE10BD000070B500BF3A
:101050001720FFF733FC054605F0010000283DD0BE
:1010600002210020FFF74EFC044622460221002008
:1010700000F032F904F0010028B11B48007840F07C
:1010800002001949087004F0020050B11022012139
:10109000002000F021F90020FFF7DAFD00201249BE
:1010A000087004F0100028B11048007840F00200E9
:1010B0000E49087004F0040028B10C48007840F094
:1010C00001000A49087004F0080038B1102201211B
:1010D000002000F001F90020034908701720FFF7F5
:1010E000EDFB00B1B4E770BD21000020220000201C
:1010F00010B518480078F8B91748007860B9002092
:10110000FFF7E0FDFF2803D101201249087020E01D
:101110000020104908701CE00F48007801280CD10D
:101120000020FFF771FDFF2803D101200949087055
:101130000FE00020074908700BE00020FFF7F5FDE5
:10114000FF2803D103200349087002E00020014971
:10115000087010BD21000020200000202DE9F0477C
:1011600007460D46904600213846FFF7CBFB00F0BE
:101170000F0022280ED03B4A0C21384600F0ECF834
:1011800039484178007801EB002082B210213846BE
:1011900000F0C2F824213846FFF7DEFB0646B146D0
:1011A000C6F30A064FF480513048FFF7F8F830468E
:1011B000FFF718FC102101EB4711C9B241F0040000
:1011C000FFF700FC06EB0800B0F5006F0ADA002418
:1011D00005E015F8010BFFF7F5FB601C84B24445F0
:1011E000F7DB2AE0C6F5006086B2002405E015F8BA
:1011F000010BFFF7E7FB601C84B2B442F7DB4FF44E
:1012000080511A48FFF7CDF84FF480511748FFF787
:10121000C6F80020FFF7E6FB102101EB4711C9B229
:1012200041F00400FFF7CEFB05E015F8010BFFF7D6
:10123000C9FB601C84B24445F7DB4FF480510B4876
:10124000FFF7AFF809EB08001FFA80F94A4624219E
:10125000384600F061F820220121384600F03CF8C1
:10126000BDE8F0871A0000201E000020000C01409D
:1012700070B505460C464FF480510948FFF78FF8CA
:101280002846FFF7AFFB0520FFF79CFB2046FFF742
:1012900099FB4FF480510248FFF783F870BD0000BE
:1012A000000C014070B505460C464FF480510948CA
:1012B000FFF775F82846FFF795FB0620FFF782FB3E
:1012C0002046FFF78FFB4FF480510248FFF769F883
:1012D00070BD0000000C014070B504460D46164676
:1012E0004FF480510B48FFF75AF82846FFF77AFB76
:1012F000082101EB4411C9B241F00500FFF762FB80
:101300003046FFF75FFB4FF480510248FFF749F882
:1013100070BD0000000C014070B504460D46164635
:101320004FF480510B48FFF73AF82846FFF75AFB75
:10133000082101EB4411C9B241F00600FFF742FB5E
:101340003046FFF74FFB4FF480510248FFF729F872
:1013500070BD0000000C014070B505460E461446F5
:101360004FF480511148FFF71AF83046FFF73AFB67
:10137000082101EB4511C9B241F00700FFF722FB3C
:1013800014F8010BFFF71EFB14F8010BFFF71AFB13
:1013900014F8010BFFF716FB14F8010BFFF712FB13
:1013A0004FF480510148FEF7FCFF70BD000C014076
:1013B0002DE9F04107460C4615464FF480510D4883
:1013C000FEF7EDFF3846FFF70DFB0420FFF7FAFAB2
:1013D000002605E014F8010BFFF7F4FA701C86B242
:1013E000AE42F7DB4FF480510248FEF7DAFFBDE86A
:1013F000F0810000000C014002E008C8121F08C183
:10140000002AFAD170477047002001E001C1121F85
:10141000002AFBD170470000FFF7D6FCFEF7C6FF9D
:10142000FFF7AEFDFFF708FE2EE0FFF761FEFFF7C6
:101430000DFE1648007800F0010048B1134800780E
:1014400020F00100114908700020FFF753F81BE05D
:101450000F480068B0F5FA7F16D30E4800780328CD
:101460000FD10A48007820F00200084908701822BD
:1014700009A11048FEF756FE18220E490020FFF77A
:101480006DFE002002490860CFE700002200002026
:1014900028000020210000200D0AC4E3BAC3A3AC39
:1014A000D0A1D6FABFC6BCBCA3A1A3A1A3A10D0A1B
:1014B000000000002C080020D814000800000020C4
:1014C0002C000000F8130008041500082C00002070
:1014D00004140000081400080000000000000000D0
:1014E00000000000000000000000000000000000FC
:1014F00000000000000000000300000000000000E9
:0415000000000000E7
:04000005080000ED02
:00000001FF
