:020000040800F2
:10000000380F0020890100089F0E0008790D0008B4
:100010009D0E000891020008171000080000000063
:10002000000000000000000000000000B10F000808
:100030009302000800000000A10E0008B30F0008A2
:10004000A3010008A3010008A3010008A301000800
:10005000A3010008A3010008A3010008A3010008F0
:10006000A3010008A3010008A3010008A3010008E0
:10007000A3010008A3010008A3010008A3010008D0
:10008000A3010008A3010008A3010008A3010008C0
:10009000A3010008A3010008A3010008A3010008B0
:1000A000A3010008A3010008A3010008A3010008A0
:1000B000A3010008A3010008A3010008A301000890
:1000C000A3010008A3010008A3010008A301000880
:1000D000A3010008A3010008A3010008A301000870
:1000E000A3010008A3010008A301000800F002F822
:1000F00000F03AF80AA090E8000C82448344AAF188
:100100000107DA4501D100F02FF8AFF2090EBAE885
:100110000F0013F0010F18BFFB1A43F0010318473B
:10012000FC1E00001C1F0000103A24BF78C878C1D4
:10013000FAD8520724BF30C830C144BF04680C60ED
:10014000704700000023002400250026103A28BF35
:1001500078C1FBD8520728BF30C148BF0B60704739
:100160001FB51FBD10B510BD00F058F81146FFF7C0
:10017000F7FF01F07BFA00F076F803B4FFF7F2FF27
:1001800003BC00F07FF80000094880470948004799
:10019000FEE7FEE7FEE7FEE7FEE7FEE7FEE7FEE737
:1001A000FEE7FEE704480549054A064B7047000094
:1001B00015100008ED00000838090020380F002055
:1001C000380B0020380B00204FF0000200B513461A
:1001D00094469646203922BFA0E80C50A0E80C5067
:1001E000B1F12001BFF4F7AF090728BFA0E80C5018
:1001F00048BF0CC05DF804EB890028BF40F8042B11
:1002000008BF704748BF20F8022B11F0804F18BF7D
:1002100000F8012B7047704770477047754600F033
:100220002BF8AE4605006946534620F00700854688
:1002300018B020B5FFF7B6FFBDE820404FF000062C
:100240004FF000074FF000084FF0000B21F00701BE
:10025000AC46ACE8C009ACE8C009ACE8C009ACE801
:10026000C0098D46704710B50446AFF300802046A4
:10027000BDE81040FFF781BF00487047D408002058
:100280007047000001491820ABBEFEE726000200BF
:10029000FEE7704772B6FEE72DE9F84FDFF8B89138
:1002A0000024A9F1040B23460F2709F1040AABF13E
:1002B000040EC9E00125A5402A40AA427DD1674E1F
:1002C000D1F804C0ACEB0608B44532D014DCBCF164
:1002D000030F3AD009DCBCF1000F2AD0BCF1010FAA
:1002E0001CD0BCF1020F31D11DE0BCF1110F17D0B1
:1002F000BCF1120F2AD119E0B8F5881F19D006DC1D
:10030000B8F5803F15D0B8F5801F1FD111E0B8F5C2
:10031000001F0ED0B8F5041F18D10AE0CB6815E015
:10032000CB681B1D12E0CB6808330FE0CB680C33A1
:100330000CE08B682BB1012B4FF0080303D0456113
:1003400004E0042302E0056100E00023FF2A01D855
:10035000064601E000F104064FEA840501D9A5F143
:100360002005D6F8008007FA05FC28EA0C0803FAF5
:1003700005F548EA0508C6F800804D68ED0062D52D
:10038000374DAE6946F00106AE61AD6924F0030653
:1003900005F001050095334D06EB050CDCF808501F
:1003A000A607360F07FA06F825EA0805DFF8B88031
:1003B000404503D14FF0000817E044E0DFF8AC807F
:1003C000404502D14FF001080FE0DFF8A48040451E
:1003D00002D14FF0020808E0DFF89880404502D1D2
:1003E0004FF0030801E04FF0040808FA06F848EA65
:1003F0000508CCF808804D68D9F80060ED024D463C
:1004000001D5164300E096432E604D68DAF800608F
:10041000AD02554601D5164300E096432E604D6867
:10042000DBF80060AD035D4601D5164300E096435E
:100430002E604D68DEF80060ED03754601D5164369
:1004400000E096432E60641C0D682A46E5407FF468
:1004500031AFBDE8F88F0000080401400000111022
:10046000001002400000014000080140000C014063
:1004700000100140001401400AB1016170470904F5
:10048000FBE700000148806870470000180000206A
:10049000024881680278114481607047180000208A
:1004A000074810B5016841F010010160032000F019
:1004B00067F80F2000F006F800F024F8002010BDC7
:1004C0000020024070B50D4D04464FF47A71287833
:1004D000B1FBF0F00A490968B1FBF0F000F038FC1C
:1004E00048B9102C07D200222146501E00F028F8EF
:1004F00000206C6070BD012070BD0000180000205D
:10050000240000200C4808B5816941F00101816197
:10051000816901F001010091C16941F08051C1611F
:10052000C06900F0805000900448416821F0E0610B
:1005300041F00071416008BD001002400000014020
:10054000F0B40E4B1B680C46C3F30223C3F107053E
:10055000042D00D90425191D072901D2002300E02C
:10056000DB1E012606FA05F1491E214099409E40F6
:10057000761E16403143F0BC00F06CBE0CED00E07E
:10058000064900F0070208684FF6FF03184040EAEA
:100590000220034A10430860704700000CED00E0A1
:1005A0000000FA052DE9F0470F46050061D0434EE3
:1005B000306800F00700B84209D2306820F0070028
:1005C00038433060306800F00700B84251D12868E5
:1005D0003B4C810712D5400703D5606840F4E060CA
:1005E00060602878000703D5606840F46050606060
:1005F0006068A96820F0F000084360602878C007B0
:1006000028D06868012810D02168022810D08907F6
:1006100000292EDA616821F0030101436160FFF7D0
:1006200031FF804641F288390DE021688903EFE708
:100630008901EDE7FFF726FFA0EB0801494502D944
:100640000320BDE8F0876068696800F00C00B0EB3B
:10065000810FEFD1306800F00700B8420BD9306845
:1006600020F0070038433060306800F00700B842DF
:1006700001D00120E5E72878400705D56068E968E2
:1006800020F4E060084360602878000706D56068C1
:10069000296920F4605040EAC100606000F018F859
:1006A0006168084AC1F30311515CC84006490860FB
:1006B00006480068FFF706FF0020C2E7002002405E
:1006C00000100240FA1F0008240000201C00002037
:1006D0000E4A51680E4801F00C03042B11D0082B70
:1006E0000FD10C48C1F38343C903C05C0AD55168DC
:1006F000084AC1F34041921E515C054A5043B0FB89
:10070000F1F0704704494843704700000010024070
:1007100000127A00EA1F000800093D002DE9F84F99
:10072000040070D02078C04DC00749D06868C0F37D
:100730008100012807D06868C0F38100022809D130
:100740006868C00306D52868800339D5606800282A
:10075000E7D035E06068B0F5803F0BD010B1B0F560
:10076000A02F11D0286820F480302860286820F459
:10077000802002E0286840F480302860606890B1F2
:10078000FFF780FE06460AE0286840F480202860D3
:10079000F0E700BFFFF776FE801B642873D8286857
:1007A0008003F7D50CE0FFF76DFE064605E000BFBD
:1007B000FFF768FE801B6428F0D828688003F7D410
:1007C00020789A4E80074FF001094FF0000839D584
:1007D000686810F00C0F07D06868C0F38100022829
:1007E00009D16868C00306D42868800714D5206939
:1007F000012808D110E02069B0B1C6F80090FFF7D9
:1008000041FE074605E00AE1FFF73CFEC01B022857
:10081000C4D828688007F7D52868616920F0F800F7
:1008200040EAC10028600DE0C6F80080FFF72AFE0C
:10083000074604E0FFF726FEC01B022823D82868DD
:100840008007F7D4207800072CD57948A169D9B161
:10085000C0F80090FFF716FE074604E0FFF712FE0F
:10086000C01B02280FD8686A8007F7D571484FF47B
:10087000FA510068B0FBF1F0009000BF0098411EF3
:100880000091FAD20EE080E0C0F80080FFF7FAFD98
:10089000074604E0FFF7F6FDC01B022875D8686A1A
:1008A0008007F7D42078400760D5E8690027C000AA
:1008B00008D4E86940F08050E861E869012700F059
:1008C000805000905C480168C90513D401688346D4
:1008D00041F480710160FFF7D5FD824606E000BF5C
:1008E000FFF7D0FDA0EB0A0064284ED8DBF800002B
:1008F000C005F5D5E06801280AD008B1052813D055
:10090000286A20F001002862286A20F0040002E032
:10091000286A40F001002862E06841F2883B98B103
:10092000FFF7B0FD82460BE0286A40F00400286221
:10093000EEE700BFFFF7A6FDA0EB0A0159455AD824
:10094000286A8007F6D50CE0FFF79CFD824605E09B
:10095000FFF798FDA0EB0A0159454CD8286A80079B
:10096000F6D41FB1E86920F08050E861E06988B3EF
:100970006968C1F38101022944D00228C6F8608069
:1009800004D0FFF77FFD044638E034E0FFF77AFD3E
:10099000074604E0FFF776FDC01B02282BD8286825
:1009A0008001F7D4206AB0F5803F05D16868A1685E
:1009B00020F4003008436860D4E9080108436968FE
:1009C00021F4741108436860C6F86090FFF75AFD7F
:1009D000044606E025E000BFFFF754FD001B022897
:1009E00009D828688001F7D51BE000BFFFF74AFD52
:1009F000001B022802D90320BDE8F88F2868800177
:100A0000F4D40EE00128F7D06868226A00F480313F
:100A1000914204D1616A00F47010884201D0012033
:100A2000EAE70020E8E70000001002400000424230
:100A300080044242240000200070004070B5040091
:100A400009D0606A002540B125616561A56294F80E
:100A5000510040B10CE0012070BD6068B0F5827FAC
:100A6000F4D0E561F2E784F85050204600F040F8F9
:100A7000022084F851002068016821F040010160E3
:100A8000A088218900F4827001F404410843A189FF
:100A900001F400610843217C01F002010843217D3B
:100AA00001F001010843218B01F400710843217F0B
:100AB00001F03801084394F8201001F08001084348
:100AC000218D01F40051084321680860A0690421C8
:100AD00001EA1040216848602068C16921F4006182
:100AE000C1616565012084F85100002070BD0000DF
:100AF00030B585B0002400940194029403940068FA
:100B00001449884223D11448816941F4805181619C
:100B1000816901F480510491816941F0040181618E
:100B200080690E4D00F004000490A0200090022087
:100B300001900320039069462846FFF7ADFB402053
:100B4000CDE90004694628460294FFF7A5FB05B0ED
:100B500030BD00000030014000100240000801409C
:100B60002DE9FF4F81B01D46934604464FF0010921
:100B70000E9EFFF787FC074694F851006168012834
:100B800006D0B1F5827F3CD1A168C9BB042838D119
:100B90000298002871D0BBF1000FFBD0002DF9D0D6
:100BA00094F8500001282CD04FF0010A84F850A08E
:100BB00094F85100042802D0052084F851004FF029
:100BC0000008C4F85480C4F838B0E587A5870299B6
:100BD0002163E586A586C4F84080C4F84480206877
:100BE0000168490603D4016841F040010160E068F2
:100BF000B0F5006F606808D0F0B3012D49D081E0F6
:100C0000FFE7022005B0BDE8F08F08B1012D39D112
:100C1000206B21680088C860206B801C2063E08EF8
:100C2000401EE0862EE02068816889070FD5E18E9E
:100C300069B1B9F1010F0AD1216B0988C160206B3C
:100C4000801C2063E08E401EE0864FF00009206883
:100C50008168C9070CD0E18F51B1C068A16B0880D1
:100C6000A06B801CA063E08F401EE0874FF001095D
:100C7000FFF708FCC01B01E00BE067E0B04201D3C6
:100C8000701C50D1E08E0028CDD1E08F0028CAD151
:100C90003EE0206B216800780873206B401C2063C5
:100CA000E08E401EE0862DE02068816889070FD520
:100CB000E18E69B1B9F1010F0AD1216B0978017395
:100CC000206B401C2063E08E401EE0864FF0000940
:100CD00020688168C9070CD0E18F51B1C068A16B51
:100CE0000870A06B401CA063E08F401EE0874FF0AF
:100CF0000109FFF7C7FBC01BB04202D3701C01D033
:100D000011E086B1E08E0028CED1E08F0028CBD153
:100D10003A463146204600F0D5F850B120206065B3
:100D200084F8508012E084F851A084F850800320A9
:100D300068E7A06818B92068C1688068009084F8E6
:100D400051A084F85080606D0028F1D0012059E74F
:100D500010B5401EB0F1807F01D3012010BD4FF0CF
:100D6000E02460610F21601700F074FA0020A06198
:100D700007202061002010BDFEE700002DE9F043B0
:100D800085B000252F48009501950295039581694E
:100D900041F010018161816901F0100104918169C4
:100DA00041F020018161816901F020010491816994
:100DB00041F004018161816901F0040104918169BC
:100DC00041F00801816180691F4F00F008004FF475
:100DD00000460490002231463846FFF74DFBDFF80D
:100DE0006C80002210214046FFF746FBDFF8609040
:100DF000002230214846FFF73FFB7010CDE9000587
:100E00000124694602943846FFF746FACDE90064AA
:100E10000226CDE9024669463846FFF73DFA102022
:100E20008DE851000320039069464046FFF734FAED
:100E300030208DE8710069464846FFF72DFA05B06D
:100E4000BDE8F0830010024000100140000801409E
:100E5000000C0140104810B50E4901604FF482713A
:100E6000416000218160C1604FF400720161C0E9FE
:100E700005120822C0E90721416281620A21C1628C
:100E8000FFF7DCFD002803D0BDE81040FFF702BAF1
:100E900010BD0000003001406C080020FEE7FEE7B6
:100EA0007047000001B582B064200090012301AAC0
:100EB00002A90348FFF754FE9DF804000EBD000090
:100EC0006C080020F8B515460E460B460092044605
:100ED0000122022100F010F840B93346002280219F
:100EE0002046009500F008F8002804D0606D40F01E
:100EF000200060650320F8BD2DE9F8431E469146A9
:100F000088460446089DFFF7BDFA401B351AFFF7D7
:100F1000B9FA074625480068C0F3CB30684338E08B
:100F2000701C37D0FFF7AEFAC01BA84203D215B130
:100F3000009860B32CE02068416821F0E001416036
:100F40006068B0F5827F0BD1A068B0F5004F02D089
:100F5000B0F5806F04D12068016821F04001016084
:100F6000A06AB0F5005F09D12068016821F4005142
:100F700001602068016841F400510160012084F89B
:100F80005100002084F850000320BDE8F8830025BC
:100F9000401E00902068816838EA010004D00021DA
:100FA0004945BDD10020F0E70121F9E724000020E8
:100FB0007047FFF76DBA30B58FB028216846FFF74C
:100FC00003F914210AA8FFF7FFF801210804CDE96D
:100FD00000100024029402250491CDE907504FF43B
:100FE000E01009906846FFF799FB08B172B6FEE77A
:100FF0000F20CDE90A054FF48060CDE90C400221B5
:101000000AA80E94FFF7CEFA002801D072B6FEE7C8
:101010000FB030BD7047FEE77FB51C4B0FCB8DE89E
:101020000F00012210211A48FFF726FA194D4FF43C
:101030000044002221462846FFF71EFAFF22521ED6
:10104000D2B2FCD2012221462846FFF715FA1249F6
:10105000124800F0D5FB1249124800F0E3FB124998
:10106000124800F0F5FB1249124800F0B7FB694640
:10107000012000F05FF9401C06D04FF4645000F0EE
:101080001BF8042801D0FEE7FEE77FBD0C20000816
:101090000008014000100140C91B0008391D00086C
:1010A000871E0008151D00088B1E00081B1D000868
:1010B000B91A0008B51A0008F8B5144C0546E068DE
:1010C000804760698047616AC5F30740C5F307261A
:1010D00099B1A26A8AB18DF800008DF801608DF88F
:1010E0000250032168469047E06980470546A069A1
:1010F0008047206980472846F8BD216A8847216AD1
:1011000030468847216AE8B28847EDE73000002082
:101110002DE9F8431A4C05461746E0688846804793
:1011200060698047616AC5F30740C5F30726A1B12E
:10113000A26A92B18DF800008DF801608DF802501E
:10114000032168469047626A394640469047A06945
:10115000804720698047BDE8F883216A8847216A73
:1011600030468847216AE8B28847002505E0E069F3
:10117000804708F805006D1CADB2BD42F7D3E6E725
:1011800030000020F8B5164C05460E46E068804752
:1011900060698047A26A45F004058AB1280C8DF881
:1011A0000000280A8DF801008DF802508DF80360C8
:1011B000042168469047A069804720698047F8BDB0
:1011C000216AC5F307408847216AC5F3072088478D
:1011D000216AE8B28847216A30468847EBE7000079
:1011E00030000020F8B51A4C05461646E0680F4658
:1011F000804760698047A26A45F004059AB1280CCF
:101200008DF80000280A8DF801008DF802500321A6
:1012100068469047A26A314638469047A0698047A1
:1012200020698047F8BD216AC5F307408847216AD5
:10123000C5F307208847216AE8B28847002504E003
:10124000216A785D88476D1CADB2B542F8D3E5E7F9
:10125000300000200907090E002804DB00F1E0201F
:1012600080F80014704700F00F0000F1E02080F8D3
:10127000141D704770B50446082802D94FF0FF309E
:1012800070BD4FF4847000EB441005461021FFF749
:1012900079FF2846FFF710FF0028FAD14FF40270BB
:1012A00000EB44101F21FFF76DFF0D490120A04006
:1012B0004A8882434A808A8882438A80094900207A
:1012C00021F814000649891D08554FF4427000EBBF
:1012D00044142046FFF7F0FE0028FAD1012070BD2B
:1012E0005C000020C408002010B50C4606281ED261
:1012F000DFE800F003070B101418204600F032FD61
:1013000013E0204600F086FC0FE02078BDE8104096
:1013100000F054BD00F0AAFC207006E0204600F06A
:101320005FFD02E0204600F0A4FC002010BD4FF05D
:10133000FF3010BD2DE9F0410C46002102464F1E42
:1013400008464FF498554FF4A056102A63D2DFE8B0
:1013500002F0080B17131A1E222C3645484C595020
:10136000555C00F056FD4DE014B1204604F1080133
:10137000BDE8F04100F091BC208800F003FC41E0A2
:1013800000F02AFC05E0208800F0DEFC3AE000F0E6
:1013900032FC208036E02088010A2846FFF7F2FE62
:1013A00021783046FFF7EEFE2CE03046FFF784FE52
:1013B00006462846FFF780FE06EB0020E9E71748BF
:1013C00082782270C27862700279A2704279E270EB
:1013D00082792271C0796071A17113E000F0A2FDE1
:1013E00010E0204600F0B3FD0CE0204600F05BFD6D
:1013F00008E02078BDE8F04100F0CEBD00F085FDAA
:1014000005E020700020BDE8F08100F073FDC0B25F
:1014100041B2491CF5D13846F5E700003000002004
:1014200070B50446082802D94FF0FF3070BD600146
:1014300001250830FFF740FE00F00F00012801D021
:10144000A81F70BD4FF4847000EB441006460821BD
:10145000FFF798FE3046FFF72FFE0028FAD112481A
:10146000A5408188A9438180408805420CD0002096
:1014700070BD3046FFF720FE00070DD52046FFF770
:10148000F9FE6FF00C0070BD4FF4027000EB4416D3
:101490004FF4427000EB44152846FFF70DFE00287C
:1014A000E7D1012070BD00005C0000202DE9F04173
:1014B00042F2086101EB401542F20871002601EB8F
:1014C00040142846FFF7F8FD07462046FFF7F4FDD5
:1014D00000EB072007043F0C09D02846FFF7ECFD7E
:1014E00006462046FFF7E8FD00EB062086B2BE4226
:1014F000E7D13046BDE8F0812DE9F04142F2080124
:1015000001EB401542F20811002601EB4014284679
:10151000FFF7D2FD07462046FFF7CEFD00EB072080
:1015200007043F0C09D02846FFF7C6FD06462046B3
:10153000FFF7C2FD00EB062086B2BE42E7D130467F
:10154000BDE8F08170B50446082802D94FF0FF309D
:1015500070BD60010830FFF7AFFD00F00F000128FB
:1015600002D06FF0040070BD4FF4427000EB4410E5
:101570000546FFF7A1FD132802D06FF0020070BDF1
:101580004FF4847000EB441006460221FFF7FAFD89
:101590003046FFF791FD0028FAD12846FFF78CFD71
:1015A000142805D02046FFF765FE6FF0030070BDDC
:1015B000012070BD2DE9F04106464FF442701446FB
:1015C0008846002500EB4610FFF776FDA0B31328F0
:1015D0003CD0172802D01C2846D133E04FF40270CB
:1015E00000EB46100446FFF767FDC00703D0204616
:1015F0000121FFF7C7FD3046FFF758FF040033D045
:101600004FF40060844200D90446224641463046E9
:1016100000F072F800280DDD11E0601B82B208EBCB
:101620000501304600F02AF9070006D53046FFF7DD
:1016300021FE3846BDE8F0810EE0284485B2AC4278
:10164000EBD111E03046FFF7EBFE02E03046FFF74A
:1016500079FF0128EED107E0002322460121304620
:1016600000F09AF9B042E5D10120E3E708B5FEF7B2
:1016700017FFFFF7A0FCFFF781FBFFF7EBFBFFF77E
:10168000CBFC012220210F48FEF7F6FE0E49002078
:10169000FFF72AFE01208DF800008DF803000021DD
:1016A0008DF802108DF8010069460A20FFF742FE0E
:1016B00000F00EF841F28834224604490120FFF779
:1016C00079FFF9E7000C0140000000206C000020C9
:1016D00000B589B00020009006490190FFF704FE94
:1016E00002A90120FFF700FE69460820FFF722FE4D
:1016F00009B000BD000000202DE9F74F1446054653
:10170000082803D94FF0FF30BDE8FE8F680101269D
:101710000830FFF7D1FC00F00F00012801D0B01F06
:10172000F2E724B341F6086000EB4510FFF7C4FC74
:101730004FF6FF7101EA8020A04200D204464FF428
:10174000427000EB451841F60870DFF88CA000EB02
:10175000451B06FA05F92846FFF7A8FE064640464F
:10176000FFF7AAFC172816D01C2803D00DE06FF055
:101770000D00C9E7CEB92846FFF7BEFE074658461A
:10178000FFF79AFCB7EB802F05D12846FFF772FDD3
:101790006FF00600B8E7BAF8021019EA010F02D09C
:1017A0001EB90020B0E7002ED5D0A64200D23446A4
:1017B00022462846019900F081F94FF4847000EB2D
:1017C000451005464021FFF7DDFC2846FFF774FC75
:1017D0000028FAD1204697E75C000020054A18B19E
:1017E00011B1C2E9030170470348D060034810619A
:1017F0007047000030000020BF1B0008C11B00081C
:10180000054A18B111B1C2E905017047034850619A
:10181000034890617047000030000020C51B00089D
:10182000C31B0008074A10B513889C05FDD518B1E5
:1018300011B1C2E9070110BD0348D061034810622D
:1018400010BD0000300000200B1E0008111E000813
:10185000074A10B513889C05FDD518B111B1C2E92E
:10186000090110BD034850620348906210BD00009A
:1018700030000020091E00080F1E00082DE9F05F4F
:1018800015468B460646082803D94FF0FF30BDE8C1
:10189000F09F700101240830FFF70EFC00F00F00EC
:1018A000012801D0A01FF2E775B14FF4427000EBA0
:1018B00046100746FFF700FC6FF0060A172806D00F
:1018C0001C2804D05046E2E76FF00D00DFE7DFF898
:1018D000C480B440B8F80400044213D04FF402703E
:1018E00000EB46108146FFF7E7FB00F01F00C10642
:1018F00024D548461021FFF745FCB8F80410A14351
:10190000A8F8041041F6087000EB4610FFF7D4FB6E
:101910004FF6FF7101EA8020854200D90546304626
:10192000FFF7EAFD81463846FFF7C6FB17280DD0C2
:101930001C280BD03046FFF79DFCC3E700070BD5F2
:101940003046FFF797FC6FF00C00A0E7B8F80200F4
:10195000044203D04D4501D9002098E74D45DED81B
:101960002A465946304600F0D9F84FF4847000EB0F
:10197000461006462021FFF705FC3046FFF79CFB8A
:101980000028FAD1B8F8041028460C43A8F80440FF
:101990007DE700005C0000202DE9F8431D46174656
:1019A0000E460446082803D94FF0FF30BDE8F883FF
:1019B000012E08D0022E0ED0032E0CD0042E0AD0F9
:1019C0006FF00400F2E7042269464FF47060FFF7FD
:1019D0009FFB009848B169076FF00500E6D49DB100
:1019E000012E05D0022E0FD106E06FF00200DDE7D8
:1019F00015F0210FDAD007E0A90601D52906D5D5C3
:101A0000E90601D52906D1D52046FFF733FC600150
:101A100005F0F0014FF0010831430830FFF7B2FB49
:101A2000224E57B93788781C80B2A0F57F413080AC
:101A3000F03902D14FF4404030804FF48160390AD0
:101A400000EB4410FFF79EFB4FF4A160F9B200EBEE
:101A50004410FFF797FB4FF4847000EB44100746E7
:101A60000121FFF78FFB3846FFF726FB0028FAD14C
:101A700008FA04F0718805F001028143A2400A438C
:101A80007280B1888143B1800949002021F8140097
:101A90000649891D08554FF4427000EB441528464D
:101AA000FFF70AFB0028FAD060B27FE75C00002055
:101AB000C408002072B6704762B670472DE9F0473F
:101AC0005FEA02088946064626D042F6081000EB77
:101AD00046152846FFF7F0FA074642F6080000EBE5
:101AE00046142046FFF7E8FA07EB002087B23802D9
:101AF00000EB4610424649461830FFF709FB07EB5A
:101B0000080086B2310A2046FFF73CFBF1B22846B6
:101B1000BDE8F047FFF736BBBDE8F0872DE9F04799
:101B20005FEA02088946064626D042F2085000EBDA
:101B300046152846FFF7C0FA074642F2084000EB78
:101B400046142046FFF7B8FA07EB002087B23802A8
:101B500000EB4610424649461030FFF743FB07EBC7
:101B6000080086B2310A2046FFF70CFBF1B2284686
:101B7000BDE8F047FFF706BBBDE8F0870078704787
:101B8000017070472DE9F041050A00F0F0014FF4B3
:101B9000A850FFF7F7FA002401264FF4027700BFA0
:101BA00006FA04F0284204D007EB44101F21FFF787
:101BB000E9FA641CE4B2082CF2D3BDE8F081704766
:101BC0007047704770470000012210210148FEF75E
:101BD00053BC00000008014010B54FF4A850FFF7B7
:101BE0006BFA00F0F0044FF4B850FFF765FA04EB1D
:101BF000002080B210BD10B54FF4B050FFF75CFA72
:101C000004464FF4C050FFF757FA04EB002080B2AF
:101C100010BD000010B50446014606224FF41060C6
:101C2000FFF776FA042204F10E019001FFF770FA33
:101C3000042204F10A014FF4A060FFF769FA0422BC
:101C4000A11D4FF47060FFF763FA07480178A17493
:101C50004178E17481782175C07860750248401E32
:101C60000078A07510BD0000290000200020FFF7BB
:101C700023BA70B504464FF4D850FFF71DFA207010
:101C80004FF4D050FFF718FA05464FF4C850FFF74D
:101C900013FA05EB0020608070BD2DE9F0410D4680
:101CA0000646002400F0B5F84FF0FF38AEB1002230
:101CB000B05C204444B2102C17DC521C52B2082AEB
:101CC000F6DB002441F60877315D07EB4410FFF79F
:101CD00059FA641C64B2082CF6DBCDB10021084629
:101CE0002A5C114449B2102902DD4046BDE8F0816A
:101CF000401C40B20828F3DB002441F60866295D49
:101D000006EB4410FFF73EFA641C64B2082CF6DBC5
:101D10000020EBE70020FFF7C5B870B50E4605467A
:101D2000002406E00020FFF7BDF8641C05F8010B55
:101D3000A4B2B442F6D370BD002210210148FEF7D0
:101D40009BBB00000008014010B5C1B2040A4FF46B
:101D5000B050FFF717FA2146BDE810404FF4C050CD
:101D6000FFF710BA10B50446014606224FF4106082
:101D7000FFF738FA042204F10E019001FFF732FA5E
:101D8000042204F10A014FF4A060FFF72BFA0422A9
:101D9000A11D4FF47060FFF725FA0748A17C017080
:101DA000E17C4170217D8170617DC1700249A07D1F
:101DB000491E087010BD00002900002010B504461F
:101DC00030F03A0002D04FF0FF3010BD0020FFF796
:101DD00073F940EA04010020FFF7D4F9002010BD98
:101DE00010B5044601784FF4D850FFF7CBF960885E
:101DF000010A4FF4C850FFF7C5F9A178BDE81040BB
:101E00004FF4D050FFF7BEB97047002070477047BD
:101E10007047F0B585B04FF410640622694620463D
:101E2000FFF776F90422950102A92846FFF770F919
:101E30004FF4A066042203A93046FFF769F94FF476
:101E40007067042204A93846FFF762F98021002058
:101E5000FFF798F90020FFF72FF906226946204680
:101E6000FFF7C0F9042202A92846FFF7BBF90422B4
:101E700003A93046FFF7B6F9042204A93846FFF754
:101E8000B1F905B0F0BDFFF70DB870B50E460546C7
:101E9000002405E02878FFF705F8641CA4B26D1C47
:101EA000B442F7D370BD10B504464FF43850FFF775
:101EB00003F9C0F38011217000F0380001220021E5
:101EC000202811D038280FD0617010280ED0182883
:101ED0000CD020280AD0A170082809D0182807D0D3
:101EE000202805D0E17010BD6270EEE7A270F3E724
:101EF000E27010BD10B500244FF43850FFF7DCF845
:101F0000C00700D00124204610BD10B500244FF4B6
:101F10003850FFF7D1F8C0F3C200062800D10124E1
:101F2000204610BD10B54FF438542046FFF7C4F8D2
:101F300020F080012046FFF725F92046FFF7BCF886
:101F400040F080012046BDE81040FFF71BB910B5F6
:101F500002780021012A00D140214278012A06D0CE
:101F6000C2788078012A05D001280BD00CE041F01E
:101F7000380109E0012802D041F0080104E041F0F5
:101F8000180101E041F010014FF43850FFF7FAF862
:101F9000BDE81040FFF7C6BF70B504464FF4385691
:101FA0003046FFF789F841064FF0FF351AD520F08B
:101FB0003800012C10D040F038013046FFF7E2F82D
:101FC000FFF7B0FF3046FFF777F8012C07D000F09D
:101FD000380038B1002070BD40F03001EDE700F06E
:101FE0003000F6E7284670BD01020203040506072B
:101FF00008090A0B0C0D0E0F101000000000000065
:1020000000000102030406070809000002020202A0
:102010000202020202020202020202023C20000844
:10202000000000206C00000028010008A820000823
:102030006C000020CC0E0000440100080008DC0009
:10204000ABCD0A0101C8FFFFFF000A01010108082A
:10205000080801000100000010000000000000005E
:1020600000127A0000000000000000000102573555
:102070003530300000000000BF1B0008C11B000805
:10208000C51B0008C31B00087D1B0008811B00083E
:10209000000000000000000000C000000000000080
:0820A000000000000000000038
:04000005080000ED02
:00000001FF
