:020000040800F2
:10000000400F0020890100089F0E0008790D0008AC
:100010009D0E000891020008171000080000000063
:10002000000000000000000000000000B10F000808
:100030009302000800000000A10E0008B30F0008A2
:10004000A3010008A3010008A3010008A301000800
:10005000A3010008A3010008A3010008A3010008F0
:10006000A3010008A3010008A3010008A3010008E0
:10007000A3010008A3010008A3010008A3010008D0
:10008000A3010008A3010008A3010008A3010008C0
:10009000A3010008A3010008A3010008A3010008B0
:1000A000A3010008A3010008A3010008A3010008A0
:1000B000A3010008A3010008A3010008A301000890
:1000C000A3010008A3010008A3010008A301000880
:1000D000A3010008A3010008A3010008A301000870
:1000E000A3010008A3010008A301000800F002F822
:1000F00000F03AF80AA090E8000C82448344AAF188
:100100000107DA4501D100F02FF8AFF2090EBAE885
:100110000F0013F0010F18BFFB1A43F0010318473B
:100120009C1F0000BC1F0000103A24BF78C878C193
:10013000FAD8520724BF30C830C144BF04680C60ED
:10014000704700000023002400250026103A28BF35
:1001500078C1FBD8520728BF30C148BF0B60704739
:100160001FB51FBD10B510BD00F058F81146FFF7C0
:10017000F7FF01F0CFFA00F076F803B4FFF7F2FFD3
:1001800003BC00F07FF80000094880470948004799
:10019000FEE7FEE7FEE7FEE7FEE7FEE7FEE7FEE737
:1001A000FEE7FEE704480549054A064B7047000094
:1001B00015100008ED00000840090020400F002045
:1001C000400B0020400B00204FF0000200B513460A
:1001D00094469646203922BFA0E80C50A0E80C5067
:1001E000B1F12001BFF4F7AF090728BFA0E80C5018
:1001F00048BF0CC05DF804EB890028BF40F8042B11
:1002000008BF704748BF20F8022B11F0804F18BF7D
:1002100000F8012B7047704770477047754600F033
:100220002BF8AE4605006946534620F00700854688
:1002300018B020B5FFF7B6FFBDE820404FF000062C
:100240004FF000074FF000084FF0000B21F00701BE
:10025000AC46ACE8C009ACE8C009ACE8C009ACE801
:10026000C0098D46704710B50446AFF300802046A4
:10027000BDE81040FFF781BF00487047DC08002050
:100280007047000001491820ABBEFEE726000200BF
:10029000FEE7704772B6FEE72DE9F84FDFF8B89138
:1002A0000024A9F1040B23460F2709F1040AABF13E
:1002B000040EC9E00125A5402A40AA427DD1674E1F
:1002C000D1F804C0ACEB0608B44532D014DCBCF164
:1002D000030F3AD009DCBCF1000F2AD0BCF1010FAA
:1002E0001CD0BCF1020F31D11DE0BCF1110F17D0B1
:1002F000BCF1120F2AD119E0B8F5881F19D006DC1D
:10030000B8F5803F15D0B8F5801F1FD111E0B8F5C2
:10031000001F0ED0B8F5041F18D10AE0CB6815E015
:10032000CB681B1D12E0CB6808330FE0CB680C33A1
:100330000CE08B682BB1012B4FF0080303D0456113
:1003400004E0042302E0056100E00023FF2A01D855
:10035000064601E000F104064FEA840501D9A5F143
:100360002005D6F8008007FA05FC28EA0C0803FAF5
:1003700005F548EA0508C6F800804D68ED0062D52D
:10038000374DAE6946F00106AE61AD6924F0030653
:1003900005F001050095334D06EB050CDCF808501F
:1003A000A607360F07FA06F825EA0805DFF8B88031
:1003B000404503D14FF0000817E044E0DFF8AC807F
:1003C000404502D14FF001080FE0DFF8A48040451E
:1003D00002D14FF0020808E0DFF89880404502D1D2
:1003E0004FF0030801E04FF0040808FA06F848EA65
:1003F0000508CCF808804D68D9F80060ED024D463C
:1004000001D5164300E096432E604D68DAF800608F
:10041000AD02554601D5164300E096432E604D6867
:10042000DBF80060AD035D4601D5164300E096435E
:100430002E604D68DEF80060ED03754601D5164369
:1004400000E096432E60641C0D682A46E5407FF468
:1004500031AFBDE8F88F0000080401400000111022
:10046000001002400000014000080140000C014063
:1004700000100140001401400AB1016170470904F5
:10048000FBE7000001488068704700002000002062
:100490000248816802781144816070472000002082
:1004A000074810B5016841F010010160032000F019
:1004B00067F80F2000F006F800F024F8002010BDC7
:1004C0000020024070B50D4D04464FF47A71287833
:1004D000B1FBF0F00A490968B1FBF0F000F038FC1C
:1004E00048B9102C07D200222146501E00F028F8EF
:1004F00000206C6070BD012070BD00002000002055
:100500002C0000200C4808B5816941F0010181618F
:10051000816901F001010091C16941F08051C1611F
:10052000C06900F0805000900448416821F0E0610B
:1005300041F00071416008BD001002400000014020
:10054000F0B40E4B1B680C46C3F30223C3F107053E
:10055000042D00D90425191D072901D2002300E02C
:10056000DB1E012606FA05F1491E214099409E40F6
:10057000761E16403143F0BC00F06CBE0CED00E07E
:10058000064900F0070208684FF6FF03184040EAEA
:100590000220034A10430860704700000CED00E0A1
:1005A0000000FA052DE9F0470F46050061D0434EE3
:1005B000306800F00700B84209D2306820F0070028
:1005C00038433060306800F00700B84251D12868E5
:1005D0003B4C810712D5400703D5606840F4E060CA
:1005E00060602878000703D5606840F46050606060
:1005F0006068A96820F0F000084360602878C007B0
:1006000028D06868012810D02168022810D08907F6
:1006100000292EDA616821F0030101436160FFF7D0
:1006200031FF804641F288390DE021688903EFE708
:100630008901EDE7FFF726FFA0EB0801494502D944
:100640000320BDE8F0876068696800F00C00B0EB3B
:10065000810FEFD1306800F00700B8420BD9306845
:1006600020F0070038433060306800F00700B842DF
:1006700001D00120E5E72878400705D56068E968E2
:1006800020F4E060084360602878000706D56068C1
:10069000296920F4605040EAC100606000F018F859
:1006A0006168084AC1F30311515CC84006490860FB
:1006B00006480068FFF706FF0020C2E7002002405E
:1006C000001002409A2000082C0000202400002086
:1006D0000E4A51680E4801F00C03042B11D0082B70
:1006E0000FD10C48C1F38343C903C05C0AD55168DC
:1006F000084AC1F34041921E515C054A5043B0FB89
:10070000F1F0704704494843704700000010024070
:1007100000127A008A20000800093D002DE9F84FF8
:10072000040070D02078C04DC00749D06868C0F37D
:100730008100012807D06868C0F38100022809D130
:100740006868C00306D52868800339D5606800282A
:10075000E7D035E06068B0F5803F0BD010B1B0F560
:10076000A02F11D0286820F480302860286820F459
:10077000802002E0286840F480302860606890B1F2
:10078000FFF780FE06460AE0286840F480202860D3
:10079000F0E700BFFFF776FE801B642873D8286857
:1007A0008003F7D50CE0FFF76DFE064605E000BFBD
:1007B000FFF768FE801B6428F0D828688003F7D410
:1007C00020789A4E80074FF001094FF0000839D584
:1007D000686810F00C0F07D06868C0F38100022829
:1007E00009D16868C00306D42868800714D5206939
:1007F000012808D110E02069B0B1C6F80090FFF7D9
:1008000041FE074605E00AE1FFF73CFEC01B022857
:10081000C4D828688007F7D52868616920F0F800F7
:1008200040EAC10028600DE0C6F80080FFF72AFE0C
:10083000074604E0FFF726FEC01B022823D82868DD
:100840008007F7D4207800072CD57948A169D9B161
:10085000C0F80090FFF716FE074604E0FFF712FE0F
:10086000C01B02280FD8686A8007F7D571484FF47B
:10087000FA510068B0FBF1F0009000BF0098411EF3
:100880000091FAD20EE080E0C0F80080FFF7FAFD98
:10089000074604E0FFF7F6FDC01B022875D8686A1A
:1008A0008007F7D42078400760D5E8690027C000AA
:1008B00008D4E86940F08050E861E869012700F059
:1008C000805000905C480168C90513D401688346D4
:1008D00041F480710160FFF7D5FD824606E000BF5C
:1008E000FFF7D0FDA0EB0A0064284ED8DBF800002B
:1008F000C005F5D5E06801280AD008B1052813D055
:10090000286A20F001002862286A20F0040002E032
:10091000286A40F001002862E06841F2883B98B103
:10092000FFF7B0FD82460BE0286A40F00400286221
:10093000EEE700BFFFF7A6FDA0EB0A0159455AD824
:10094000286A8007F6D50CE0FFF79CFD824605E09B
:10095000FFF798FDA0EB0A0159454CD8286A80079B
:10096000F6D41FB1E86920F08050E861E06988B3EF
:100970006968C1F38101022944D00228C6F8608069
:1009800004D0FFF77FFD044638E034E0FFF77AFD3E
:10099000074604E0FFF776FDC01B02282BD8286825
:1009A0008001F7D4206AB0F5803F05D16868A1685E
:1009B00020F4003008436860D4E9080108436968FE
:1009C00021F4741108436860C6F86090FFF75AFD7F
:1009D000044606E025E000BFFFF754FD001B022897
:1009E00009D828688001F7D51BE000BFFFF74AFD52
:1009F000001B022802D90320BDE8F88F2868800177
:100A0000F4D40EE00128F7D06868226A00F480313F
:100A1000914204D1616A00F47010884201D0012033
:100A2000EAE70020E8E70000001002400000424230
:100A3000800442422C0000200070004070B5040089
:100A400009D0606A002540B125616561A56294F80E
:100A5000510040B10CE0012070BD6068B0F5827FAC
:100A6000F4D0E561F2E784F85050204600F040F8F9
:100A7000022084F851002068016821F040010160E3
:100A8000A088218900F4827001F404410843A189FF
:100A900001F400610843217C01F002010843217D3B
:100AA00001F001010843218B01F400710843217F0B
:100AB00001F03801084394F8201001F08001084348
:100AC000218D01F40051084321680860A0690421C8
:100AD00001EA1040216848602068C16921F4006182
:100AE000C1616565012084F85100002070BD0000DF
:100AF00030B585B0002400940194029403940068FA
:100B00001449884223D11448816941F4805181619C
:100B1000816901F480510491816941F0040181618E
:100B200080690E4D00F004000490A0200090022087
:100B300001900320039069462846FFF7ADFB402053
:100B4000CDE90004694628460294FFF7A5FB05B0ED
:100B500030BD00000030014000100240000801409C
:100B60002DE9FF4F81B01D46934604464FF0010921
:100B70000E9EFFF787FC074694F851006168012834
:100B800006D0B1F5827F3CD1A168C9BB042838D119
:100B90000298002871D0BBF1000FFBD0002DF9D0D6
:100BA00094F8500001282CD04FF0010A84F850A08E
:100BB00094F85100042802D0052084F851004FF029
:100BC0000008C4F85480C4F838B0E587A5870299B6
:100BD0002163E586A586C4F84080C4F84480206877
:100BE0000168490603D4016841F040010160E068F2
:100BF000B0F5006F606808D0F0B3012D49D081E0F6
:100C0000FFE7022005B0BDE8F08F08B1012D39D112
:100C1000206B21680088C860206B801C2063E08EF8
:100C2000401EE0862EE02068816889070FD5E18E9E
:100C300069B1B9F1010F0AD1216B0988C160206B3C
:100C4000801C2063E08E401EE0864FF00009206883
:100C50008168C9070CD0E18F51B1C068A16B0880D1
:100C6000A06B801CA063E08F401EE0874FF001095D
:100C7000FFF708FCC01B01E00BE067E0B04201D3C6
:100C8000701C50D1E08E0028CDD1E08F0028CAD151
:100C90003EE0206B216800780873206B401C2063C5
:100CA000E08E401EE0862DE02068816889070FD520
:100CB000E18E69B1B9F1010F0AD1216B0978017395
:100CC000206B401C2063E08E401EE0864FF0000940
:100CD00020688168C9070CD0E18F51B1C068A16B51
:100CE0000870A06B401CA063E08F401EE0874FF0AF
:100CF0000109FFF7C7FBC01BB04202D3701C01D033
:100D000011E086B1E08E0028CED1E08F0028CBD153
:100D10003A463146204600F0D5F850B120206065B3
:100D200084F8508012E084F851A084F850800320A9
:100D300068E7A06818B92068C1688068009084F8E6
:100D400051A084F85080606D0028F1D0012059E74F
:100D500010B5401EB0F1807F01D3012010BD4FF0CF
:100D6000E02460610F21601700F074FA0020A06198
:100D700007202061002010BDFEE700002DE9F043B0
:100D800085B000252F48009501950295039581694E
:100D900041F010018161816901F0100104918169C4
:100DA00041F020018161816901F020010491816994
:100DB00041F004018161816901F0040104918169BC
:100DC00041F00801816180691F4F00F008004FF475
:100DD00000460490002231463846FFF74DFBDFF80D
:100DE0006C80002210214046FFF746FBDFF8609040
:100DF000002230214846FFF73FFB7010CDE9000587
:100E00000124694602943846FFF746FACDE90064AA
:100E10000226CDE9024669463846FFF73DFA102022
:100E20008DE851000320039069464046FFF734FAED
:100E300030208DE8710069464846FFF72DFA05B06D
:100E4000BDE8F0830010024000100140000801409E
:100E5000000C0140104810B50E4901604FF482713A
:100E6000416000218160C1604FF400720161C0E9FE
:100E700005120822C0E90721416281620A21C1628C
:100E8000FFF7DCFD002803D0BDE81040FFF702BAF1
:100E900010BD00000030014074080020FEE7FEE7AE
:100EA0007047000001B582B064200090012301AAC0
:100EB00002A90348FFF754FE9DF804000EBD000090
:100EC00074080020F8B515460E460B4600920446FD
:100ED0000122022100F010F840B93346002280219F
:100EE0002046009500F008F8002804D0606D40F01E
:100EF000200060650320F8BD2DE9F8431E469146A9
:100F000088460446089DFFF7BDFA401B351AFFF7D7
:100F1000B9FA074625480068C0F3CB30684338E08B
:100F2000701C37D0FFF7AEFAC01BA84203D215B130
:100F3000009860B32CE02068416821F0E001416036
:100F40006068B0F5827F0BD1A068B0F5004F02D089
:100F5000B0F5806F04D12068016821F04001016084
:100F6000A06AB0F5005F09D12068016821F4005142
:100F700001602068016841F400510160012084F89B
:100F80005100002084F850000320BDE8F8830025BC
:100F9000401E00902068816838EA010004D00021DA
:100FA0004945BDD10020F0E70121F9E72C000020E0
:100FB0007047FFF76DBA30B58FB028216846FFF74C
:100FC00003F914210AA8FFF7FFF801210804CDE96D
:100FD00000100024029402250491CDE907504FF43B
:100FE000E01009906846FFF799FB08B172B6FEE77A
:100FF0000F20CDE90A054FF48060CDE90C400221B5
:101000000AA80E94FFF7CEFA002801D072B6FEE7C8
:101010000FB030BD7047FEE77FB51C4B0FCB8DE89E
:101020000F00012210211A48FFF726FA194D4FF43C
:101030000044002221462846FFF71EFAFF22521ED6
:10104000D2B2FCD2012221462846FFF715FA1249F6
:10105000124800F025FC1249124800F033FC1249F6
:10106000124800F045FC1249124800F007FC69469E
:10107000012000F0E3F9401C06D04FF4645000F06A
:101080001BF8042801D0FEE7FEE77FBDAC20000876
:101090000008014000100140691C0008D91D00082B
:1010A000271F0008B51D00082B1F0008BB1D0008E6
:1010B000591B0008551B0008F8B5144C0546E0689C
:1010C000804760698047616AC5F30740C5F307261A
:1010D00099B1A26A8AB18DF800008DF801608DF88F
:1010E0000250032168469047E06980470546A069A1
:1010F0008047206980472846F8BD216A8847216AD1
:1011000030468847216AE8B28847EDE7380000207A
:101110002DE9F8431A4C05461746E0688846804793
:1011200060698047616AC5F30740C5F30726A1B12E
:10113000A26A92B18DF800008DF801608DF802501E
:10114000032168469047626A394640469047A06945
:10115000804720698047BDE8F883216A8847216A73
:1011600030468847216AE8B28847002505E0E069F3
:10117000804708F805006D1CADB2BD42F7D3E6E725
:1011800038000020F8B5164C05460E46E06880474A
:1011900060698047A26A45F004058AB1280C8DF881
:1011A0000000280A8DF801008DF802508DF80360C8
:1011B000042168469047A069804720698047F8BDB0
:1011C000216AC5F307408847216AC5F3072088478D
:1011D000216AE8B28847216A30468847EBE7000079
:1011E00038000020F8B51A4C05461646E0680F4650
:1011F000804760698047A26A45F004059AB1280CCF
:101200008DF80000280A8DF801008DF802500321A6
:1012100068469047A26A314638469047A0698047A1
:1012200020698047F8BD216AC5F307408847216AD5
:10123000C5F307208847216AE8B28847002504E003
:10124000216A785D88476D1CADB2B542F8D3E5E7F9
:10125000380000200907090E002804DB00F1E02017
:1012600080F80014704700F00F0000F1E02080F8D3
:10127000141D704770B50446082802D94FF0FF309E
:1012800070BD4FF4847000EB441005461021FFF749
:1012900079FF2846FFF710FF0028FAD14FF40270BB
:1012A00000EB44101F21FFF76DFF0D490120A04006
:1012B0004A8882434A808A8882438A80094900207A
:1012C00021F814000649891D08554FF4427000EBBF
:1012D00044142046FFF7F0FE0028FAD1012070BD2B
:1012E00064000020CC0800202DE9F04117460E468E
:1012F0000446082803D94FF0FF30BDE8F0816001B3
:101300004FF001080830FFF7D7FE00F00F0001286A
:1013100002D06FF00400F0E74FF4427000EB44108D
:101320000546FFF7C9FE132802D06FF00200E4E77C
:101330003078717801EB0020B17801EB0020F17872
:1013400001EB0020411C2CD058B36FB340F608408D
:1013500000EB441004223146FFF744FF41F208003D
:10136000390A00EB4410FFF70DFF41F20810F9B203
:1013700000EB4410FFF706FF4FF4847000EB4410BD
:1013800006460421FFF7FEFE3046FFF795FE0028D3
:10139000FAD1164908FA04F0498808421AD0002008
:1013A000ABE76FF00B00A8E76FF00A00A5E7204657
:1013B000FFF782FE000706D520460821FFF7E2FE70
:1013C0006FF00C0099E72846FFF776FE30B96FF012
:1013D000030092E74FF4027000EB44142846FFF735
:1013E0006BFE1728E3D1012087E70000640000208E
:1013F00010B50C4606281ED2DFE800F003070B10DC
:101400001418204600F0FEFC13E0204600F052FCC9
:101410000FE02078BDE8104000F020BD00F076FC21
:10142000207006E0204600F02BFD02E0204600F090
:1014300070FC002010BD4FF0FF3010BD2DE9F041D1
:101440000C46002102464F1E08464FF498554FF4B3
:10145000A056102A63D2DFE802F0080B17131A1EF9
:10146000222C3645484C5950555C00F022FD4DE089
:1014700014B1204604F10801BDE8F04100F05DBC64
:10148000208800F0CFFB41E000F0F6FB05E020886B
:1014900000F0AAFC3AE000F0FEFB208036E0208855
:1014A000010A2846FFF76EFE21783046FFF76AFEF4
:1014B0002CE03046FFF700FE06462846FFF7FCFD0D
:1014C00006EB0020E9E7174882782270C278627044
:1014D0000279A2704279E27082792271C0796071DA
:1014E000A17113E000F06EFD10E0204600F07FFDDA
:1014F0000CE0204600F027FD08E02078BDE8F04130
:1015000000F09ABD00F051FD05E020700020BDE81C
:10151000F08100F03FFDC0B241B2491CF5D1384620
:10152000F5E700003800002070B50446082802D90D
:101530004FF0FF3070BD600101250830FFF7BCFDA2
:1015400000F00F00012801D0A81F70BD4FF4847077
:1015500000EB441006460821FFF714FE3046FFF763
:10156000ABFD0028FAD11248A5408188A9438180AB
:10157000408805420CD0002070BD3046FFF79CFD2E
:1015800000070DD52046FFF775FE6FF00C0070BD0B
:101590004FF4027000EB44164FF4427000EB441518
:1015A0002846FFF789FD0028E7D1012070BD000023
:1015B000640000202DE9F04142F2086101EB401582
:1015C00042F20871002601EB40142846FFF774FD33
:1015D00007462046FFF770FD00EB072007043F0C8D
:1015E00009D02846FFF768FD06462046FFF764FD50
:1015F00000EB062086B2BE42E7D13046BDE8F0815E
:101600002DE9F04142F2080101EB401542F20811C8
:10161000002601EB40142846FFF74EFD0746204602
:10162000FFF74AFD00EB072007043F0C09D02846CE
:10163000FFF742FD06462046FFF73EFD00EB062081
:1016400086B2BE42E7D13046BDE8F0812DE9F047D1
:1016500006464FF442701F4691468846002441F2E8
:10166000883500EB4610FFF727FDA0B313283CD0C8
:10167000172802D01C284BD133E04FF4027000EB46
:1016800046100546FFF718FDC00703D02846012184
:10169000FFF778FD3046FFF78DFF020038D04FF49A
:1016A0000060824200D902464146304600F074F89C
:1016B00000280EDD87B211E0381B82B208EB04016E
:1016C000304600F02BF9050006D53046FFF7D2FD75
:1016D0002846BDE8F08710E0204484B2A742EBD151
:1016E00016E03046FFF720FF04E03A464946304610
:1016F000FFF7FAFD0128ECD10AE03046FFF7BAFD0A
:101700002A4620230121304600F096F9B042E0D16C
:101710000120DEE708B5FEF7C3FEFFF74CFCFFF73C
:101720002DFBFFF797FBFFF777FC0F490020FFF732
:101730005FFE01208DF800008DF8030000218DF878
:1017400002108DF8010069460A20FFF777FE00F0CD
:101750000FF8054CA41F044A2388121F03490120D7
:10176000FFF774FFF7E70000060000207400002078
:1017700000B589B00020009006490190FFF738FEBF
:1017800002A90120FFF734FE69460820FFF756FE44
:1017900009B000BD060000202DE9F74F14460546AC
:1017A000082803D94FF0FF30BDE8FE8F68010126FD
:1017B0000830FFF781FC00F00F00012801D0B01FB6
:1017C000F2E724B341F6086000EB4510FFF774FC24
:1017D0004FF6FF7101EA8020A04200D204464FF488
:1017E000427000EB451841F60870DFF88CA000EB62
:1017F000451B06FA05F92846FFF7DCFE064640467B
:10180000FFF75AFC172816D01C2803D00DE06FF004
:101810000D00C9E7CEB92846FFF7F2FE0746584645
:10182000FFF74AFCB7EB802F05D12846FFF722FDD2
:101830006FF00600B8E7BAF8021019EA010F02D0FB
:101840001EB90020B0E7002ED5D0A64200D2344603
:1018500022462846019900F081F94FF4847000EB8C
:10186000451005464021FFF78DFC2846FFF724FC74
:101870000028FAD1204697E764000020054A18B1F5
:1018800011B1C2E9030170470348D06003481061F9
:1018900070470000380000205F1C0008611C000831
:1018A000054A18B111B1C2E90501704703485061FA
:1018B000034890617047000038000020651C000854
:1018C000631C0008074A10B513889C05FDD518B1A4
:1018D00011B1C2E9070110BD0348D061034810628D
:1018E00010BD000038000020AB1E0008B11E00082B
:1018F000074A10B513889C05FDD518B111B1C2E98E
:10190000090110BD034850620348906210BD0000F9
:1019100038000020A91E0008AF1E00082DE9F05F66
:1019200015468B460646082803D94FF0FF30BDE820
:10193000F09F700101240830FFF7BEFB00F00F009C
:10194000012801D0A01FF2E775B14FF4427000EBFF
:1019500046100746FFF7B0FB6FF0060A172806D0BF
:101960001C2804D05046E2E76FF00D00DFE7DFF8F7
:10197000C480B440B8F80400044213D04FF402709D
:1019800000EB46108146FFF797FB00F01F00C106F1
:1019900024D548461021FFF7F5FBB8F80410A14301
:1019A000A8F8041041F6087000EB4610FFF784FB1E
:1019B0004FF6FF7101EA8020854200D90546304686
:1019C000FFF71EFE81463846FFF776FB17280DD03D
:1019D0001C280BD03046FFF74DFCC3E700070BD5A2
:1019E0003046FFF747FC6FF00C00A0E7B8F80200A4
:1019F000044203D04D4501D9002098E74D45DED87B
:101A00002A465946304600F0D9F84FF4847000EB6E
:101A1000461006462021FFF7B5FB3046FFF74CFB8A
:101A20000028FAD1B8F8041028460C43A8F804405E
:101A30007DE70000640000202DE9F8431D461746AD
:101A40000E460446082803D94FF0FF30BDE8F8835E
:101A5000012E08D0022E0ED0032E0CD0042E0AD058
:101A60006FF00400F2E7042269464FF47060FFF75C
:101A70004FFB009848B169076FF00500E6D49DB1AF
:101A8000012E05D0022E0FD106E06FF00200DDE737
:101A900015F0210FDAD007E0A90601D52906D5D522
:101AA000E90601D52906D1D52046FFF7E3FB600101
:101AB00005F0F0014FF0010831430830FFF762FBF9
:101AC000224E57B93788781C80B2A0F57F4130800C
:101AD000F03902D14FF4404030804FF48160390A30
:101AE00000EB4410FFF74EFB4FF4A160F9B200EB9E
:101AF0004410FFF747FB4FF4847000EB4410074697
:101B00000121FFF73FFB3846FFF7D6FA0028FAD14C
:101B100008FA04F0718805F001028143A2400A43EB
:101B20007280B1888143B1800949002021F81400F6
:101B30000649891D08554FF4427000EB44152846AC
:101B4000FFF7BAFA0028FAD060B27FE764000020FD
:101B5000CC08002072B6704762B670472DE9F04796
:101B60005FEA02088946064626D042F6081000EBD6
:101B700046152846FFF7A0FA074642F6080000EB94
:101B800046142046FFF798FA07EB002087B2380288
:101B900000EB4610424649461830FFF7B9FA07EB0A
:101BA000080086B2310A2046FFF7ECFAF1B2284667
:101BB000BDE8F047FFF7E6BABDE8F0872DE9F0474A
:101BC0005FEA02088946064626D042F2085000EB3A
:101BD00046152846FFF770FA074642F2084000EB28
:101BE00046142046FFF768FA07EB002087B2380258
:101BF00000EB4610424649461030FFF7F3FA07EB78
:101C0000080086B2310A2046FFF7BCFAF1B2284636
:101C1000BDE8F047FFF7B6BABDE8F0870078704737
:101C2000017070472DE9F041050A00F0F0014FF412
:101C3000A850FFF7A7FA002401264FF4027700BF4F
:101C400006FA04F0284204D007EB44101F21FFF7E6
:101C500099FA641CE4B2082CF2D3BDE8F081704715
:101C60007047704770470000012210210148FEF7BD
:101C700003BC00000008014010B54FF4A850FFF766
:101C80001BFA00F0F0044FF4B850FFF715FA04EB1C
:101C9000002080B210BD10B54FF4B050FFF70CFA21
:101CA00004464FF4C050FFF707FA04EB002080B25F
:101CB00010BD000010B50446014606224FF4106026
:101CC000FFF726FA042204F10E019001FFF720FA33
:101CD000042204F10A014FF4A060FFF719FA04226C
:101CE000A11D4FF47060FFF713FA07480178A17443
:101CF0004178E17481782175C07860750248401E92
:101D00000078A07510BD0000310000200020FFF712
:101D1000D3B970B504464FF4D850FFF7CDF9207011
:101D20004FF4D050FFF7C8F905464FF4C850FFF7FD
:101D3000C3F905EB0020608070BD2DE9F0410D4630
:101D40000646002400F0B5F84FF0FF38AEB100228F
:101D5000B05C204444B2102C17DC521C52B2082A4A
:101D6000F6DB002441F60877315D07EB4410FFF7FE
:101D700009FA641C64B2082CF6DBCDB100210846D8
:101D80002A5C114449B2102902DD4046BDE8F081C9
:101D9000401C40B20828F3DB002441F60866295DA8
:101DA00006EB4410FFF7EEF9641C64B2082CF6DB76
:101DB0000020EBE70020FFF775B870B50E4605462A
:101DC000002406E00020FFF76DF8641C05F8010B05
:101DD000A4B2B442F6D370BD002210210148FEF730
:101DE0004BBB00000008014010B5C1B2040A4FF41B
:101DF000B050FFF7C7F92146BDE810404FF4C0507E
:101E0000FFF7C0B910B50446014606224FF4106032
:101E1000FFF7E8F9042204F10E019001FFF7E2F95F
:101E2000042204F10A014FF4A060FFF7DBF9042259
:101E3000A11D4FF47060FFF7D5F90748A17C017030
:101E4000E17C4170217D8170617DC1700249A07D7E
:101E5000491E087010BD00003100002010B5044676
:101E600030F03A0002D04FF0FF3010BD0020FFF7F5
:101E700023F940EA04010020FFF784F9002010BD97
:101E800010B5044601784FF4D850FFF77BF960880D
:101E9000010A4FF4C850FFF775F9A178BDE810406A
:101EA0004FF4D050FFF76EB970470020704770476D
:101EB0007047F0B585B04FF410640622694620469D
:101EC000FFF726F90422950102A92846FFF720F919
:101ED0004FF4A066042203A93046FFF719F94FF426
:101EE0007067042204A93846FFF712F98021002008
:101EF000FFF748F90020FFF7DFF806226946204681
:101F0000FFF770F9042202A92846FFF76BF90422B3
:101F100003A93046FFF766F9042204A93846FFF703
:101F200061F905B0F0BDFEF7BDBF70B50E460546C0
:101F3000002405E02878FEF7B5FF641CA4B26D1CF0
:101F4000B442F7D370BD10B504464FF43850FFF7D4
:101F5000B3F8C0F38011217000F038000122002195
:101F6000202811D038280FD0617010280ED01828E2
:101F70000CD020280AD0A170082809D0182807D032
:101F8000202805D0E17010BD6270EEE7A270F3E783
:101F9000E27010BD10B500244FF43850FFF78CF8F4
:101FA000C00700D00124204610BD10B500244FF416
:101FB0003850FFF781F8C0F3C200062800D1012491
:101FC000204610BD10B54FF438542046FFF774F882
:101FD00020F080012046FFF7D5F82046FFF76CF887
:101FE00040F080012046BDE81040FFF7CBB810B5A7
:101FF00002780021012A00D140214278012A06D02E
:10200000C2788078012A05D001280BD00CE041F07D
:10201000380109E0012802D041F0080104E041F054
:10202000180101E041F010014FF43850FFF7AAF811
:10203000BDE81040FFF7C6BF70B504464FF43856F0
:102040003046FFF739F841064FF0FF351AD520F03A
:102050003800012C10D040F038013046FFF792F8DC
:10206000FFF7B0FF3046FFF727F8012C07D000F04C
:10207000380038B1002070BD40F03001EDE700F0CD
:102080003000F6E7284670BD01020203040506078A
:1020900008090A0B0C0D0E0F1010000000000000C4
:1020A0000000010203040607080900000202020200
:1020B000020202020202020202020202DC20000804
:1020C00000000020740000002801000850210008D2
:1020D00074000020CC0E00004401000888130A019F
:1020E00001900008DC00ABCD0A0101C8FFFFFF0032
:1020F0000A010101080808080100000001000000B1
:10210000100000000000000000127A000000000033
:10211000000000000102573535303000000000009B
:102120005F1C0008611C0008651C0008631C000897
:102130001D1C0008211C0008000000000000000019
:1021400000C00000000000000000000000000000CF
:04000005080000ED02
:00000001FF
