:020000040800F2
:10000000F00F0020010100083F1A000879180008CD
:100010003D1A0008730200086B1E00080000000073
:100020000000000000000000000000009D1B000810
:100030001505000800000000511A00089F1B000869
:100040001B0100081B0100081B0100081B01000820
:100050001B0100081B0100081B0100081B01000810
:100060001B0100081B0100081B0100081B01000800
:100070001B0100081B0100081B0100081B010008F0
:100080001B0100081B0100081B0100081B010008E0
:100090001B0100081B0100081B0100081B010008D0
:1000A0001B0100081B0100081B0100081B010008C0
:1000B000051C00081B0100081B0100081B010008AB
:1000C0001B0100081B0100081B0100081B010008A0
:1000D0001B0100081B0100081B0100081B01000890
:1000E0001B0100081B0100081B010008DFF80CD0F1
:1000F00000F09EF800480047F52C0008F00F0020A3
:100100000648804706480047FEE7FEE7FEE7FEE7B1
:10011000FEE7FEE7FEE7FEE7FEE7FEE7011C00085C
:10012000ED000008202A04DB203A21FA02F0002129
:10013000704721FA02F3D040C2F1200291400843F7
:1001400019467047D2B201E000F8012B491EFBD2DC
:1001500070470022F6E710B513460A4604461946D2
:10016000FFF7F0FF204610BD421E12F8013F002BA2
:10017000FBD111F8013B02F8013B002BF9D170478C
:1001800010B5044604E00B7800F8013B03B1491CAC
:10019000521EF8D2204610BDCAB2401E10F8011FF0
:1001A0008A4202D00029F9D100207047421C10F881
:1001B000011B0029FBD1801A7047034611F8012B5F
:1001C00000F8012B002AF9D1184670472DE9F05F9D
:1001D0000546002092469B468846064681464024B6
:1001E0001BE02846414647462246FFF79BFF534601
:1001F0005A46C01A914110D311461846224600F0C3
:1002000029F82D1A67EB01084F46224601200021EC
:1002100000F020F817EB00094E41201EA4F1010464
:10022000DFDC484631462A464346BDE8F09F0000E1
:10023000064C074D06E0E06840F0010394E8070033
:1002400098471034AC42F6D3FFF754FF804A0008B9
:10025000A04A0008202A04DB203A00FA02F100201C
:1002600070479140C2F1200320FA03F319439040F4
:100270007047FEE72DE9F8430F46804600254FF40E
:10028000106606221F493046009501F01BFE1D4CEA
:1002900020786178E2780843A178114308432179F6
:1002A0000843617908430CD1257008206070DC2078
:1002B000A070E5702571657106222146304601F077
:1002C0006BFE104E1049403E86F80280F763E078DE
:1002D000421821798B1862794840134450401844E1
:1002E000B063042269464FF4706001F055FE0422A9
:1002F0006946900101F050FE03F0E8F93570BDE861
:10030000F883000094000020785634122DE9F04163
:10031000464C2078062822D0A0784FF4427101EB99
:10032000401001F0A3FD222805D000234422022121
:10033000A07803F0D7FD012502F0A2FDC2B23B4830
:1003400094F90030C01D00260127011F4FF003085B
:10035000052B2FD2DFE803F0060D1C304A000520E4
:10036000BDE8F081067046708670C67003F0C6FA6C
:100370005AE0022A1BD1E16B0A7C02704A7C42706F
:100380008A7C8270C97CC17003F0A4FB02202BE040
:10039000052A0AD102F09AF808B1606A3CE003F03D
:1003A00095F9E06A8047267004E0062A3AD002F008
:1003B000C1F805462846D3E7A2690425012AF9D0E9
:1003C000E369B3EB520FF5D902780A7042784A70AC
:1003D00082788A70C078C870A06B401CA06303F05C
:1003E00079FB03F073F904202070E3E70425052A64
:1003F000DBD166700A7803789A420BD14A78437849
:100400009A4207D18A7883789A4203D1C978C07812
:10041000814202D0A06A0325804703F057F984F88F
:100420000080C7E703F052F92770C3E754000020AB
:1004300010B5034CA07802F0C9F80620207010BD5A
:10044000540000200248C169491CC1617047000086
:1004500054000020034A107041F222105160508075
:1004600070470000A40000202DE9F04380460020E2
:10047000234C89B0914660700D4603460246A06049
:100480000221207803F02EFD4FF480763346294672
:100490000020626802F064FA352782B24346009772
:1004A00029E0207802F0DAFB050017D0B54200D928
:1004B000354607A8009006AB2A462078616802F00E
:1004C000BDFF4A4601A8616802F0B6FD05462078E6
:1004D00002F07CF8284609B0BDE8F08302F062F82B
:1004E000002804DA207802F071F80020F3E7D8D170
:1004F00043462A4600972078616803F033FCD0E732
:10050000A400002002488168491C816070470000F7
:10051000A4000020704772B6FEE700002DE9F84FF6
:10052000DFF8B8910024A9F1040B23460F2709F145
:10053000040AABF1040EC9E00125A5402A40AA42F5
:100540007DD1674ED1F804C0ACEB0608B44532D07B
:1005500014DCBCF1030F3AD009DCBCF1000F2AD047
:10056000BCF1010F1CD0BCF1020F31D11DE0BCF178
:10057000110F17D0BCF1120F2AD119E0B8F5881F5E
:1005800019D006DCB8F5803F15D0B8F5801F1FD113
:1005900011E0B8F5001F0ED0B8F5041F18D10AE01D
:1005A000CB6815E0CB681B1D12E0CB6808330FE069
:1005B000CB680C330CE08B682BB1012B4FF0080398
:1005C00003D0456104E0042302E0056100E000235C
:1005D000FF2A01D8064601E000F104064FEA84052F
:1005E00001D9A5F12005D6F8008007FA05FC28EA14
:1005F0000C0803FA05F548EA0508C6F800804D68BE
:10060000ED0062D5374DAE6946F00106AE61AD69C9
:1006100024F0030605F001050095334D06EB050CAB
:10062000DCF80850A607360F07FA06F825EA080591
:10063000DFF8B880404503D14FF0000817E044E0F0
:10064000DFF8AC80404502D14FF001080FE0DFF841
:10065000A480404502D14FF0020808E0DFF89880FE
:10066000404502D14FF0030801E04FF0040808FABA
:1006700006F848EA0508CCF808804D68D9F800600B
:10068000ED024D4601D5164300E096432E604D68BD
:10069000DAF80060AD02554601D5164300E09643F6
:1006A0002E604D68DBF80060AD035D4601D5164352
:1006B00000E096432E604D68DEF80060ED0375465D
:1006C00001D5164300E096432E60641C0D682A464F
:1006D000E5407FF431AFBDE8F88F00000804014029
:1006E000000011100010024000000140000801400D
:1006F000000C014000100140001401400AB10161EA
:1007000070470904FBE7000001488068704700005B
:10071000000000200248816802781144816070471F
:1007200000000020074810B5016841F01001016089
:10073000032000F075F80F2000F006F800F024F810
:10074000002010BD0020024070B50D4D04464FF44E
:100750007A712878B1FBF0F00A490968B1FBF0F032
:1007600000F0C3FD48B9102C07D200222146501ECC
:1007700000F036F800206C6070BD012070BD0000F4
:10078000000000200C0000200C4808B5816941F0F1
:1007900001018161816901F001010091C16941F0AC
:1007A0008051C161C06900F08050009004484168E8
:1007B00021F0E06141F00071416008BD001002408D
:1007C00000000140002809DB00F01F0201219140D8
:1007D0004009800000F1E020C0F8001170470000DF
:1007E000F0B40E4B1B680C46C3F30223C3F107059C
:1007F000042D00D90425191D072901D2002300E08A
:10080000DB1E012606FA05F1491E214099409E4053
:10081000761E16403143F0BC01F006BC0CED00E042
:10082000064900F0070208684FF6FF03184040EA47
:100830000220034A10430860704700000CED00E0FE
:100840000000FA052DE9F0470F46050061D0434E40
:10085000306800F00700B84209D2306820F0070085
:1008600038433060306800F00700B84251D1286842
:100870003B4C810712D5400703D5606840F4E06027
:1008800060602878000703D5606840F460506060BD
:100890006068A96820F0F000084360602878C0070D
:1008A00028D06868012810D02168022810D0890754
:1008B00000292EDA616821F0030101436160FFF72E
:1008C00023FF804641F288390DE021688903EFE774
:1008D0008901EDE7FFF718FFA0EB0801494502D9B0
:1008E0000320BDE8F0876068696800F00C00B0EB99
:1008F000810FEFD1306800F00700B8420BD93068A3
:1009000020F0070038433060306800F00700B8423C
:1009100001D00120E5E72878400705D56068E9683F
:1009200020F4E060084360602878000706D560681E
:10093000296920F4605040EAC100606000F038F896
:100940006168084AC1F30311515CC8400649086058
:1009500006480068FFF7F8FE0020C2E700200240CA
:10096000001002404C4900080C0000200400002048
:100970000448054900684968044AC1F30221515CF2
:10098000C84070470C000020001002405C4900087D
:100990000448054900684968044AC1F3C221515C12
:1009A000C84070470C000020001002405C4900085D
:1009B0000E4A51680E4801F00C03042B11D0082B8D
:1009C0000FD10C48C1F38343C903C05C0AD55168F9
:1009D000084AC1F34041921E515C054A5043B0FBA6
:1009E000F1F070470449484370470000001002408E
:1009F00000127A003C49000800093D002DE9F84F3B
:100A0000040070D02078C04DC00749D06868C0F39A
:100A10008100012807D06868C0F38100022809D14D
:100A20006868C00306D52868800339D56068002847
:100A3000E7D035E06068B0F5803F0BD010B1B0F57D
:100A4000A02F11D0286820F480302860286820F476
:100A5000802002E0286840F480302860606890B10F
:100A6000FFF752FE06460AE0286840F4802028601E
:100A7000F0E700BFFFF748FE801B642873D82868A2
:100A80008003F7D50CE0FFF73FFE064605E000BF08
:100A9000FFF73AFE801B6428F0D828688003F7D45B
:100AA00020789A4E80074FF001094FF0000839D5A1
:100AB000686810F00C0F07D06868C0F38100022846
:100AC00009D16868C00306D42868800714D5206956
:100AD000012808D110E02069B0B1C6F80090FFF7F6
:100AE00013FE074605E00AE1FFF70EFEC01B0228D1
:100AF000C4D828688007F7D52868616920F0F80015
:100B000040EAC10028600DE0C6F80080FFF7FCFD58
:100B1000074604E0FFF7F8FDC01B022823D8286829
:100B20008007F7D4207800072CD57948A169D9B17E
:100B3000C0F80090FFF7E8FD074604E0FFF7E4FD8A
:100B4000C01B02280FD8686A8007F7D571484FF498
:100B5000FA510068B0FBF1F0009000BF0098411E10
:100B60000091FAD20EE080E0C0F80080FFF7CCFDE3
:100B7000074604E0FFF7C8FDC01B022875D8686A65
:100B80008007F7D42078400760D5E8690027C000C7
:100B900008D4E86940F08050E861E869012700F076
:100BA000805000905C480168C90513D401688346F1
:100BB00041F480710160FFF7A7FD824606E000BFA7
:100BC000FFF7A2FDA0EB0A0064284ED8DBF8000076
:100BD000C005F5D5E06801280AD008B1052813D072
:100BE000286A20F001002862286A20F0040002E050
:100BF000286A40F001002862E06841F2883B98B121
:100C0000FFF782FD82460BE0286A40F0040028626C
:100C1000EEE700BFFFF778FDA0EB0A0159455AD86F
:100C2000286A8007F6D50CE0FFF76EFD824605E0E6
:100C3000FFF76AFDA0EB0A0159454CD8286A8007E6
:100C4000F6D41FB1E86920F08050E861E06988B30C
:100C50006968C1F38101022944D00228C6F8608086
:100C600004D0FFF751FD044638E034E0FFF74CFDB7
:100C7000074604E0FFF748FDC01B02282BD8286870
:100C80008001F7D4206AB0F5803F05D16868A1687B
:100C900020F4003008436860D4E90801084369681B
:100CA00021F4741108436860C6F86090FFF72CFDCA
:100CB000044606E025E000BFFFF726FD001B0228E2
:100CC00009D828688001F7D51BE000BFFFF71CFD9D
:100CD000001B022802D90320BDE8F88F2868800194
:100CE000F4D40EE00128F7D06868226A00F480315D
:100CF000914204D1616A00F47010884201D0012051
:100D0000EAE70020E8E7000000100240000042424D
:100D1000800442420C0000200070004070B50400C6
:100D200009D0606A002540B125616561A56294F82B
:100D3000510040B10CE0012070BD6068B0F5827FC9
:100D4000F4D0E561F2E784F85050204600F040F816
:100D5000022084F851002068016821F04001016000
:100D6000A088218900F4827001F404410843A1891C
:100D700001F400610843217C01F002010843217D58
:100D800001F001010843218B01F400710843217F28
:100D900001F03801084394F8201001F08001084365
:100DA000218D01F40051084321680860A0690421E5
:100DB00001EA1040216848602068C16921F400619F
:100DC000C1616565012084F85100002070BD0000FC
:100DD00030B585B000240094019402940394006817
:100DE0001449884223D11448816941F480518161BA
:100DF000816901F480510491816941F004018161AC
:100E000080690E4D00F004000490A02000900220A4
:100E100001900320039069462846FFF77FFB40209E
:100E2000CDE90004694628460294FFF777FB05B038
:100E300030BD0000003001400010024000080140B9
:100E40002DE9F84F044690F851001D4616460F460E
:100E5000012838D160684FF00408B0F5827F01D1D5
:100E6000A06830B3FFF750FC8246002F75D0002EEB
:100E700073D094F85000012825D04FF0010984F870
:100E8000509084F851804FF00008C4F85480A76354
:100E9000A687E687C4F83080A4F83480A4F83680AA
:100EA000C4F84080C4F84480A068B0F5004F0CD06E
:100EB00015E084F85180009313460A46204600F05E
:100EC0001CF9BDE8F88F0220FBE72068016821F0DB
:100ED000400101602068016821F4804101602068C0
:100EE0000168490603D4016841F040010160E068EF
:100EF000C0B134E020688168C90709D0007BA16BCC
:100F00000870A06B401CA063E08F401EE08709E0E2
:100F1000FFF7FAFBA0EB0A00A84202D3681C01D03D
:100F200032E085B3E08F0028E4D11BE020688168BF
:100F3000C90709D0C068A16B0880A06B801CA063A2
:100F4000E08F401EE0870AE0FFF7DEFBA0EB0A001F
:100F5000A84203D3681C02D016E012E09DB1E08FD6
:100F60000028E3D152462946204600F072FD08B120
:100F70002020606584F8519084F85080606D0028CE
:100F80009FD001209DE7FFE784F8519084F85080BE
:100F9000032096E72DE9F84F984616468A46044600
:100FA000FFF7B2FB814694F8510001281ED1BAF137
:100FB000000F73D0002E71D094F85000012815D086
:100FC000012784F85070032084F8510000256565DE
:100FD000C4F830A0A686E686A563A587E587656484
:100FE0002564A068B0F5004F03D00CE00220BDE8F6
:100FF000F88F2068016821F04001016020680168D5
:1010000041F48041016020680168490603D4016809
:1010100041F040010160E068B0F5006F606803D006
:1010200048B3012E27D047E008B1012E1FD1206B15
:1010300021680088C86006E020688168890709D5B2
:10104000216B0988C160206B801C2063E08E401EEC
:10105000E0860CE0FFF758FBA0EB0901414503D304
:10106000B8F1FF3F03D035E0B8F1000F32D0E08E89
:101070000028E1D123E0206B21680078087306E0A6
:101080002068816889070AD5216B09780173206B74
:10109000401C2063E08E401EE0860DE02BE0FFF751
:1010A00033FBA0EB0901414503D3B8F1FF3F03D067
:1010B00010E0B8F1000F0DD0E08E0028E0D14A46D4
:1010C0004146204600F0F3FC08B120206065A0688E
:1010D00030B109E084F8517084F85050032086E75D
:1010E0002068C1688068009084F8517004F8505FEF
:1010F00060680028F3D0012079E72DE9FF4F81B027
:101100001D46934604464FF001090E9EFFF7FCFA78
:10111000074694F851006168012806D0B1F5827F36
:101120003CD1A168C9BB042838D10298002871D0ED
:10113000BBF1000FFBD0002DF9D094F8500001282E
:101140002CD04FF0010A84F850A094F851000428E4
:1011500002D0052084F851004FF00008C4F85480F4
:10116000C4F838B0E587A58702992163E586A5868E
:10117000C4F84080C4F8448020680168490603D45C
:10118000016841F040010160E068B0F5006F6068FF
:1011900008D0F0B3012D49D081E0FFE7022005B06F
:1011A000BDE8F08F08B1012D39D1206B216800888E
:1011B000C860206B801C2063E08E401EE0862EE01D
:1011C0002068816889070FD5E18E69B1B9F1010FF7
:1011D0000AD1216B0988C160206B801C2063E08EDE
:1011E000401EE0864FF0000920688168C9070CD0D6
:1011F000E18F51B1C068A16B0880A06B801CA06317
:10120000E08F401EE0874FF00109FFF77DFAC01B19
:1012100001E00BE067E0B04201D3701C50D1E08EDA
:101220000028CDD1E08F0028CAD13EE0206B216894
:1012300000780873206B401C2063E08E401EE0861F
:101240002DE02068816889070FD5E18E69B1B9F179
:10125000010F0AD1216B09780173206B401C2063B8
:10126000E08E401EE0864FF0000920688168C907C3
:101270000CD0E18F51B1C068A16B0870A06B401C0D
:10128000A063E08F401EE0874FF00109FFF73CFAB2
:10129000C01BB04202D3701C01D011E086B1E08EB9
:1012A0000028CED1E08F0028CBD13A4631462046E7
:1012B00000F0FDFB50B12020606584F8508012E002
:1012C00084F851A084F85080032068E7A06818B91A
:1012D0002068C1688068009084F851A084F850802C
:1012E000606D0028F1D0012059E710B5401EB0F123
:1012F000807F01D3012010BD4FF0E02460610F21F9
:10130000601700F091FE0020A061072020610020FE
:1013100010BD70477047000070B590F83C20012A5E
:1013200026D0012480F83C40022280F83D2003684A
:101330005A689D6822F070060A6832435A600D4B65
:1013400002689A4208D0B2F1804F05D00A4B9A4207
:1013500002D00A4B9A4204D1496825F08003194310
:10136000916080F83D40002180F83C10084670BD37
:10137000022070BD002C0140000400400008004025
:1013800010B5040003D094F83D0010B107E001202F
:1013900010BD002084F83C00204600F01FF8022019
:1013A00084F83D00211D206800F032FC012084F803
:1013B000460084F83E0084F83F0084F8400084F83A
:1013C000410084F8420084F8430084F8440084F823
:1013D000450084F83D00002010BD000008B50068FD
:1013E000B0F1804F12D10A48C16941F00101C161D9
:1013F000C069002200F00100009011461C20FFF798
:10140000EFF9BDE808401C20FFF7DCB908BD00007B
:101410000010024090F83D10012901D001207047D2
:10142000022180F83D100168CA6842F00102CA60DA
:1014300000680B49884208D0B0F1804F05D00949B7
:10144000884202D00849884204D1816801F007012E
:10145000062903D0016841F00101016000207047B6
:10146000002C0140000400400008004070B5044614
:1014700090F83C000025012817D0012684F83C6034
:10148000022084F83D002068826822F0770222F46E
:101490007F4282600868502838D00DDC20284FD069
:1014A00005DC90B3102811D14AE0022070BD30282D
:1014B00046D040280AD13BE060282FD070280DD0BC
:1014C000B0F5805F03D0B0F5005F12D0012584F83D
:1014D0003D60002084F83C00284670BDCB68D1E90F
:1014E0000121206800F0D0FB2068816841F077017D
:1014F00009E0CB68D1E90121206800F0C5FB206834
:10150000816841F480418160E1E719E0CA68496877
:10151000206800F0CBFB5021206806E0CA684968CB
:10152000206800F0D4FB6021206800F0B7FBCEE714
:10153000CA684968206800F0B9FB40212068F4E7D8
:10154000226801461046F0E770472DE9F041044655
:101550000068C66805694FF00007A90713D5B107F1
:1015600011D5F91E0161012020772068806980076C
:10157000204602D0FFF7E8FF04E000F07EF82046A6
:1015800000F07CF82777680716D5700714D5216816
:101590006FF004000861022020772068806910F451
:1015A000407F204602D0FFF7CFFF04E000F065F84F
:1015B000204600F063F82777280715D5300713D5A4
:1015C00021686FF008000861042020772068C06956
:1015D0008007204602D0FFF7B7FF04E000F04DF887
:1015E000204600F04BF82777E80616D5F00614D50C
:1015F00021686FF010000861082020772068C0691A
:1016000010F4407F204602D0FFF79EFF04E000F078
:1016100034F8204600F032F82777E80708D0F007C2
:1016200006D021686FF001000861204600F027F81D
:10163000280608D5300606D521686FF080000861BD
:101640002046FFF766FE680608D5700606D52168B5
:101650006FF040000861204600F018F8A8060AD58F
:10166000B00608D521686FF0200008612046BDE86B
:10167000F041FFF74FBEBDE8F0817047704700684A
:10168000B0F1804F01D102F0C9BE7047704770B50C
:10169000040004D094F84100002510B106E00120B8
:1016A00070BD84F84050204600F024F8242084F8CF
:1016B00041002068C16821F40051C160204600F05B
:1016C0003FFB2068016921F4904101612068416974
:1016D00021F02A0141612068C16841F40051C160D4
:1016E0006564202084F8410084F84200656300208E
:1016F00070BD000030B585B00024009401940294C0
:10170000039400681449884224D11448816941F443
:1017100080418161816901F480410491816941F0D6
:101720000401816180690E4D00F0040004904FF4C3
:101730000070009002200190032003906946284623
:10174000FEF7ECFE2815CDE9000469462846029410
:10175000FEF7E4FE05B030BD003801400010024045
:10176000000801402DE9F843044690F841009846EE
:1017700016460D46202802D00220BDE8F88385B128
:101780007EB100206064212084F84100FEF7BCFF98
:10179000A6848146E684A0682027B0F5805F02D049
:1017A00003E00120E9E7206910B12E4600250EE094
:1017B00000260CE08021204600F01EFBA8B9C6B12F
:1017C00016F8010B21684860E08C401EE084E08C34
:1017D0004B464FF00002CDF800800028EAD14FF0D0
:1017E0004001204600F008FB40B184F8417003201E
:1017F000C3E735F8020BC0F30800E3E784F8417053
:101800000020BAE710B504460020207008A1204649
:10181000FEF7AAFC10A12046FEF7A6FC14A1204664
:10182000FEF7A2FC2046BDE81040FEF7BFBC00005A
:10183000474554202F75706C6F61642F31303434FC
:101840003338383439302E62696E20485454502F62
:10185000312E310D0A000000486F73743A207777FB
:10186000772E6962696E6875622E636F6D00000085
:101870000D0A0D0A00000000FEE700002DE9F0430C
:1018800085B0002530480095019502950395816942
:1018900041F010018161816901F0100104918169B9
:1018A00041F020018161816901F020010491816989
:1018B00041F004018161816901F0040104918169B1
:1018C00041F0080181618069012200F008001F4F8A
:1018D000D403049021463846FEF710FFDFF87080ED
:1018E000012210214046FEF709FFDFF86890002230
:1018F00030214846FEF702FF6010CDE90005694639
:1019000038460295FEF70AFE009401240326CDE92D
:101910000246694638460194FEF700FE1020CDE9E4
:101920000004CDE9024669464046FEF7F7FD302047
:101930008DE831000220039069464846FEF7EEFD2F
:1019400005B0BDE8F0830000001002400010014027
:1019500000080140000C0140104810B50E4901601C
:101960004FF48271416000218160C1604FF40072C8
:101970000161C0E905120822C0E9072141628162C4
:101980000A21C162FFF7CAF9002803D0BDE8104060
:10199000FEF7C1BD10BD000000300140F400002082
:1019A00010B586B000241648009401940294039464
:1019B00004944FF08041059401604721C0E901146F
:1019C00040F2E731C0E903148461FFF7D9FC08B1A4
:1019D000FEF7A1FD4FF48050009069460848FFF7DC
:1019E00045FD08B1FEF797FD049404A90448059449
:1019F000FFF792FC002801D0FEF78DFD06B010BD68
:101A00004C0100200C4810B50A4901604FF4E13147
:101A10004160002181600C22C160C0E90412816133
:101A2000C161FFF734FE002803D0BDE81040FEF787
:101A300072BD10BD0038014094010020FEE7FEE7B2
:101A400000F00F00092801D8303070473730704758
:101A50007047F8B5044640684FF48273984217D136
:101A6000A0684FF48065B0F5004F01D0A8420FD1B7
:101A70002068066826F0400606606068984207D134
:101A8000A068A84204D100920B460022012103E085
:101A900000920B4600228021204600F023F8002807
:101AA00004D0606D40F0200060650320F8BDF8B5FB
:101AB00015460E460B46009204460122022100F014
:101AC00011F840B93346002280212046009500F0ED
:101AD00009F8002804D0606D40F020006065032004
:101AE000F8BD00002DE9F8431E469146884604469D
:101AF000089DFEF709FE401B351AFEF705FE074656
:101B000025480068C0F3CB30684338E0701C37D0FC
:101B1000FEF7FAFDC01BA84203D215B1009860B3CE
:101B20002CE02068416821F0E00141606068B0F578
:101B3000827F0BD1A068B0F5004F02D0B0F5806F66
:101B400004D12068016821F040010160A06AB0F56D
:101B5000005F09D12068016821F40051016020680C
:101B6000016841F400510160012084F85100002017
:101B700084F850000320BDE8F8830025401E009043
:101B80002068816838EA010004D000214945BDD1B0
:101B90000020F0E70121F9E70C0000207047FEF774
:101BA000B9BD30B58FB028216846FEF7D2FA1421AE
:101BB0000AA8FEF7CEFA01210804CDE9001000249E
:101BC000029402250491CDE907504FF4E0100990EA
:101BD0006846FEF713FF08B172B6FEE70F20CDE9A5
:101BE0000A054FF48060CDE90C4002210AA80E944A
:101BF000FEF728FE002801D072B6FEE70FB030BD18
:101C0000704700000148FFF7A0BC00004C01002015
:101C1000F0B50268194B1A4C1A4D4FF080479842A4
:101C200005D0B84203D0A04201D0A84203D122F08F
:101C300070064A683243984205D0B84203D0A042A9
:101C400001D0A84203D122F44074CA6822434C69EF
:101C500022F08002224302608A68C2620A688262BD
:101C6000984201D109690163012141610169C907F4
:101C700003D0016921F001010161F0BD002C014098
:101C8000000400400008004010B5846842EA0322C6
:101C900024F47F440A432243826010BD826822F00C
:101CA00070020A4342F007018160704710B5036A71
:101CB000046A24F001040462846924F0F00444EA14
:101CC000021423F00A020A438461026210BD10B5B7
:101CD000036A046A24F010040462846923F0A003F8
:101CE00024F4704444EA023243EA01118261016241
:101CF00010BD01680C3151E8002F22F4907241E8C8
:101D00000023002BF5D10168143151E8002F22F097
:101D1000010241E80023002BF5D1016B012909D113
:101D200001680C3151E8002F22F0100241E8002335
:101D3000002BF5D1202180F842100021016370476B
:101D400070B5044600680169E26821F4405111430E
:101D500001612169A0680843616908432168CA6874
:101D600041F20C639A430243CA6020684169A26948
:101D700021F44071114341611E492068884202D11B
:101D8000FEF706FE01E0FEF7F3FD00EBC00101EBFC
:101D90000012606864218000B2FBF0F3B3FBF1F342
:101DA0006FF018067343B2FBF0F5B2FBF0F605EBEB
:101DB0008305322303EB0515B5FBF1F5B6FBF1F610
:101DC00005F0F00505EB0615B2FBF0F6B2FBF0F0FE
:101DD000B0FBF1F06FF01802504306EB800003EB0C
:101DE0000010B0FBF1F0216800F00F00284488607B
:101DF00070BD0000003801402DE9F84398461746B1
:101E00000D460446089E24E0701C22D0FEF77CFCA0
:101E1000A0EB0800B0421AD8CEB12068C1684907CB
:101E200017D5802D15D0402D13D00168C94309075F
:101E30000FD401680025406800902046FFF759FF45
:101E40000820606484F840500120BDE8F883032036
:101E5000FBE72068006835EA000004D00020B842A3
:101E6000D2D00020F1E70120F9E7FEE7F8B5144CE5
:101E70000546E068804760698047616AC5F30740AE
:101E8000C5F3072699B1A26A8AB18DF800008DF8D2
:101E900001608DF80250032168469047E069804751
:101EA0000546A0698047206980472846F8BD216A19
:101EB0008847216A30468847216AE8B28847EDE7BB
:101EC000280000202DE9F8431A4C05461746E06823
:101ED0008846804760698047616AC5F30740C5F35B
:101EE0000726A1B1A26A92B18DF800008DF80160B9
:101EF0008DF80250032168469047626A3946404691
:101F00009047A069804720698047BDE8F883216A2F
:101F10008847216A30468847216AE8B28847002509
:101F200005E0E069804708F805006D1CADB2BD42D0
:101F3000F7D3E6E728000020F8B5164C05460E4614
:101F4000E068804760698047A26A45F004058AB16D
:101F5000280C8DF80000280A8DF801008DF8025039
:101F60008DF80360042168469047A0698047206986
:101F70008047F8BD216AC5F307408847216AC5F349
:101F800007208847216AE8B28847216A3046884797
:101F9000EBE7000028000020F8B51A4C054616466D
:101FA000E0680F46804760698047A26A45F00405F3
:101FB0009AB1280C8DF80000280A8DF801008DF8E0
:101FC0000250032168469047A26A3146384690473E
:101FD000A069804720698047F8BD216AC5F30740A2
:101FE0008847216AC5F307208847216AE8B28847F5
:101FF000002504E0216A785D88476D1CADB2B542CA
:10200000F8D3E5E7280000200FB4054B10B503A96D
:10201000044A029800F028F810BC5DF814FB000098
:10202000892B0008E80000200907090E002804DBBE
:1020300000F1E02080F80014704700F00F0000F17C
:10204000E02080F8141D704702E008C8121F08C184
:10205000002AFAD170477047002001E001C1121F29
:10206000002AFBD1704700002DE9FF4F8DB00F46CD
:102070000546002606E025280BD0DDE90F12904723
:102080006D1C761C28780028F5D111B03046BDE8CB
:10209000F08F0024A246A1460122EC4900E004434F
:1020A00015F8013F203B02FA03F00842F7D12878E7
:1020B0002A2810D06FF02F022878A0F130010929CA
:1020C00014D80AEB8A0102EB410144F0020400EB50
:1020D000010A6D1CF0E701CF5FEA000A03D544F462
:1020E0000054CAF1000A44F002046D1C28782E281E
:1020F00017D115F8010F44F004042A280ED06FF010
:102100002F022878A0F1300109290AD809EB8901AA
:1021100002EB410100EB01096D1CF2E757F8049B4B
:102120006D1C28786C280FD006DC4C2817D0682846
:102130000DD06A2814D104E0742810D07A280FD169
:102140000DE044F400140AE044F4801401E044F487
:1021500040146978814202D104F580146D1C6D1C15
:102160002A786E2A1FD00CDC632A31D004DC002AC6
:102170008BD0582A11D1A3E0642A68D0692A0CD1E7
:1021800065E0732A2ED004DC6F2A73D0702A04D144
:102190009BE0752A6FD0782A6ED01046DDE90F12C9
:1021A0009047761C50E1C4F30250022806D0032861
:1021B00009D0042801CF09D0066045E101CFF1170D
:1021C000C0E9006140E101CF06803DE106703BE1DE
:1021D00017F8040B8DF8000000208DF80100EB4685
:1021E000012003E057F804BB4FF0FF3061074FF0C8
:1021F000000102D40DE008F10101884649450FDADB
:102200008045F8DB1BF808100029F4D108E008F13C
:10221000010188468142FADB1BF808100029F6D13B
:10222000DDE90F23AAEB08008146214600F036F9CC
:10223000304400EB080604E0DDE90F121BF8010B47
:102240009047B8F10108F7D221464846F7E00A2145
:10225000C4F302534FF0000B0891022B04D001CFBE
:10226000C117032B09D00AE0FF1D27F00707F7E885
:10227000020108E032E01FE020E000B2C117042BA9
:1022800001D140B2C117031E71F1000307DA4FF00C
:10229000000CD0EB0C006CEB01012D2302E02305B8
:1022A00004D52B238DF82430012303E0E30701D06C
:1022B0002023F7E7984658E00A2110E010210EE0AD
:1022C00010204FF0000B08900CE010214FF0000B95
:1022D00044F004044FF00809089103E008214FF08E
:1022E000000B0891C4F30253022B04D001CF00214C
:1022F000032B06D006E0FF1D27F00707F7E80201D1
:1023000003E080B2042B00D1C0B24FF000082307D5
:102310002BD5702A07D0DDF820C08CF0100C5CEAB9
:102320000B0C05D00EE040238DF82430012308E08B
:1023300050EA010306D030238DF824308DF8252093
:1023400002239846DDF820C08CF0080C5CEA0B0CE8
:102350000BD150EA010301D1630706D530238DF874
:1023600024304FF00108A9F10109582A04D038A2FD
:102370000B9208AA0A920BE03AA2F9E75B46089A88
:10238000FDF724FF0B9B9B5C0A9A521E0A92137066
:1023900050EA0102F2D10A98ADEB000000F1200BE7
:1023A000600702D524F4803401E04FF00109D945DB
:1023B00002DDA9EB0B0000E0002000EB0B01414423
:1023C0000890AAEB010AE00306D4DDE90F232146B9
:1023D000504600F063F806444FF0000908E009A9F0
:1023E00011F80900DDE90F12904709F10109761C87
:1023F000C145F4DBE0030CD5DDE90F23214650464F
:1024000000F04CF8064404E0DDE90F12302090475C
:10241000761C0899481E08900029F5DC08E00A9807
:102420000A990078491C0A91DDE90F129047761C41
:10243000BBF10001ABF1010BF1DC21465046DDE9B7
:102440000F2300F019F806446D1C1BE60928010053
:10245000303132333435363738396162636465661A
:1024600000000000303132333435363738394142DC
:1024700043444546000000002DE9F0410446002594
:102480001E461746880404D405E039462020B0478C
:102490006D1C641EF9D52846BDE8F0812DE9F04198
:1024A000044600251E469046C80301D5302700E0AB
:1024B0002027880404D505E041463846B0476D1C06
:1024C000641EF9D52846BDE8F0810000F8B54FF448
:1024D000D8563046FFF7CAFC054603213046FFF7C1
:1024E0002BFD0E4B41F28830DC1F009011220CA115
:1024F000A07801F037FC074629463046FFF71CFD5F
:102500000D3708D001F07AF9E069E169091A02296A
:10251000FBD30020F8BD0120F8BD00005B000020C7
:10252000434845434B5F49505F434F4E464C4943F8
:102530005400000070B51A4C0125204694F9011092
:10254000002690F90000022917DAD4E90721914208
:1025500023D2012804D0022805D0042805D102E0A6
:1025600001F0CCF901E001F0B5FAE661E0690A306A
:1025700020626078401C60700FE0012804D00228BF
:1025800005D0042807D102E02670002503E001F001
:10259000B5F90120207001F099F8284670BD0000BF
:1025A000540000200848816803290BD30022826070
:1025B0004178022902D34270501E7047491C417075
:1025C0000020704701207047A400002070B5044629
:1025D000082802D94FF0FF3070BD4FF4847000EB33
:1025E000441005461021FFF7A7FC2846FFF73EFCE4
:1025F0000028FAD14FF4027000EB44101F21FFF7BE
:102600009BFC0D490120A0404A8882434A808A8869
:1026100082438A800949002021F814000649891D57
:1026200008554FF4427000EB44142046FFF71EFC9F
:102630000028FAD1012070BD10000020DC0100202C
:102640002DE9F04117460E460446082803D94FF0FD
:10265000FF30BDE8F08160014FF001080830FFF75E
:1026600005FC00F00F00012802D06FF00400F0E735
:102670004FF4427000EB44100546FFF7F7FB1328B8
:1026800002D06FF00200E4E73078717801EB0020AF
:10269000B17801EB0020F17801EB0020411C2CD037
:1026A00058B36FB340F6084000EB441004223146A3
:1026B000FFF772FC41F20800390A00EB4410FFF703
:1026C0003BFC41F20810F9B200EB4410FFF734FC78
:1026D0004FF4847000EB441006460421FFF72CFCF5
:1026E0003046FFF7C3FB0028FAD1164908FA04F078
:1026F000498808421AD00020ABE76FF00B00A8E72A
:102700006FF00A00A5E72046FFF7B0FB000706D5EB
:1027100020460821FFF710FC6FF00C0099E72846CF
:10272000FFF7A4FB30B96FF0030092E74FF402709B
:1027300000EB44142846FFF799FB1728E3D101204A
:1027400087E70000100000202DE9F0410C46002131
:1027500002464F1E08464FF498554FF4A056102AD3
:1027600063D2DFE802F0080B17131A1E222C36453D
:10277000484C5950555C01F0D0FF4DE014B1204653
:1027800004F10801BDE8F04101F0E2BE208801F04B
:102790006BFE41E001F092FE05E0208801F062FF4F
:1027A0003AE001F09AFE208036E02088010A2846AF
:1027B000FFF7C2FB21783046FFF7BEFB2CE0304626
:1027C000FFF754FB06462846FFF750FB06EB0020B8
:1027D000E9E7174882782270C27862700279A270A5
:1027E0004279E27082792271C0796071A17113E03F
:1027F00002F041F810E0204602F052F80CE02046CA
:1028000001F0FAFF08E02078BDE8F04102F06DB871
:1028100002F024F805E020700020BDE8F08102F00D
:1028200012F8C0B241B2491CF5D13846F5E70000B4
:102830002800002010B5042209494FF47060FFF70A
:10284000ABFB0749042208314FF4A060FFF7A4FB5B
:1028500003490422091DBDE810409001FFF79CBB0D
:102860005B00002010B580210020FFF765FB0020F1
:10287000FFF7FCFABDE81040062202494FF4106051
:10288000FFF78ABB9400002010B580210020FFF7DD
:1028900053FB0020FFF7EAFAFFF7CCFFBDE810403A
:1028A000062202494FF41060FFF776BB9400002027
:1028B00070B5B0B015460C460646C0236A4600F017
:1028C00027FC411C49D00444204600F091F90A3409
:1028D00010283FD2DFE800F03E08153E3E152B15CC
:1028E00015153E3E151A3E2114F8010B287014F8F8
:1028F000010B687014F8020BA87014F8010CE87052
:1029000028E0C0236A460BE0044423E014F8010BDE
:10291000204410F8011B44181CE0C0236A46A41C84
:102920002146304600F0F4FB411C16D0ECE7C023F2
:102930006A462146304600F0EBFB411C0DD00444B2
:10294000C0236A462146304600F0E2FB411C04D019
:1029500004441434204630B070BD0020FBE7000072
:102960002DE9F043034691461046294A0D46B1B081
:102970005188491C89B2518000F0E8FC4FF4807105
:1029800041EAC32189B200F0E1FC012100F0DEFC44
:10299000002100F0DBFC002100F0D8FC002100F059
:1029A000D5FC044629466846FDF707FC6E463046CE
:1029B000FDF7FCFB1FFA80F82E213046FDF7ECFBFB
:1029C000070002D0B81B85B200E0454604F8015B61
:1029D0008DB12A4631462046FDF7D2FB2C443FB14B
:1029E000A8EB0500401E2E441FFA80F8761CE3E792
:1029F000002004F8010B0121204600F0A7FC012172
:102A000000F0A4FCA0EB090031B000B2BDE8F083F7
:102A1000A400002010B5B0B00C46C0236A4600F0F8
:102A200077FB411C03D02044001D30B010BD0020B6
:102A3000FBE70000F0B50F46064689B014460025B6
:102A40004FF47A71174801F041FB31460020FDF741
:102A500001FD02A801F050FD0DF11A06224639468B
:102A60003046FDF701FD90B10128F7D1E178A0785B
:102A7000CDE900016378227839460BA0FFF7C4FA4C
:102A80000024084801F050FB09B02046F0BD032D9A
:102A900002D26D1CEDB2E1E70CA0FFF7B5FA4FF0E2
:102AA000FF34EEE7050500083E205472616E736C3A
:102AB0006174656420257320746F2025642E25645D
:102AC0002E25642E25640D0A000000003E20444E91
:102AD00053204661696C65640D0A00002DE9F047DA
:102AE00006464FF44270984691460D464CF25037D8
:102AF00000EB4610FFF7BAF9214CA0B3132808D019
:102B000017280DD01C2823D13046BDE8F047FFF729
:102B10005DBD424649463046BDE8F047FFF790BDEF
:102B2000207858B1304600F099F8020010D02946BC
:102B3000304600F011FC86B2002411E02846FEF772
:102B400061FE82B22946304600F0CAFD01202070A5
:102B5000BDE8F087295D0BA0FFF756FA641CA4B20C
:102B6000B442F7D3F4E7FFE73046FFF72FFD002329
:102B70003A460121304601F0B5F90020E7E70000B0
:102B8000E40000202563000013B54FF6FF73012217
:102B900069460248FEF7E6FD00981CBD940100203E
:102BA00010B5002821D0114B0022001F196803E046
:102BB000814203D80A4649680029F9D152B1136805
:102BC000841A9C4204D1006818441060104602E048
:102BD000506000E0186039B102680B1A934203D1CB
:102BE0000B681A4402604968416010BDEC00002087
:102BF0000178407800EB012080B2704704490A78E0
:102C000002704A7842708A788270C978C1707047C1
:102C10006700002004490A7802704A7842708A7876
:102C20008270C978C17070475F00002004490A783B
:102C300002704A7842708A788270C978C170704791
:102C40005B00002004490A7802704A7842708A7852
:102C50008270C978C1707047630000202DE9F0418F
:102C600042F2086101EB401542F20871002601EBC7
:102C700040142846FFF7FAF807462046FFF7F6F813
:102C800000EB072007043F0C09D02846FFF7EEF8B9
:102C900006462046FFF7EAF800EB062086B2BE4261
:102CA000E7D13046BDE8F0812DE9F04142F208015C
:102CB00001EB401542F20811002601EB40142846B2
:102CC000FFF7D4F807462046FFF7D0F800EB0720BF
:102CD00007043F0C09D02846FFF7C8F806462046EF
:102CE000FFF7C4F800EB062086B2BE42E7D13046BB
:102CF000BDE8F081FDF716FDFEF753FFFEF7BEFDC0
:102D0000FEF72AFEFEF77EFEFEF74AFE01F078F996
:102D1000FEE700001CB5062269464FF41060FFF77D
:102D2000D1F82F4A0120D16B0870487006208870B6
:102D30000020C870936B1B0E0B71936B1B0C4B71B7
:102D4000138F1B0A8B7192F83830CB71D16B8023B3
:102D500008818B72C872D16B02F14003087348730B
:102D60008873C873087448748874C8740875487583
:102D70008875C875087648768876C8761C780C778A
:102D80005C784C779C788C77DC78CC771C7981F8F0
:102D900020405B7981F821300623CC185B1CDBB224
:102DA0002077102BF9D3D36B00215C18491CC9B2D2
:102DB00084F82C004029F8D3D36B00215C18491CFF
:102DC000C9B284F86C008029F8D3D06B63218222C9
:102DD00000F8EC1F427053228270C1701CBD0000CD
:102DE00054000020F0B50B30154D20F007010024F1
:102DF000144A0FE003688B420BD38B4205D95E1A4D
:102E000043184768C3E9006700E04368136002C0E5
:102E100004E0021D10680028ECD12046002802D1F1
:102E2000286808B10020F0BD064A07481060074A2C
:102E3000121A22F00702C0E9002401202860D7E717
:102E4000F0000020EC000020F4090020F00B00202E
:102E500070B505460C46084601F012FCA07D02281C
:102E600009D12946002001F07DF920B90120A07583
:102E7000204601F005FCBDE8704000F083B9000079
:102E80002DE9FF416B4C0025A078FFF7E7FE02001B
:102E90005BD003A8009001ABA078E16B00F0CEFA04
:102EA00086B2BDF80C0043286ED1E06B04F14001FE
:102EB000027F0B789A4248D1437F4A78934244D1AB
:102EC000827F8B789A4240D1C27FCB789A423CD1A4
:102ED00090F820200B799A4237D190F82120497937
:102EE0008A4232D104F130010A1D0F782FB94B7894
:102EF0001BB98B780BB9CB785BB39DF80430BB4220
:102F000011D19DF8057091F801C067450BD19DF86E
:102F1000067091F802C0674505D19DF8077091F8D9
:102F200003C0674515D01778BB420ED19DF80570D8
:102F300053789F4209D19DF806309778BB4204D15F
:102F40009DF80730D778BB4203D0002004B0BDE81D
:102F5000F081F0308319F03B14E00678332E44D032
:102F600007DCAEB1012E18D0032E21D0062E06D1DB
:102F700024E0352E0ED0362E46D0FF2E06D04678D1
:102F8000801C30449842E8D368B2DFE71846F9E77E
:102F9000401CF7E78578C01CF4E7264E87780F368B
:102FA0003770C77877700779B7704779F7703FE067
:102FB000204E477810F802CF0B3604E047781D4EBC
:102FC00010F802CF133686F800C010F801CF86F84B
:102FD00001C010F801CF86F802C090F801C0801C33
:102FE000384486F803C0001FCCE78678A661C7780E
:102FF00007EB0626A661077907EB0626A661477947
:1030000007EB0626A66113E086780E70C6784E7030
:1030100006798E704679CE709DF8046016709DF822
:10302000056056709DF8066096709DF80760D67032
:10303000801DA7E7540000202DE9F0410D46904681
:1030400004461221FDF785F82846FFF7D1FD2080C0
:10305000A81CFFF7CDFD02044FF0010100D5A170BF
:10306000C0F3C322E270420500D52171820500D56C
:103070006171C20500D5A171020600D5E17100F0B1
:103080000F002072281DFFF7B3FD6081A81DFFF718
:10309000AFFDA08105F10800FFF7AAFDE08105F171
:1030A0000A00FFF7A5FD0026208205F10C01771E1E
:1030B00006E02846FFF7AEFC010014D0761CB6B23D
:1030C0006089B042F5D8002607E042462846FFF75F
:1030D000EFFB010007D0761CB6B2A089B042F4D84D
:1030E0000020E18904E03846BDE8F081401C80B250
:1030F0008142FBD80020218A01E0401C80B281423D
:10310000FBD8207A08B10020EEE70120ECE70000B0
:10311000F0B507460020054606464FF02E0C00BFCE
:1031200011F8014B05B9401C4FEA941EBEF1030F84
:103130000AD105B9401C097804F03F0407EB0424C8
:103140002144012511F8014BACB11B1B5B1E1BB2C6
:10315000002B02DA4FF0FF30F0BD2DB9204403E020
:1031600011F801EB02F801EB641EA4B2F8D202F8E8
:1031700001CB761CD4E70EB902F801CB0021117007
:10318000F0BD000000B589B003A801F0B5F99DF8C5
:103190002200022829484BD0FEF736FF28A12AA09A
:1031A000FEF732FF9DF80F009DF811209DF81010DA
:1031B0008DE807009DF80E309DF80D209DF80C104D
:1031C0002BA0FEF721FF9DF8150000909DF814300C
:1031D0009DF813209DF8121031A0FEF715FF9DF801
:1031E000190000909DF818309DF817209DF81610D2
:1031F00033A0FEF709FF9DF81D0000909DF81C30DC
:103200009DF81B209DF81A1035A0FEF7FDFE9DF8D5
:10321000210000909DF820309DF81F209DF81E1081
:1032200037A0FEF7F1FE3E48FEF7EEFE09B000BD06
:10323000FEF7EAFE02A13BA0B2E70000D049000879
:103240005735353030000000202573206E657477C7
:103250006F726B20636F6E66696775726174696FF8
:103260006E203A207374617469630D0A0D0A0000C0
:10327000204D41432020202020202020203A2025BE
:103280003032583A253032583A253032583A2530C3
:1032900032583A253032583A253032580D0A00005B
:1032A000204950202020202020202020203A2025A6
:1032B000642E25642E25642E25640D0A000000006E
:1032C000205375626E6574204D61736B203A202522
:1032D000642E25642E25642E25640D0A000000004E
:1032E000204761746577617920202020203A2025CD
:1032F000642E25642E25642E25640D0A000000002E
:1033000020444E532020202020202020203A202519
:10331000642E25642E25642E25640D0A000000000D
:1033200064490008202573206E6574776F726B20E6
:10333000636F6E66696775726174696F6E203A209B
:10334000444843500D0A0D0A000000000A0A00F824
:10335000012B00F8011B70472DE9F74F1446054675
:10336000082803D94FF0FF30BDE8FE8F6801012621
:103370000830FEF77BFD00F00F00012801D0B01FE0
:10338000F2E724B341F6086000EB4510FEF76EFD4E
:103390004FF6FF7101EA8020A04200D204464FF4AC
:1033A000427000EB451841F60870DFF88CA000EB86
:1033B000451B06FA05F92846FFF750FC064640462D
:1033C000FEF754FD172816D01C2803D00DE06FF02F
:1033D0000D00C9E7CEB92846FFF766FC07465846F8
:1033E000FEF744FDB7EB802F05D12846FFF7EEF836
:1033F0006FF00600B8E7BAF8021019EA010F02D020
:103400001EB90020B0E7002ED5D0A64200D2344627
:1034100022462846019900F079FF4FF4847000EBB2
:10342000451005464021FEF787FD2846FEF71EFDA4
:103430000028FAD1204697E7100000202DE9FF4F21
:10344000002583B01F4690460446082803D9681E0D
:1034500007B0BDE8F08F60014FF0010A0830FEF7B9
:1034600005FD834600F00F00022806D0032804D093
:10347000042802D06FF00400EAE7B8F1000F05D08D
:10348000DFF8C49139F8140018B11EE06FF00D0098
:10349000DEE74FF4427000EB44160AFA04FA2046C5
:1034A000FFF7DCFB05463046FEF7E0FC30B167492C
:1034B00049881AEA010F06D01DB106E06FF003003B
:1034C000C6E70020C4E7002DE9D00BF00701DFF8C4
:1034D0007CA14FF484704FF0800B0AF1060A00EBD8
:1034E0004416022922D003297CD0042952D029462F
:1034F000204600F03BFF29F8145030464021FEF7EB
:103500001BFD3046FEF7B2FC0028FAD139F8141042
:10351000491B0904090C29F8141003D01AF80410E7
:1035200041F001010AF80410284691E739F8140027
:103530004D4670BB08226946204600F0E7FE304643
:103540004021FEF7F9FC3046FEF790FC0028FAD146
:103550009DF8000038709DF8010078709DF8020019
:10356000B8709DF80300F87010999DF80400088069
:103570009DF8051001EB0020109908809DF80600C9
:103580009DF807105BE02A462046049900F0BEFE35
:10359000B3E72AE039F814004D4630BB02226946F1
:1035A000204600F0B3FE30464021FEF7C5FC304611
:1035B000FEF75CFC0028FAD19DF800009DF8011090
:1035C0006FF0010202EB0020084480B240F2EA51A1
:1035D00025F81400884206D92046FEF7F7FF6FF45D
:1035E0007A7035E702E00AF804B003E039F8140015
:1035F0004D4630B135F8145040464545C3D90546CF
:10360000C1E706226946204600F080FE3046402190
:10361000FEF792FC3046FEF729FC0028FAD19DF80F
:10362000000038709DF8010078709DF80200B870B5
:103630009DF80300F8709DF804009DF8051001EB5B
:10364000002025F81400CEE7DC0100201000002047
:10365000054A18B111B1C2E905017047034850612C
:10366000034890617047000028000020A94400082A
:10367000A7440008074A10B513889C05FDD518B16A
:1036800011B1C2E9070110BD0348D06103481062BF
:1036900010BD00002800002013470008194700084B
:1036A000074A10B513889C05FDD518B111B1C2E9C0
:1036B000090110BD034850620348906210BD00002C
:1036C0002800002011470008174700080348002180
:1036D000C1610A220262417070470000540000205C
:1036E0002DE9F05F15468B460646082803D94FF0B2
:1036F000FF30BDE8F09F700101240830FEF7B6FBF3
:1037000000F00F00012801D0A01FF2E775B14FF4BF
:10371000427000EB46100746FEF7A8FB6FF0060A62
:10372000172806D01C2804D05046E2E76FF00D00A1
:10373000DFE7DFF8C480B440B8F80400044213D0D7
:103740004FF4027000EB46108146FEF78FFB00F04D
:103750001F00C10624D548461021FEF7EDFBB8F83E
:103760000410A143A8F8041041F6087000EB4610BD
:10377000FEF77CFB4FF6FF7101EA8020854200D9FD
:1037800005463046FFF790FA81463846FEF76EFB55
:1037900017280DD01C280BD03046FEF717FFC3E7C3
:1037A00000070BD53046FEF711FF6FF00C00A0E7C5
:1037B000B8F80200044203D04D4501D9002098E733
:1037C0004D45DED82A465946304600F0F0FD4FF40C
:1037D000847000EB461006462021FEF7ADFB304614
:1037E000FEF744FB0028FAD1B8F8041028460C4331
:1037F000A8F804407DE70000100000201CB5FFF78A
:1038000089FA3D4800213D22C06B4FF49C738172C0
:10381000C172352180F8F010012180F8F1100421E7
:1038200080F8F210072180F8F32080F8F4100121CD
:1038300080F8F510304940310A7880F8F6204A784F
:1038400080F8F7208A7880F8F820CA7880F8F92084
:103850000A7980F8FA20497980F8FB10322180F843
:10386000FC10042180F8FD102349C91D097880F857
:10387000FE102149C91D497880F8FF101E49C91D55
:10388000897880F800111C49C91DC97880F8011198
:10389000362180F80211042180F8031116493031D5
:1038A0000A7880F804214A7880F805218A7880F81F
:1038B0000621C97880F80711FF2180F808111D2121
:1038C00000224418491C84F8EC209942F9DBFF20BF
:1038D0008DF804008DF805008DF806008DF80700BE
:1038E00043200090044801AB4FF40972C16B80780B
:1038F00000F038FA1CBD0000540000202DE9FC4106
:10390000FFF708FA7248002135220170417081707A
:10391000C170001D0126017041708170C170343882
:103920006B4BC06B10331C4680F8F02080F8F160C0
:1039300080F8F2603D2280F8F320072280F8F4201E
:1039400080F8F5601A7880F8F6201A460625527835
:1039500080F8F720A47880F8F8401C460C22E47820
:1039600080F8F9401C460F27247980F8FA401C465D
:1039700003F1060C647980F8FB4080F8FC2080F8A5
:10398000FD10122208E000BF00EB020E521C491C81
:103990008EF8EC4092B289B21CF80140002CF3D1B1
:1039A000D8780009FEF74CF8494C303CD4F83CC0BC
:1039B0009444521C8CF8EC0092B2D878FEF740F890
:1039C000D4F83CC09444521C8CF8EC00187992B2A4
:1039D0000009FEF735F8D4F83CC09444521C8CF82A
:1039E000EC0092B21879FEF72BF8D4F83CC094445E
:1039F000521C8CF8EC00587992B20009FEF720F8BE
:103A0000D4F83CC09444521C8CF8EC0092B2587923
:103A1000FEF716F8E36B03EB020C521C8CF8EC007B
:103A200092B2881D511A194481F8E500E06B3721E4
:103A30008318521C83F8EC1091B24218491C82F88A
:103A4000EC5089B24218491C89B2431882F8EC60E4
:103A50000322491C83F8EC2089B24218491C82F8E1
:103A6000EC5089B24218491C89B2431882F8EC70B4
:103A70003A2283F8EC20491C89B243183B2283F890
:103A8000EC20491C89B24318FF22491C83F8EC2022
:103A900089B200234FF49C7504E04618491C86F84F
:103AA000EC3089B2A942F8D38DF804208DF80520B6
:103AB0008DF806208DF807204320009001AB4FF4CD
:103AC0000972A078E16B00F04DF9BDE8FC810000BF
:103AD000840000202DE9FC5FFFF71CF9DFF880C2AD
:103AE000FF270CF107029CF90000002502F12904D0
:103AF000032841D004283FD08DF804708DF805705C
:103B00008DF806708DF80770DCF83C003521012631
:103B100080F8F01080F8F1604FF0030980F8F2901F
:103B20003D2180F8F3108E4B072180F8F4104033CC
:103B300080F8F560197880F8F61019464FF00C0AF5
:103B4000497880F8F71019464FF00F0B897880F804
:103B5000F8101946C97880F8F9101946097980F8E3
:103B6000FA101946497980F8FB109DF8078010215A
:103B7000B8F1FF0F19D03FE0DCF83C008572C57248
:103B8000117801735178417391788173D178C17341
:103B900020788DF8040060788DF80500A0788DF805
:103BA0000600E0788DF80700AEE7322180F8FC10BF
:103BB000042180F8FD1092F8008080F8FE8092F8D1
:103BC000018080F8FF8092F8028080F80081D2782E
:103BD00080F80121362280F8022180F80311217833
:103BE00080F80411617880F80511A17880F8061139
:103BF000E17880F807111C2152464418491C84F8CA
:103C0000EC204218E24682F8EC50DFF854C1002262
:103C10000CF1460C491C06E000EB0108491C88F831
:103C2000EC4089B2521C1CF80240002CF4D1D87828
:103C30000009FDF705FFDAF83CC054468C44491CE6
:103C40008CF8EC0089B2D878FDF7FAFED4F83CC0C5
:103C50008C44491C8CF8EC00187989B20009FDF7F6
:103C6000EFFED4F83CC08C44491C8CF8EC0089B2BF
:103C70001879FDF7E5FED4F83CC08C44491C8CF85B
:103C8000EC00587989B20009FDF7DAFED4F83CC09F
:103C90008C44491C8CF8EC0089B25879FDF7D0FEB1
:103CA000E36B03EB010C491C8CF8EC0089B2901D0E
:103CB0008A1A1A4482F8E500E06B37224318491C3F
:103CC00083F8EC2089B243180822491C83F8EC20C1
:103CD00089B24218491C89B2431882F8EC60491C29
:103CE00083F8EC9089B24318062283F8EC20491C33
:103CF00089B24318491C83F8ECB089B243183A22C0
:103D000083F8EC20491C89B243183B2283F8EC204D
:103D1000491C89B243181F2283F8EC20491C89B240
:103D200043182122491C83F8EC2089B24218491C0F
:103D300082F8EC7089B24FF49C7203E04318491C7E
:103D400083F8EC509142F9DB4320009001AB4FF433
:103D50000972A078E16B00F005F8BDE8FC9F000057
:103D6000540000202DE9F0471E46DDF8208015465E
:103D70008A460446082803D94FF0FF30BDE8F08793
:103D8000670108374FF001093846FEF76FF800F079
:103D90000F00022806D0032804D0042802D06FF0B8
:103DA0000400EBE75DB13078717801EB0020B17869
:103DB00001EB0020F17811EB002003D00AE06FF056
:103DC0000D00DBE73846FEF751F8400702D46FF0EC
:103DD0000B00D3E7B8F1000F07D13846FEF746F8DD
:103DE000400702D46FF00A00C8E74FF4427000EBBE
:103DF00044100746FEF73AF8422806D0222804D09D
:103E0000322802D06FF00600B8E740F6084000EB19
:103E1000441004223146FEF7BFF841F208004FEA91
:103E2000182100EB4410FEF787F841F2081008F063
:103E3000FF0100EB4410FEF77FF841F6087000EB3D
:103E40004410FEF713F84FF6FF7101EA8020854217
:103E500000D90546DFF8888009FA04F62046FEF707
:103E600023FF81463846FEF701F838B1B8F8020062
:103E7000064206D04D4504D900207FE76FF00300CD
:103E80007CE74D45EAD82A465146204600F08FFA95
:103E90004FF4847000EB441006462021FEF74CF8E6
:103EA0004FF4027000EB44143046FDF7DFFF0028AA
:103EB000FAD12046FDF7DAFF00F01F00C10605D554
:103EC00020461021FEF738F8284657E70007F0D5BE
:103ED00020460821FEF730F86FF00C004EE7000096
:103EE000100000202DE9F8431D4617460E460446F3
:103EF000082803D94FF0FF30BDE8F883012E08D021
:103F0000022E0ED0032E0CD0042E0AD06FF0040027
:103F1000F2E7042269464FF47060FDF7D3FF009882
:103F200048B169076FF00500E6D49DB1012E05D0B8
:103F3000022E0FD106E06FF00200DDE715F0210F31
:103F4000DAD007E0A90601D52906D5D5E90601D5BD
:103F50002906D1D52046FEF739FB600105F0F001B6
:103F60004FF0010831430830FDF7E6FF224E57B904
:103F70003788781C80B2A0F57F413080F03902D1BB
:103F80004FF4404030804FF48160390A00EB441018
:103F9000FDF7D2FF4FF4A160F9B200EB4410FDF73A
:103FA000CBFF4FF4847000EB441007460121FDF76E
:103FB000C3FF3846FDF75AFF0028FAD108FA04F08B
:103FC000718805F001028143A2400A437280B188E2
:103FD0008143B1800949002021F814000649891D58
:103FE00008554FF4427000EB44152846FDF73EFF9C
:103FF0000028FAD060B27FE710000020DC0100202A
:1040000008B515A0FEF700F800F0DFFA1A491B48C2
:10401000FEF71EFF184A1948121F02F11B01FEF796
:1040200009FD50B11448001F017881B1C278009297
:104030008378427812A0FDF7E7FF0F4C641F0E4A09
:104040002378121F0D490020FEF748FDF7E715A061
:10405000FDF7DAFFFEE7000077697A636869702090
:104060004854545020436C69656E74206578616DC6
:10407000706C650D0A000000B5000020EC01002006
:10408000536572766572204950204164647265738D
:10409000733A2025642E25642E25642E25640D0A8E
:1040A00000000000556E61626C6520746F207265BF
:1040B000736F6C7665207365727665722049502047
:1040C000616464726573732E0D0A000070B5064654
:1040D0000D461020FEF786FE002438B10660C0E9C8
:1040E0000154C460084A116829B107E007A0FDF730
:1040F0008BFF2046F6E7106070BD1146CA68002AA3
:10410000FBD1C86070BD0000DC0000204D656D6F04
:10411000727920616C6C6F636174696F6E20666187
:10412000696C65642E0A00000D4B30B402461868B5
:104130000021002811D00468944206D1C16819609A
:1041400008E00146C068002807D003689342F8D110
:10415000C268CA6030BCFEF723BD30BC70470000A7
:10416000DC000020F0B50E46074687B0012500248C
:104170004FF47A712048FFF7A9FF31463846FCF723
:1041800079F81EA0FDF740FFFCF7C0F820B1042825
:1041900000D124B1002DF7D11CB11CA102E00124F3
:1041A000FBE71CA11DA0FDF72FFFFCF741F912480A
:1041B000FFF7BAFFF4B10DF10600FEF737FD0DF180
:1041C0000E00FEF727FD0DF10A00FEF73BFD0DF195
:1041D0001200FEF713FD02208DF816000622694634
:1041E0004FF41060FDF76EFE684600F049FA0120BA
:1041F00007B0F0BD0020FBE74504000844484350E9
:104200002072756E6E696E670D0A000073756363C8
:10421000657373006661696C000000004448435098
:10422000202573210D0A000038B54FF47A7420461A
:1042300000F00CF969460F20FEF786FA9DF80000A1
:10424000012808D007A0FDF7DFFE00BF9DF80000A1
:104250000028ECD038BD07A0FDF7D6FE00F010F81E
:10426000F4E70000504859206E6F206C696E6B0DAA
:104270000A000000504859206C696E6B0D0A00005E
:1042800010B54FF43850FDF7F1FD0446800701D515
:10429000642100E00A2106A0FDF7B6FE600701D503
:1042A0000CA100E00EA1BDE8104010A0FDF7ACBECF
:1042B0005468652063757272656E74204D6274690E
:1042C00073207370656564203A2025644D627073B5
:1042D0000D0A000046756C6C2D4475706C65780095
:1042E00048616C662D4475706C6578005468652073
:1042F00063757272656E74204475706C6578204DBC
:104300006F6465203A2025730D0A00002DE9F047FF
:104310005FEA02088946064626D042F6081000EBFE
:1043200046152846FDF7A2FD074642F6080000EBB9
:1043300046142046FDF79AFD07EB002087B23802AD
:1043400000EB4610424649461830FDF7BBFD07EB2F
:10435000080086B2310A2046FDF7EEFDF1B228468C
:10436000BDE8F047FDF7E8BDBDE8F0872DE9F04175
:10437000044642F6081000EB44150E462846FDF7A9
:1043800075FD074642F6080000EB44142046FDF791
:104390006DFD07EB0020304486B2310A2046FDF760
:1043A000CBFDF1B22846BDE8F041FDF7C5BD2DE9D2
:1043B000F0475FEA02088946064626D042F20850D6
:1043C00000EB46152846FDF751FD074642F208402E
:1043D00000EB46142046FDF749FD07EB002087B2AD
:1043E000380200EB4610424649461030FDF7D4FD36
:1043F00007EB080086B2310A2046FDF79DFDF1B2B9
:104400002846BDE8F047FDF797BDBDE8F0870000FE
:104410000148FCF7FFBF00004C01002070B50A48BE
:104420004168491C41600025046809E0A068401CFF
:10443000A0606168884202D3A56020688047E46874
:10444000002CF3D170BD0000DC00002003490022E5
:104450004A604A688242FCD370470000DC000020BA
:1044600000787047017070472DE9F041050A00F0AF
:10447000F0014FF4A850FDF75FFD002401264FF432
:10448000027700BF06FA04F0284204D007EB44107C
:104490001F21FDF751FD641CE4B2082CF2D3BDE8E6
:1044A000F08170477047704770470000012210216B
:1044B0000148FCF723B900000008014010B54FF493
:1044C000A850FDF7D3FC00F0F0044FF4B850FDF70E
:1044D000CDFC04EB002080B210BD10B54FF4B050FD
:1044E000FDF7C4FC04464FF4C050FDF7BFFC04EBDD
:1044F000002080B210BD000010B50446014606221F
:104500004FF41060FDF7DEFC042204F10E0190016F
:10451000FDF7D8FC042204F10A014FF4A060FDF776
:10452000D1FC0422A11D4FF47060FDF7CBFC0748BD
:104530000178A1744178E17481782175C078607543
:104540000248401E0078A07510BD00002100002028
:104550002DE9F0410D460646002400F0DEF84FF04C
:10456000FF38AEB10022B05C204444B2102C17DCFE
:10457000521C52B2082AF6DB002441F60877315D5E
:1045800007EB4410FDF7D8FC641C64B2082CF6DB82
:10459000CDB1002108462A5C114449B2102902DD40
:1045A0004046BDE8F081401C40B20828F3DB0024FF
:1045B00041F60866295D06EB4410FDF7BDFC641C5E
:1045C00064B2082CF6DB0020EBE710B5FFF720FF04
:1045D00000F082F800F01EF800F0DAF8BDE81040B4
:1045E000FFF722BE0A4601464FF6FF730148FCF76B
:1045F00027BC0000F400002008B54FF6FF7301222D
:1046000069460348FCF71CFC9DF8000008BD00004B
:10461000F400002070B501220D4DD4032146284638
:10462000FCF76CF80A20FFF711FF0022214628460C
:10463000FCF764F80A20FFF709FF0122214628460B
:10464000FCF75CF8BDE870400A20FFF7FFBE0000F1
:1046500000100140002210210148FCF74FB8000073
:104660000008014010B5C1B2040A4FF4B050FDF784
:1046700063FC2146BDE810404FF4C050FDF75CBC20
:1046800010B50446014606224FF41060FDF784FC85
:10469000042204F10E019001FDF77EFC042204F1D6
:1046A0000A014FF4A060FDF777FC0422A11D4FF42E
:1046B0007060FDF771FC0748A17C0170E17C4170DE
:1046C000217D8170617DC1700249A07D491E087005
:1046D00010BD00002100002010B507490748FEF773
:1046E000B7FF07490748FEF7C5FFBDE81040064978
:1046F0000648FEF7D5BF0000AD4400085546000847
:10470000E1470008F9450008CD470008E5450008E5
:1047100070470020704770477047F0B585B04FF480
:104720001064062269462046FDF7CCFB0422950161
:1047300002A92846FDF7C6FB4FF4A066042203A990
:104740003046FDF7BFFB4FF47067042204A93846DA
:10475000FDF7B8FB80210020FDF7EEFB0020FDF700
:1047600085FB062269462046FDF716FC042202A9B5
:104770002846FDF711FC042203A93046FDF70CFC86
:10478000042204A93846FDF707FC05B0F0BD00007F
:1047900070B500244FF47A754FF464562846FFF73D
:1047A00055FE3046FDF762FB04280CD0641CE4B2D1
:1047B000052CF3D93046FDF759FB02460421024887
:1047C000FDF722FCFEE770BD384A00080A460146A4
:1047D0004FF6FF730148FCF7DDBB0000F40000203A
:1047E00001B54FF6FF73012269460248FCF7D2FB80
:1047F00008BD0000F400002010B504464FF4385006
:10480000FDF734FBC0F38011217000F03800012265
:104810000021202811D038280FD0617010280ED028
:1048200018280CD020280AD0A170082809D01828F0
:1048300007D0202805D0E17010BD6270EEE7A270AD
:10484000F3E7E27010BD10B500244FF43850FDF7C7
:104850000DFBC00700D00124204610BD10B5002478
:104860004FF43850FDF702FBC0F3C200062800D118
:104870000124204610BD10B54FF438542046FDF7F2
:10488000F5FA20F080012046FDF756FB2046FDF7A3
:10489000EDFA40F080012046BDE81040FDF74CBB2A
:1048A00010B502780021012A00D140214278012A66
:1048B00006D0C2788078012A05D001280BD00CE000
:1048C00041F0380109E0012802D041F0080104E07C
:1048D00041F0180101E041F010014FF43850FDF7AC
:1048E0002BFBBDE81040FFF7C6BF70B504464FF480
:1048F00038563046FDF7BAFA41064FF0FF351AD563
:1049000020F03800012C10D040F038013046FDF77F
:1049100013FBFFF7B0FF3046FDF7A8FA012C07D0D4
:1049200000F0380038B1002070BD40F03001EDE7F4
:1049300000F03000F6E7284670BD010202030405CE
:10494000060708090A0B0C0D0E0F101000000000DE
:10495000000000000102030406070809000000002F
:10496000010203043D3D3D3D3D3D3D3D3D3D3D3D61
:104970003D3D3D3D3D3D3D3D3D3D3D3D3D3D3D3D67
:104980003D3D3D3D3D3D3D3D3D3D3D3D3D3D3D3D57
:104990003D3D3D3D3D3D3D3D3D3D3D3D3D3D3D3D47
:1049A0003D3D3D3D3D3D3D3D3D3D3D3D3D3D3D3D37
:1049B0003D3D3D3D3D3D3D3D3D3D3D3D3D3D3D3D27
:1049C0003D3D3D3D3D3D3D3D0D0A0D0A00000000D1
:1049D0003D3D3D3D3D3D3D3D3D3D3D3D3D3D3D3D07
:1049E0003D3D3D3D3D3D3D3D3D3D3D3D3D3D3D3DF7
:1049F0003D3D3D3D3D3D3D3D3D3D3D3D3D3D3D3DE7
:104A00003D3D3D3D3D3D3D3D3D3D3D3D3D3D3D3DD6
:104A10003D3D3D3D3D3D3D3D3D3D3D3D3D3D3D3DC6
:104A20003D3D3D3D3D3D3D3D3D3D3D3D3D3D3D3DB6
:104A30003D3D3D3D0D0A00006572726F722C20579E
:104A4000353530302076657273696F6E206973205A
:104A50003078253032782C2062757420726561645C
:104A60002057353530302076657273696F6E207649
:104A7000616C7565203D203078253032780D0A0054
:104A8000A04A000800000020F400000048200008B0
:104A9000944B0008F4000020FC0E00005820000891
:104AA00001000000100000000000000000127A0069
:104AB00000C0000000000000000000000000000036
:104AC00000000000000000000102573535303000C2
:104AD00000000000A3440008A5440008A944000801
:104AE000A744000861440008654400080000000075
:104AF00000000000000000000000000000000000B6
:104B000000000000000000000000000001000000A4
:104B1000000000000A00000035280008892800086D
:104B200065280008000000000000000000000000F0
:104B30000000000000000000000057495A6E657434
:104B40000000000000000000000000000000000065
:104B500050000000000008DC122212C0A801D4FF9F
:104B6000FFFF00C0A8010108080808027777772E28
:104B70006962696E6875622E636F6D0000000000E7
:104B80000000000000000000000000000000000025
:044B90000000000021
:04000005080000ED02
:00000001FF
